:100000000000022099010000E11D0000991D000080
:10001000991D0000991D0000991D0000991D000008
:10002000991D0000991D0000991D0000E11D0000B0
:10003000E11D0000991D0000ED370000F1380000BF
:10004000E11D0000E11D0000E11D0000E11D0000B8
:10005000E11D0000E11D0000E11D0000E11D0000A8
:10006000E11D0000E11D0000E11D0000E11D000098
:10007000E11D0000E11D0000E11D0000E11D000088
:10008000E11D0000E11D0000E11D0000E11D000078
:10009000E11D0000E11D0000E11D0000E11D000068
:1000A000E11D0000E11D0000E11D0000E11D000058
:1000B000E11D0000E11D0000E11D0000793000009D
:1000C000E11D0000A5310000E11D0000D13200005B
:1000D000E11D0000C9330000E11D0000E11D00002A
:1000E000E11D0000E11D0000E11D0000E11D000018
:1000F000E11D0000E11D0000E11D0000E11D000008
:10010000BD2E0000D12E0000E52E0000F92E0000CB
:10011000E11D000005220000E11D0000E11D0000BE
:10012000E11D0000E11D0000E11D0000E11D0000D7
:10013000E11D0000E11D0000E11D0000E11D0000C7
:10014000E11D0000E11D0000C1340000E11D0000C0
:10015000B9350000E11D0000E11D0000E11D0000B7
:10016000E11D0000E11D0000E11D0000E11D000097
:10017000E11D0000E11D0000E11D0000E11D000087
:10018000E11D0000E11D0000E11D0000E11D000077
:10019000E11D0000E11D0000584B4CF2205210B54B
:1001A0001A804DF628121A8000BF00BF01F01CFE15
:1001B000534B4FF030621A60524A9A60524ADA60EA
:1001C000524B4FF470021A60514A136813F4807353
:1001D00004D150490B604FF4A85313604E4B1A786A
:1001E000110703D51A7842F008021A704B4B4C499C
:1001F0002A221A704B4A4C4B8B4204D252F8040FFD
:1002000043F8040BF8E7494B494900228B4202D2DC
:1002100043F8042BFAE74749474A002352F82300E2
:1002200041F823000133662BF8D1444B444A802126
:1002300003F8011B9342FBD1424B3E4A1A60424BEA
:100240008A221A70A3F5805324225A70A0221A70B1
:100250009A799207FCD59A79D406FCD43B4A9379D3
:1002600003F00C03082B394BF9D103221A714622F3
:100270005A719A799006FCD5344A9179334B4906E4
:10028000FBD5334A4FF08271116009215160202261
:100290001A709A7902F00C020C2AFAD12D4B2E4AD0
:1002A0001A602E4B2E4A1A6000225A60072243F829
:1002B000042C2C4AC3F80C2D62B601F057FE154BE6
:1002C0001B68DA0705D5284801F0EAFD274B284AC4
:1002D0001A60284B1B785B0609D5244C244B2268F6
:1002E0009A4204D1204801F0DBFD0023236003F093
:1002F0005DFB01F07FFD02F01DFEFEE70E200540D4
:1003000030800440823F04000100002B88ED00E0B3
:1003100010D0034014D0034002D0074000E0074053
:10032000EC13FF1F844C00003809FF1FEC13FF1F64
:100330002419FF1F0002FF1F0000000000E400E07E
:1003400056E400E008ED00E00050064000400640A2
:100350004480044004800440C010050014E000E024
:10036000BFD4010000002020AD5BA9591CE0034070
:10037000A5C3945A00F00740FFFFFFFFFFFFFFFFF8
:10038000FFFFFFFFFFFFFFFFFFFFFFFFFFFFFFFF7D
:10039000FFFFFFFFFFFFFFFFFFFFFFFFFFFFFFFF6D
:1003A000FFFFFFFFFFFFFFFFFFFFFFFFFFFFFFFF5D
:1003B000FFFFFFFFFFFFFFFFFFFFFFFFFFFFFFFF4D
:1003C000FFFFFFFFFFFFFFFFFFFFFFFFFFFFFFFF3D
:1003D000FFFFFFFFFFFFFFFFFFFFFFFFFFFFFFFF2D
:1003E000FFFFFFFFFFFFFFFFFFFFFFFFFFFFFFFF1D
:1003F000FFFFFFFFFFFFFFFFFFFFFFFFFFFFFFFF0D
:10040000FFFFFFFFFFFFFFFFFFFFFFFFDEF9FFFF23
:1004100010B5054C237833B9044B13B10448AFF33E
:1004200000800123237010BDEC13FF1F00000000AB
:10043000884C0000084B10B51BB108490848AFF3C1
:1004400000800848036803B910BD074B002BFBD0A0
:10045000BDE81040184700BF00000000F013FF1F68
:10046000884C0000EC13FF1F0000000010B5044B87
:10047000044640F82C3B02F0FFFC204610BD00BFB4
:10048000FC48000008B502210C2001F01BFD0B20E8
:10049000022101F017FD0248BDE8084001F0A4B9AF
:1004A0000814FF1FF0B5B84CB84E002583B0256086
:1004B00000231A460721B64801F0ACFA2DB20022FB
:1004C00011461F2301900095B14800F0C3FA132094
:1004D00001F0E4FBC0F57F70033086FB0023C017FA
:1004E000C0EB231001F0F4FC002319461A46A8487B
:1004F00001F090FA0146A64801F0A2FA2568A24B45
:1005000001351F2D2560D3DD0026A04F1E6000237E
:10051000194607229E4801F07DFA1F2531B20022BC
:100520002B46019000959A4800F094FA132001F0B0
:10053000B5FBC0F57F70033087FB00232841C0EB7B
:10054000231001F0C5FC002319461A46904801F01B
:1005500061FA01468E4801F073FA26688A4B01362B
:10056000AE422660D3DD894E1D600022114607236E
:10057000874801F04FFA1F2100222BB20091019011
:10058000834800F067FA132001F088FBC0F57F7004
:10059000033086FB0023C017C0EB231001F098FC4A
:1005A000002319461A467A4801F034FA0146784881
:1005B00001F046FA2568013D2560002DD5D1734F25
:1005C000734807221146002301F024FA1F262AB29D
:1005D00031460023019000966D4800F03BFA13204D
:1005E00001F05CFBC0F57F70033087FB00233041D6
:1005F000C0EB231001F06CFC002319461A46644836
:1006000001F008FA0146624801F01AFA25685E4BCB
:100610000135B5422560D3DD5C4D1E6007231946C8
:1006200000225B4801F0F6F936B21F221146002382
:1006300001900096564800F00DFA132001F02EFBB1
:10064000C0F57F70033085FB0023C017C0EB23107B
:1006500001F03EFC002319461A464D4801F0DAF934
:1006600001464B4801F0ECF92668474B013E2660F5
:10067000002ED3D11F25454F1D6007231A460021A8
:10068000434801F0C7F929B21F22002301900096C8
:100690003F4800F0DFF9132001F000FBC0F57F7048
:1006A000033087FB0023C017C0EB231001F010FCC0
:1006B000002319461A46364801F0ACF90146344881
:1006C00001F0BEF92568013D2560002DD5D12F4FE1
:1006D0002F4807231A46194601F09CF900261F22CD
:1006E0002BB2314601900096294800F0B3F913204F
:1006F00001F0D4FAC0F57F70033087FB0023C017E8
:10070000C0EB231001F0E4FB33463246314620486B
:1007100001F080F901461E4801F092F925681A4B54
:1007200001351F2D2560D3DD1F25184F1D600022C8
:1007300011460723164801F06DF92AB200211F2344
:1007400001900096124800F085F9132001F0A6FAF6
:10075000C0F57F70033087FB0023C017C0EB231068
:1007600001F0B6FB002319461A46094801F052F978
:100770000146074801F064F92568013D2560002D18
:10078000D5D103B0F0BD00BF4414FF1F1F85EB514E
:100790000814FF1F10B5064C20222046002101F04E
:1007A00009F82046034A0449BDE8104003F0B4B8F4
:1007B0000814FF1F3809FF1F6D0400000020704758
:1007C000704700BF2DE9F04F85B09946BDF93870EC
:1007D000BDF83CA0BB1AC1EB090B002BB8BF5B42B4
:1007E000BBF1000FB8BFCBF1000B5B450D461646C1
:1007F0000093804648DC4D453A4633464CDC19466A
:1008000013460A46C5EB09019B1A89B2002B0CB2AC
:10081000B8BF5B4204EBD474BE42ACBF4FF0FF32B2
:1008200001224D45039102924FEA640429DC9BB2F8
:1008300001930DE0D8F80070BF69B847019BE41A36
:10084000A3B21CB20135002C2DB211DBA94518DB77
:10085000009B5B452A46534631464046EADCD8F8C1
:10086000002053469769294632464046B847E5E797
:10087000029A1644039AA94502EB030436B224B245
:10088000E6DA05B0BDE8F08F4A462B46B946354654
:100890004D4517461E46B2DD304629463E464D467A
:1008A00007468946AEE700BF10B404682469A44631
:1008B0005DF8044B604700BF30B40468BDF80850D1
:1008C0000295A46BA44630BC604700BF30B40468F6
:1008D000BDF808500295E46BA44630BC604700BFE9
:1008E00070B40468BDF90C60BDF81050039604950F
:1008F000246CA44670BC6047704700BF10B582B03E
:10090000B0F90C2001910168009200220C6CB0F942
:100910000A301146A04702B010BD00BF704700BFAB
:1009200001F003010129C17506D0032904D0C28852
:1009300003894281838170470289C3884281838110
:10094000704700BF2DE9F0410568134E6F6986B00E
:10095000B7420446BDF8308010D1013B13441BB2AE
:100960000093CDF804800B46AD6A2046A847236863
:10097000DB6AB3420AD106B0BDE8F0810593049268
:100980000391B84703A925680EC9E6E7204606B0DB
:10099000BDE8F041184700BFF90800002DE9F0411B
:1009A0000568124E6F6986B0B7420446BDF83080C4
:1009B0000FD1013BCDF804800B4400921BB2AD6A0D
:1009C0002046A8472368DB6AB3420AD106B0BDE8D7
:1009D000F081059304920391B84703A925680EC9D5
:1009E000E7E7204606B0BDE8F0411847F9080000E7
:1009F0002DE9F04F0568DFF858B06F6985B05F45A5
:100A00000646BDF93890BDF83CA00C46904615D17D
:100A10001F19BC420CDACDF800A0214601342D6A22
:100A20004B464246304624B2A847BC423568F2DB0A
:100A3000EB6A5B4507D105B0BDE8F08F0393B8477B
:100A40003568039BE4E7304605B0BDE8F04F184732
:100A5000F90800002DE9F04387B099420546BDF939
:100A60003840BDF83C6025D0A24212D00768DFF8BC
:100A70008080D7F81490C14532D18DE850002846C7
:100A8000BC6AA0472B68DB6A434524D107B0BDE8A8
:100A9000F083994202DD08461946034628680E96FF
:100AA000C46B01335B1A1BB22846A44607B0BDE8ED
:100AB000F0436047A24202DD134622461C462868E6
:100AC0000E96631C846B9B1A1BB22846A44607B083
:100AD000BDE8F0436047284607B0BDE8F04318473B
:100AE000059304920391C84703A92F680EC9C4E770
:100AF000F90800002DE9F04FD0F800E0DFF8909001
:100B0000DEF814B083B0CB450446BDF93080BDF8A3
:100B100034A00D4617461E4631D1CDF800A0DEF8B0
:100B200024B0294633463A462046D8472368CDF8B4
:100B300000A008F1FF323A44D3F824B0294612B29B
:100B400033462046D8472368CDF800A02946D3F87D
:100B500020B03A4643462046D8472068CDF800A04A
:100B6000711E29444346056A09B23A462046A84701
:100B70002368DB6A4B4506D103B0BDE8F08FD84748
:100B8000D4F800E0C9E7204603B0BDE8F04F1847AD
:100B9000F9080000F0B4002401264FF6FF75094F54
:100BA00007600471C475C48104824476C46186758B
:100BB000067685824582C180028141818281F0BCB6
:100BC000704700BFA44300002DE9F04F93B090465A
:100BD0000591C1691090BDF870000790BDF8749040
:100BE0009DF878A00493002900F0CD800A7A0AC904
:100BF000894604998A1AD2B203EBC203BAF1010FF3
:100C0000DA780B9293F905201E8893F802B00F92C0
:100C100093F9064079D913B2099323B20C93109B30
:100C20001A68A94B1193194653698B4240F0A6806C
:100C30000B9B002B55D01FFA88F300210D93C8465B
:100C40002344DDF8409006910E930F460C46BBF10D
:100C5000000F3FD0BDF818100C9B03971FFA8AF0C5
:100C6000CB1813FB00F304900E9801440D98034435
:100C700009B21BB20A910893002505E00135EBB2D9
:100C800064009B45E4B222D9039B2B44590703D14E
:100C9000731C18F806409EB22306EFD5099BBDF8D9
:100CA0001000E91811FB00F10598BAF1010F0FFAD5
:100CB0008AF301441CD0079801900093D26909B2CD
:100CC00017464846089AB847D9F80020D6E7039F48
:100CD0005F44FFB2069B0B9901330693DBB2994246
:100CE000B5D8D36A119A934243D113B0BDE8F08FBF
:100CF0000F9B191893690A9A29441F4609B2079B4A
:100D00004846B847D9F80020B8E700230C93099368
:100D100085E70A9A0D9B0132013B52B213F0FF03A3
:100D20000A920D936FD1DDF81890079BDDF83C8097
:100D3000DDF820A04B4517D0BAF1010F00F0C880B4
:100D40000B9A109DCDF804900BEB8B014FEACB036F
:100D50000A4400931146DEF81C405346424609B24D
:100D60002846A047D5F800E0DEF82C30119A9342CF
:100D7000BBD0109813B0BDE8F04F1847109D28461F
:100D800098472A6854E7109A0598B2F90A308342C6
:100D9000ABDDB2F90C304345A7DD062313FB0A0394
:100DA000002BA2DD08EBCA03002B9EDD537E2BB97E
:100DB000049BAF2B02D90133DBB20493109BD3F811
:100DC00000E0414B11931A46DEF81430934240F094
:100DD0008E801FFA88F30E9308339BB2BDF814205F
:100DE000059305230D9300230A93CDF83C800FFA59
:100DF0008AF3DDF84080CDF818900B921FFA8AFB39
:100E0000CDF820A099460A9ABDF810000B9C0E9DC3
:100E10000523194611FB00232C481146C75C039794
:100E200002FB0B4214FA81F312B21BB209920C932B
:100E30002C462E461CE0089B0999012B2AB24B46F2
:100E400040462DD0079F0197CDF80090DEF81CA0FA
:100E5000D047D8F800E0039B5B0801340393059B5F
:100E6000A4B25D445E44A342ADB2B6B23FF451AF0A
:100E7000039BD807DFD4079B069A9342EBD0089BCD
:100E8000012B16D0069B0193CDF80090DEF81CA034
:100E900009994B4632B24046D047D8F800E0DAE72D
:100EA000DEF818A0079B0C9922B2D047D8F800E0D2
:100EB000D1E7DEF818A00C991346404622B2D0477D
:100EC000D8F800E0C7E700BFF9080000F4430000CD
:100ED0000B99109DCDF800900531DEF8204009B245
:100EE000424608232846A047D5F800E03CE7109C7E
:100EF00020469847D4F800E06BE700BFF0B5C3691F
:100F000085B004462BB30A2968D00D294AD01A7A35
:100F1000914247D3587A884244D35D688A1A05EBD8
:100F2000C205AA78002A50D0E87800284DD0207E4B
:100F300000283AD095F905E0B4F90E00A67DB4F981
:100F40000A70724406FB0202BA4262DCB4F9102055
:100F500030E00A2956D00D2924D0027E002A4BD039
:100F6000B0F90E00A57DB4F90A60062212FB050255
:100F7000B2423EDD228AE38102EBC50212B218467C
:100F80002282A78A668A02950B468DE8C000014638
:100F90002046FFF719FEA37DE28903EB430302EB32
:100FA0004303E381012005B0F0BDA67DB4F90E0036
:100FB000B4F91020B4F814E0678A02960B468DE865
:100FC000804001462046FFF7FFFD2979E389A27D95
:100FD000012001FB0233E38105B0F0BD0022C28194
:100FE0009A7A817D038A01FB02330382012005B0D6
:100FF000F0BDB4F91020C4E7857DB4F91020B0F934
:101000000E00BEE7028A817DC38102EBC103038229
:10101000C8E70020E0819B7A228A03FB062212B2F5
:101020002282C7E72DE9F04F834A84490824102320
:101030001460136090F835400123A3405BB20B703D
:1010400090F835300133DBB2032B85B080F83530B2
:1010500040F2C381002280F8352090F8343090F8B7
:1010600028100133DBB2994280F8343040F2E0813D
:10107000846B734B1022082119601A6090F8352098
:1010800002F0FF03002A40F0C380B0F90660002E92
:1010900040F3BB806B4FDFF8E491DFF8DC816A48F6
:1010A000DFF8DCC1DFF8DCB11A464FF0040EA246CF
:1010B00077E0664C0125256013F0040F644D046849
:1010C00040F2031408BF4FF480742C600C074CBF2F
:1010D000604C614C4FF480552560DCF8004014F002
:1010E0000C0F08D113F0080F5C4D40F2031408BF39
:1010F0004FF480742C60CD064CBF564C564C4FF4C8
:1011000000552560DCF8004014F00D0F08D113F0F5
:10111000100F534D40F2031408BF4FF480742C603D
:101120008C0640F19B81494C802525600468650749
:1011300008D113F0200F4B4D40F2031408BF4FF4B9
:1011400080742C604C0640F19181404C1025256044
:101150000468650708D413F0400F434D40F20314B0
:1011600008BF4FF480742C600C0640F17B81374936
:1011700004240C600168890708D413F0800F3B49F0
:1011800040F2031308BF4FF480730B60CBF800E00C
:1011900000BF00BF0132D2B2B242C7F800E013462E
:1011A00033DA33440AEB03041AF80310A35D1AF888
:1011B00002504FF480343C609B00090101F0300183
:1011C00003F00C03D9F800400B4343EA8513E4060F
:1011D000D9B203D4264D4FF480742C604FF4003400
:1011E0003C60D9F8004014F0110F03D1214D4FF4A9
:1011F00080742C604D073FF55CAF0124C8F80040B7
:101200005AE70398029B1C44846305B0BDE8F08F45
:10121000B0F906300293002BF4DD029BDFF8248046
:10122000DFF858C0DFF85CE0134F0749074E039022
:10123000042500220193BFE084F00F403C09FF1F0A
:1012400088F00F4048F00F40D4F00F40C4F00F403A
:1012500000C0044004F00F4008F00F4030900440FC
:10126000349004401CC0044010C0044008C0044036
:1012700040A0044044A00440C8F00F4054F00F4088
:1012800014F00F4044F00F40CEF80090DCF80090CE
:1012900019F0100F04D140F20319A148C0F80090D2
:1012A00098074FF4003940F12B81CEF80090DCF81C
:1012B000009019F0110F04D140F203199948C0F8B9
:1012C000009058074FF0010940F11381C6F80090D3
:1012D000D1F8009040F2031ADFF860921807C9F8BD
:1012E00000A040F1F580DFF858A209F5332909F193
:1012F00014094FF4805BCAF800B0D9F8009019F0D7
:101300000C0F05D140F2031ADFF83892C9F800A09B
:10131000D80640F1CC80DFF828A2DFF82C924FF4F9
:10132000005BCAF800B0D9F8009019F00D0F05D194
:1013300040F2031ADFF81492C9F800A098064FF0A3
:10134000800940F1A980C6F80090D1F8009019F00A
:10135000070F05D140F2031ADFF8F491C9F800A095
:1013600058064FF0100940F18C80C6F80090D1F873
:10137000009019F0040F05D140F2031ADFF8D49160
:10138000C9F800A013F0800F4FF0040372D033604F
:101390000B68980704D440F20319634BC3F800901C
:1013A000CEF8005000BF00BF0132019BC8F80050CA
:1013B000D2B29A42BFF625AFA35CD8074FF480396A
:1013C0003FF562AFC8F80090DCF8009019F0100FFC
:1013D0007FF466AF4FF480795FE790F83530012BEA
:1013E0007FF446AE90F83430DF0740F19480042358
:1013F000136090F834309E074CBF4C4B4C4B02228C
:101400001A6090F834305D074CBF484B484B0122BE
:101410001A6090F82830082B7FF62AAE90F8343006
:101420001C074CBF434B444B846B01221A6020E6DF
:1014300080F8342090F82A3043B190F82930C3F175
:101440000103DBB280F8293080F82A2090F8293097
:10145000C3F1090350F8234084630AE68024C8F8E6
:10146000004063E60421C8F8001083E61024C8F8A1
:1014700000406DE63B600B689B0791D44FF4807988
:101480008BE7C7F80090D1F8009019F0040F7FF4B3
:1014900079AF4FF4807A71E7C7F80090D1F80090E7
:1014A00019F0070F7FF45CAF4FF4807A54E7DFF850
:1014B000A8A0DFF894904FF4005BCAF800B0D9F808
:1014C000009019F00D0F7FF439AF4FF4807A31E7B7
:1014D000DFF884A0DFF870904FF4805BCAF800B0AA
:1014E000D9F8009019F00C0F7FF412AF4FF4807A06
:1014F0000AE7C7F80090D1F800904FF4807AEBE645
:10150000C8F80090DCF8009019F0110F7FF4D9AE04
:101510004FF48079D2E6064B04221A6069E700BFD7
:1015200040A0044044A0044008C0044084F00F40A0
:1015300088F00F4044F00F4048F00F4000C00440D6
:1015400004F00F403090044014F00F4034900440F9
:101550001CC0044010C0044008F00F40064A074970
:1015600013780868013B5BB2137013785BB2002BF1
:1015700000DD7047FFF756BD3C09FF1F4814FF1FF1
:101580000029C0F2DF802DE9F043B0F90A408C4217
:1015900040F3CB80002AC0F2C880B0F90C409442DE
:1015A00040F3C380C47D022C00F0C180032C00F006
:1015B000CE80012CB0F9068004D108F1FF34A41AC2
:1015C0000A4621B290F8287090F829904FEA233CFF
:1015D000C3F3C71EBA42C3F347035FFA8CF40EF09D
:1015E0000F0503F00F0651DA09F1080902FB08F7AD
:1015F00007EB470250F82970114439441CF0010FE1
:1016000011F8182022F0030201F8182007D0B0F9D1
:10161000067011F8172042F0010201F817201EF0A1
:10162000010F07D0B0F9067011F8172042F002023E
:1016300001F81720B0F9062013F0010F8B5C00F0C1
:10164000828043F001038B54032702220B7814425B
:1016500003F0E30318BF43F0040315420B704FEA95
:10166000420305D091F800E04EF0080E81F800E04A
:101670001642DAB203D00B7843F010030B70B0F9C6
:101680000630013F1944E1D1BDE8F083D21B08FBCD
:1016900002F209F1080702EB4202114450F82780D8
:1016A00018F8012022F0030208F801201CF0010FB5
:1016B00008EB0107B0F906C017F80C2014BF42F080
:1016C000020222F0020207F80C2018F801201EF096
:1016D000010F1CBF42F0010208F80120DB0744BFE4
:1016E00042F0020208F801200223032100E03A78C8
:1016F00002F01F021C4218BF42F020021D423A7045
:101700004FEA430205D097F800E04EF0400E87F80C
:1017100000E01E42D3B203D03A7862F07F023A7002
:10172000B0F9062001391744E1D1BDE8F083B0F9E2
:101730000680048908F1FF35013C691AA41A09B230
:1017400022B23FE7704723F001038B547CE7048902
:10175000B0F90680013C641A114622B232E700BF9C
:1017600003FB01F370B50E46054603EB430480F816
:101770002810AAB1012104FA01F002F0D3F828627E
:10178000B0B12044013E0023F6B2032285F8352093
:1017900085F8346085F82A3085F82930686270BD94
:1017A0002046012102F0BEF828620028EAD170BD6F
:1017B00070BD00BF70B5044615460E461146202286
:1017C000FFF7E8F9074B236000208021E06284F8EE
:1017D000301020462B4632461021FFF7C1FF20462D
:1017E00070BD00BFFC4800002DE9F041002380F8E7
:1017F000293090F829306E4A6E4F1060C3F109030A
:101800006D4D50F8233083630426044601211320D4
:1018100000F058FB4FF010083E6001210A2000F054
:1018200051FB01210920C5F8008000F04BFB634B00
:1018300008221A600121172000F044FB2E600121CC
:10184000162000F03FFB022301212B600E460F20E3
:1018500000F038FB2E6094F82830082B00F2A280AC
:10186000574A58491368584F584E5948DFF89CC199
:10187000DFF89CE113F4803F40F2031314BF1D46D0
:101880004FF480750D601268524D12F4003F14BF82
:101890001A464FF480723A604F4A336007F5FE579C
:1018A000036000F536202B600C371360183002F50A
:1018B00033224FF4803538323B60B360056000233B
:1018C000464D47481268CCF80030CEF8003001236E
:1018D0002B60036000F5BE501830424F424E3B6013
:1018E00033602B610360D00658BF4FF48073314AD8
:1018F00058BF0B603D4B4FF4003111601B6813F073
:10190000110F03D1304B4FF480721A60384B3949B4
:10191000394E2E4D394A012018604FF480734FF430
:10192000805036682B600860126812F00C0F04BFFC
:10193000274A13602F4A314B4FF4005111601B6846
:1019400013F00D0F03D1234B4FF480721A60284A15
:10195000294B802111601B68590703D11E4B4FF49E
:1019600080721A60224A244B102111601B685A07AA
:1019700003D4234B4FF480721A601D4A1E4B04217E
:1019800011601B689B0703D41E4B4FF480721A60D2
:1019900004F12C0040F283321B4901F023FA62B6B5
:1019A000BDE8F0814046314600F08CFA3E6057E7D2
:1019B0004814FF1F48F00F4088F00F4084F00F409C
:1019C00040F00F4040A0044044A0044000C0044048
:1019D00030900440349004401CC00440801AFE4300
:1019E000B002FE43B402FE439C1AFE4354F00F4083
:1019F000C8F00F4008F00F40D4F00F4014F00F4033
:101A000010C0044008C004405D150000C00AFE4339
:101A1000C40AFE43980000F01C00C3F341030343D3
:101A2000100243EA413300F4E06052011843D2B29D
:101A3000890201F4C0511043084380B2704700BFCF
:101A40004B1E9BB24FF6FD72934201D8FEF756BF74
:101A500010B4044690F82900B4F9063094F8282010
:101A6000083012FB03F254F820005DF8044B02EB3F
:101A7000420202F083BA00BF374A384913681B0696
:101A8000FCD40B6813F08003F8D172B634490A789D
:101A9000002A5FD0334A3448F0B4344C17680668E3
:101AA0002568D4680C303E44143200681268304F08
:101AB00035442C4420440244C2F34E022D4E2E489D
:101AC0002E4D2F4C42F400423A60376806682D686C
:101AD0002C4A24680C303E44006812682A4F354472
:101AE0002C4420440244C2F34E02284E2848294D7B
:101AF000294C42F400423A60376806682D68274A4C
:101B000024680C303E4400681268254F35442C444C
:101B100020440244C2F34E02224E2348234D244C5B
:101B200042F400423A60376806682D68214A24680A
:101B30000C303E440068126835442C442044024472
:101B4000C2F34E021C4842F4004202600B7062B6BF
:101B5000F0BC704762B6704724B0034024B00B401D
:101B60004D14FF1F38B003403CB0034040B0034069
:101B70002CB0034058B003405CB0034060B0034059
:101B800064B003406CB0034030B0034038B00B4049
:101B90003CB00B4040B00B4044B00B404CB00B404D
:101BA0002CB00B4058B00B405CB00B4060B00B4009
:101BB00064B00B406CB00B4030B00B4030B42948DF
:101BC000294A2A4B2A4D6024E121047011701B78A8
:101BD000284C082B30D00A2B2748284937D00C2B0B
:101BE0000CBF35225D2212232A60236002600B6045
:101BF000234B24491B78244ABBB101230B6013609B
:101C0000224B23491B78234A012B26D9042B0FD9B9
:101C1000082B1ED9102B94BF862387230B601360DB
:101C20001D4B01221A7030BC70470B601360E7E750
:101C300084230B601360F3E700F58E200F49083012
:101C4000212213232A60236002600B60D0E739222F
:101C5000F7E785230B601360E2E780230B601360D6
:101C6000DEE700BF00400740014007403D09FF1F7D
:101C700008B003400CB0034008B00B400CB00B4060
:101C80005014FF1F20B0034020B00B403E09FF1F3F
:101C900024B0034024B00B404D14FF1F47282FD819
:101CA000334B2DE9F0411E5CFF2E2BD0314B1B78BE
:101CB000002B2AD132062CD472B62F4D2F4C2F4632
:101CC000012326602B7062B672B623681B060CD403
:101CD0003B781BB9F4E72B78002BF1D062B601F00A
:101CE00033F972B623681806F5D5254B1B68002218
:101CF0002A7062B6234A107843FA00F0BDE8F081FA
:101D0000002070470020BDE8F081FFF7B5FE3206E5
:101D1000D2D572B61C4DDFF87C801C4C06F0400713
:101D2000FFB206F03F06D8F80030DFB123F0100311
:101D3000C8F8003001232660134A2B7062B672B6D1
:101D4000236819060CD413781BB9ECE72B78002B09
:101D5000E9D062B601F0F8F872B623681B06F5D533
:101D60000B4BC3E743F01003C8F80030E2E700BFB5
:101D70004C4900004D14FF1F4F14FF1F00B00340DB
:101D800010B003404C14FF1F4E14FF1F00B00B4057
:101D900010B00B400CB00B4008B5104C08E02368A5
:101DA00059050DD423681A050FD42368DB0411D418
:101DB00023685803F3D500F025FA23685905F1D5B7
:101DC00001F05AF923681A05EFD501F0EBF9236801
:101DD000DB04EDD501F07CFAEAE700BF3480044073
:101DE00008B5FFF7D9FF00BF014B10221A807047DA
:101DF00000200540704700BF094908B50B6830B1A5
:101E00006A461844A2F50052904202D20860184671
:101E100008BD01F0C5FD0C2303604FF0FF3008BD85
:101E20004009FF1FFEE700BF1C4A02EBC003012967
:101E30005B6811D004291BD052F83000002280F8D2
:101E4000802229B1022920D0032922D01A607047AC
:101E50004FF480721A60704752F830004FF4A2724B
:101E600080F880121A601A6822F020021A60704707
:101E700052F830104FF4A272012081F880021A60EB
:101E80001A6842F020021A60704740F203121A608A
:101E900070474FF481721A60704700BF9449000088
:101EA00030B4054B054D064C002210211A602A6003
:101EB0002060196030BC704714D0034004D0034048
:101EC00000D003403F2801D8FFF7AEBF704700BFE6
:101ED0002DE9F843054672B6204F214B214A1B6875
:101EE0003C68126862B6520102D5322B88BF0134B9
:101EF00095B3C3F5EA331C4EDFF86490DFF86480D5
:101F0000BF334FF47A72A6FB031302FB04F404EB15
:101F1000931472B6D9F800103A68D8F800E062B6A7
:101F2000C1F5EA33BF33A6FB03031EF0806FC4EB99
:101F300093134FF47A7002D0322988BF013200FB2C
:101F40000233B3F57A7F04D3013D05D004F57A74EA
:101F5000DFE700F0F9FFDCE7BDE8F8835414FF1F6A
:101F600018E000E004ED00E089888888F8B53E4B71
:101F70003E49DFF818C13E4E3E4ADFF814E13E4DBF
:101F80003E4C3F4F4FF0006018604FF0805018609B
:101F90004FF0005018604FF0804018604FF0004044
:101FA00018600020086028234EF6FF71CCF800105E
:101FB000CEF8003033600EF5012E13602B602360E5
:101FC00005F500253B6004F50024B36207F5002702
:101FD000936206F5012602F501220EF1100E05F6B8
:101FE000E87504F6E87407F57F67103220362B6039
:101FF0002360CEF800303B6013603360214EBB613C
:10200000936109223260A7F5002706F58056203F2C
:10201000083638603160BB60F36047F8042C06F581
:10202000FD2607F5FE2706F2FC760437306039609E
:10203000B360FB6046F8042C0836C7F8FC0F06F6C0
:10204000FC76114831602B6023600260FFF7B6FD1B
:102050003220FFF73DFF00F023FD4FF4AF70BDE8E5
:10206000F840FFF735BF00BF04E100E00480034003
:10207000148003401C800340248003402C800340D4
:10208000348003400080034000900B4008800340F0
:102090000C800340431E052B14D872B60A4951F830
:1020A000230068B170B4094C058834F813204668E1
:1020B00041F82360521B24F8132062B670BC7047AD
:1020C00062B6704700207047B814FF1F1419FF1F35
:1020D000013805280BD872B6074B53F8203043B1AE
:1020E00000205B680130002BFBD162B670470020F6
:1020F00070471846F9E700BF1415FF1FF0B472B619
:102100001A491B4E012311F8014B194F9A0024075D
:1021100042F0010505D556F8324064B156F8352035
:10212000BAB10133072BEED162B6124B00221A70FE
:10213000F0BC00F039BD0F4C0F4D217847F83250FC
:1021400007EB431308304A1E5860227062B6F0BC99
:1021500070470849094B0A7847F8353007EBC50343
:102160000830013A58600A7062B6F0E7944B0000FC
:102170000000FF1F4D15FF1F88004000C8004000F1
:10218000431E052B1DD81B4A400140F0100030B4FF
:10219000104472B6184CE25C032A1BD8DFE802F048
:1021A0000212151703220D88E25410F0080F14BF15
:1021B000C823882343EA054308310360416062B6BF
:1021C00030BC704708300222EDE70522EBE708300B
:1021D0000422E8E7094A52F8230038B1084A52F8C5
:1021E0002300416042F8231062B6E9E742F8231069
:1021F000034AF7E70000FF1F5C15FF1F1415FF1FC0
:102200002C15FF1F2DE9F04FDFF818A3DFF818B3E6
:1022100087B044E0AD4F4FEA930807EBC809013E91
:10222000D9F8042003F00803F6B2A2F1080003F085
:10223000FF04002B40F0098157F838301B0C99B28D
:1022400022F8081C002B00F0F780A14B22F8064C66
:1022500042F8044C53F82620002A00F0C8819D4D16
:1022600055F8263058609C4C45F8260034F8163056
:10227000194424F8161000F077FC002800F0BB8108
:10228000964A974B19F0080F00F1080018BF134643
:10229000C9F8040047F8383008238AF800309AF863
:1022A0000040E4B261071CD58E4B1B78B3B18E4958
:1022B0000A7802F0FF0322B1013BDBB20B7003B9D5
:1022C00000BE8A490A7802F0FF032AB1013BDBB263
:1022D0000B70002B00F0618100F0DEFC04238AF813
:1022E000003004F0080303F0FF02002B00F0D1805F
:1022F0009BF80030DBB21E098CD19A08DFF8CC8144
:1023000058F8321008EBC200C1F383010139446868
:102310000C2978D8DFE801F07B7B777777777777C0
:1023200047777777070072482168724D0290074619
:102330006068714B686088B20024684E48F832606B
:102340004FF00109B0F5A06F009329601C60C8F838
:102350001040C8F8184087F8009000F0078200F29B
:10236000E880B0F5817F00F03A8340F2858140F249
:10237000A112904200F0E48140F20232904240F01B
:10238000E481AA8802F07F02062A00F2DE816D88CD
:10239000002D40F0DA815949920011440A7842F048
:1023A00002020A70E5E1544B00931A682AB3544FB5
:1023B0004F4B398853481C78057840290E4628BF72
:1023C0004026891B002C45F0020E84F0010489B2DE
:1023D0001C7039800CBF8824C82408EBCE0785F018
:1023E000010544EA06447A6048F83E4032440570EC
:1023F000002900F0C580009B1A603E4B1A88B2F598
:10240000A06F00F0C180404A0123137044E73948AF
:102410003E4D0168A94200F005813D4DA94204D11D
:1024200040683C49884200F040812C4948F832100D
:10243000354A012313702FE7284A294B19F0080F5A
:1024400018BF134647F8383026E700F0ADFB324A94
:10245000324952F82630002B00F0D48058688C5D49
:1024600042F8260003F10802C9F80420032C05D81D
:10247000DFE804F05C02292602228A551A8819F046
:10248000080F0CBF8823C82343EA024347F83830BB
:1024900002E7E00700F18480210600F1E380A20753
:1024A00006D51F4A1F4913780220DBB2137008704B
:1024B000E30602D51B4B10221A7007B0BDE8F08F5F
:1024C00004228A55DAE705228A55D7E70000FF1F64
:1024D000B814FF1F5C14FF1F1419FF1FC800400031
:1024E000880040005815FF1FD114FF1F6C15FF1FF7
:1024F000D014FF1F4415FF1F5814FF1FC0200740B2
:102500007414FF1F4C15FF1F94200740210900027F
:1025100021090003020004001415FF1F5C15FF1FB2
:1025200088200740802007409020074003228A55DA
:10253000A4E7B0F5086F00F0368240F2E68040F67E
:102540002112904200F0048140F62122904200F0D6
:102550000D81B0F5106F40F0F880B54AB54CA97800
:10256000117004F1C00503E00834AC4200F095811D
:10257000236A1A06F8D5606A083800F015FBF3E7FD
:10258000402E18BF002236E700219A785970AA4BD6
:102590001A70AA4A012313707EE600F05DFB9BE6E9
:1025A000A44BA648A6491A614FF0020E80F800E03D
:1025B000A44F0A70A44919609960A44EA44D9E4C82
:1025C0009A610D213970FF213170DFF8B4E2297072
:1025D0002270A04DA04A8EF800109F27012406F813
:1025E000047C5D600470DA6007B0BDE8F08F43F8EA
:1025F00026009A4D37E69A4A47F838001378013397
:10260000137049E68B5D032B00F2A98001A252F8FA
:1026100023F000BF99220000992200000527000046
:10262000FF2600004168B1F5803F7FF4FEAE84488C
:102630008C4B01788C4E24781D78347081F0010425
:1026400041F00201002D047085F0010508EBC10086
:102650001D704FF000040CBF8825C82548F8315084
:102660004460E2E677497A4B80220D2008701A70A8
:10267000A2077FF51DAF14E7802800F0C2818228F1
:1026800063D1A98801F07F0106295ED86D48774A99
:10269000890008441470547001788C0740F1BF81A0
:1026A00082F800904FF0020981E12178A9297FF496
:1026B000BCAE617845297FF4B8AEA178C2297FF419
:1026C000B4AEE1786B297FF4B0AE5D48654B01781C
:1026D0001C7881F00105002C41F0020105700CBF4F
:1026E0008820C82084F0010448F8310008EBC101BB
:1026F0005F481C70002505244D60047095E6012399
:102700008B55C9E500238B55C6E5A0F5D06001289F
:102710001BD858494A68C2B16C88AE8802E00C31B7
:102720004A6892B10B88A342F9D14B88B342F6D1E3
:10273000240A032C0CBF92F80090B1F8089036E1FF
:102740006A88B2F5407F00F062813E4B0F221A701A
:102750003A4A01231370394A012313709CE519F09A
:10276000080F0CBF022303238B5595E500254FF07E
:102770000109002101918E460E460A463048047830
:1027800044F0020708EBC70CB9F1000FCCF80420A5
:102790000CBF8822C82242EA0E0348F83730029B59
:1027A000244F1D7084F001020270DFF8B8C0DFF81A
:1027B00090E0E1B9402ECBD142F0020208EBC20317
:1027C000019F1C4E5F603DBB0D04029B047045F0F1
:1027D00088050F4446F8325083F800903B46402964
:1027E000B6D10021244A009811800360B0E7402947
:1027F000E2D942F0020207EBC203019E5E60002DA7
:1028000040D01E488CF80090334640398EF8004086
:10281000403347F83200E5E7029B04700D0483F86B
:102820000090019B45F0C8050B4446F83250D6E7AE
:102830005815FF1F0000FF1F9820074094200740F5
:102840004C15FF1FC020074088004000882007402B
:10285000802007407814FF1FD414FF1F5C14FF1F53
:102860004D15FF1FD014FF1F6215FF1F5015FF1FCE
:10287000D114FF1F9C4B00007414FF1FC8004000C0
:102880008C200740019B76488CF8009040398EF8E8
:102890000040403347F83200A4E77249724A734D52
:1028A000734C039100237349DFF8EC910494059570
:1028B00001911E461C461546D9F8000028B147680C
:1028C00000F072F93846002FF9D1059B2868C9F845
:1028D000006043F8246028B1476800F065F9384685
:1028E000002FF9D1039A019B42F8046B1B780392E5
:1028F000049A2E60023B22F81460032B07D8DFE80D
:1029000003F049024902019B4FF001021A70019B3A
:1029100001340133062C09F1040905F10405019382
:10292000CAD1554E554FDFF87491002232700125FF
:102930000EE0AC0044F0020244F00304002348F827
:10294000323048F834304E4B9F4205F1010524D017
:1029500019F8013B07F8043B1B07EAD500F004F91E
:10296000AC0008EB451300F10802002862D05A6061
:102970003B4B48F8343000F0F7F844F0010308EB23
:10298000C30200F1080100284CD051603D4A48F8CC
:102990003320CFE7019B1E70B9E7029B93F80090AC
:1029A00089F00105E5E63849384A09781170E98867
:1029B000494546D236480478402944F002070E467D
:1029C00008EBC70528BF402693196A600193891B4D
:1029D0004FEA064E4FF001090025C822DBE6AA881F
:1029E00002F07F02062A3FF6B0AE6D88002D7FF41C
:1029F000ACAE2849920011440A7822F002020A7013
:102A0000B7E6224A4FF0020914705470CFE7AA8843
:102A1000042A7FF49AAE1D4A0A211170C7E74FF0CD
:102A20000209C4E7337844F00102013348F8320068
:102A300033707FE73378AC00013348F834003370EB
:102A400099E74E46402E28BF40269319C6EB090150
:102A50004FEA064E019300254FF001098EE600BFB4
:102A6000880040002C15FF1F1415FF1F5C14FF1F6A
:102A70001419FF1F5C15FF1F4D15FF1FC4200740D1
:102A8000DC200740C80040005815FF1F5015FF1FED
:102A90004C15FF1FC0200740B814FF1F944B0000C7
:102AA0002DE9F843244C00F0F3FD002204F1C800A6
:102AB00023461A605A60083383424FF00001F8D170
:102AC0001E481F4A0368DFF890E01E4F1E4D1F4E40
:102AD000DFF88880DFF888C0DFF8889043F480232F
:102AE000036013681A4843F040731360C4F307236C
:102AF0008EF80030C4F307433B70240EFF2302F529
:102B0000C9222C7002F5847288F80030114D8CF8BF
:102B100000303370012389F8003070268EF864107D
:102B20004FF40014102107F82C3C2E700460117033
:102B30000EF1640EBDE8F8830000FF1F34800440EE
:102B400000D80040B0200740B420074010200740C4
:102B500004E100E035E400E09C20074080200740CD
:102B6000882007409420074072B60D480268B2FAE8
:102B700082F3132B10DC4FF00041D94022EA01020E
:102B8000026062B6074803EBC303DB00C2180021F2
:102B9000C15010465160704762B60020704700BFB8
:102BA0004409FF1F9803FF1F0D4B0E4AC31AA2FBD7
:102BB00003231B09132B0CD80B4A127852B972B697
:102BC0000A484FF00041026821FA03F31A430260F9
:102BD00062B67047064A1278002AF0D0FFF78EBA24
:102BE0009803FF1F398EE3384D15FF1F4409FF1F5F
:102BF0005815FF1F38B5164D2868E0B10188448884
:102C0000A14213DD03191B7A83B104F10803C21832
:102C10000C1B002302E012F8011F21B10133A34273
:102C2000F9D1204638BD1C46204638BDFFF7BCFF11
:102C30000020286038BD074B1B780BB9002038BD39
:102C40000220FFF727FA28600028D7D1F6E700BF57
:102C50006815FF1F5815FF1F0D4B1B78BBB910B52A
:102C60000C4C216803F0FF024B883F2B07DC073335
:102C70000B4401F1470003F8012F8342FBD14023AD
:102C80000B800120FFF77CFA0023236010BD704702
:102C90006315FF1F6415FF1F2DE9F041464F3D7876
:102CA00082B0002D51D0DFF8348198F80000002860
:102CB00041D0424E3478092C78DC41490B5D002B21
:102CC00074D1631CCA1803E012F8011B19B901334F
:102CD0000A2B1C46F8D1002D0CBF05460025FFF736
:102CE00043FF78B3374B3849384A1B8831F8141002
:102CF00032F814200574DFF8DCE0354D83731B0ACD
:102D00002D5D1EF804E081720273C373090A092362
:102D1000120AC17245720380427380F808E00146CE
:102D20000520FFF72DFA98F800303D780134013B7B
:102D3000347088F800300135EDB2042D8ABF0023CD
:102D40003D703B7002B0BDE8F0810520FFF7C0F98F
:102D50000128F7D81F4B1A4C93E8070003C42146FB
:102D6000284621F8082902340B4613F8012B02B13A
:102D70000130A342F9D1D8B1174B124C1B68019313
:102D8000019BDFF858800D4E03EB8303C0B25B005C
:102D90000022238088F80000327028B10C783D783A
:102DA000002C8ED0144696E73D78C4E7002596E7C0
:102DB0000A4B3D781870BEE7C015FF1FB215FF1F04
:102DC000B415FF1FBE15FF1F7C15FF1F9015FF1FB9
:102DD000A815FF1F7015FF1F5414FF1FA415FF1F18
:102DE000704700BF0368F0B4FBB1002501249D606B
:102DF000DC601B4C1A601C44241104F130056A117C
:102E0000032692009E60174F0679174B47F824104F
:102E100002F1604202F5614205F01F05012000FA4F
:102E200005F5E6541560F0BC7047104C236843F478
:102E30000003236000BF0E4B0E4DA4F58734A4F5AC
:102E40009E7401261E60234604609C68002CD0D02E
:102E50001033AB420360F8D1002303601846E2E769
:102E6000008FFCBF4809FF1F30E400E03C800440B5
:102E700000700340407103400168A9B10B4BF0B4EE
:102E80000B441B110A4E0B4F0B4D46F8237003F1F8
:102E9000300202F01F0401235211A340002445F820
:102EA00022308C600460F0BC704700BF008FFCBF14
:102EB0004809FF1FE12D000080E100E0024A034BBA
:102EC000012111601B6818470C7103404809FF1F5E
:102ED000024A034B012111605B6818471C710340D3
:102EE0004809FF1F024A034B012111609B681847E4
:102EF0002C7103404809FF1F024A034B0121116056
:102F0000DB6818473C7103404809FF1FF8B572B1F0
:102F100006460F4614460025336817F8011B1B6848
:102F200030469847013C0544F6D12846F8BD154681
:102F3000FBE700BF08B5FDF7A5FAFDF7B3FA00F00F
:102F400003F8FAE7704700BF38B52C4C237803B17B
:102F500038BD01232370FFF74DFE002842D100F059
:102F60007BF800283BD100F00DF9002834D100F0A7
:102F70009FF970BB00F018FA40BB00F091FA10BB4B
:102F800000F00AFBE0B900232370EFF30583002B68
:102F9000DED1EFF3108172B6194B186828B3194CC3
:102FA000227812BB45691D60012323700DB3AA610D
:102FB00001B962B600254577836898472570C7E751
:102FC00000F0A8FCDFE700F0A3FCD9E700F09EFCCE
:102FD000D3E700F099FCCDE700F094FCC7E700F0E0
:102FE0008FFCC0E7FFF7AEFFB9E70029B0D162B6AA
:102FF00038BD054B1D600029DCD1DAE7C115FF1F84
:10300000D418FF1FD818FF1FD018FF1FF0B44D1E93
:103010002E46002400E00134B0FBF2F302FB130063
:10302000092800F130078ABF3730F8B2C0B206F87D
:10303000010F1846002BEED10A1953704CB11078CD
:1030400015F8016F28700133E01A834202F8016914
:10305000F5DB0846F0BC7047054A064B10781B7834
:10306000C0B2DBB2984238BF4030C01A704700BFD0
:10307000C815FF1FC915FF1FF0B4384B1A7912F09D
:10308000300F2CD072B6997D01F0FF0200293DD09F
:1030900062B6334F334938780D78334E1C46C0B290
:1030A000EDB2431C402BE17928BF0023AB4202F173
:1030B000FF32C9B21CBFF154184612F0FF02F0D122
:1030C0002A4B1B68C2B23A704BB1A84236BFC5F159
:1030D0004005401B40192728C4BF01221A701F4910
:1030E000CA78D2B2150616D452060DD51B4B1B79E1
:1030F0005B0609D51E4B1F491B6800220A7003B1ED
:103100001A70164B3C22DA70F0BC70474022D97915
:103110005A7462B6E3E70B791C06E5D5164B174ED9
:103120001C783378E4B2DBB29C420ED0144D01E03F
:10313000A3420AD00133402B28BF00230879E85C62
:10314000C0B2C871087D0728F2D9DBB203493370D9
:103150000B79180644BF7C23CB70C5E700A006405E
:10316000C815FF1FC915FF1F0C16FF1FC415FF1F31
:103170005016FF1F4C16FF1F5416FF1F4D16FF1F42
:10318000CC15FF1F054A064B10781B78C0B2DBB286
:10319000984238BF4030C01A704700BFC816FF1FA2
:1031A0005D16FF1FF0B4384B1A7912F0300F2CD097
:1031B00072B6997D01F0FF0200293DD062B6334F0F
:1031C000334938780D78334E1C46C0B2EDB2431CFB
:1031D000402BE17928BF0023AB4202F1FF32C9B294
:1031E0001CBFF154184612F0FF02F0D12A4B1B68A5
:1031F000C2B23A704BB1A84236BFC5F14005401B80
:1032000040192728C4BF01221A701F49CA78D2B2B8
:10321000150616D452060DD51B4B1B795B0609D536
:103220001E4B1F491B6800220A7003B11A70164B0F
:103230003C22DA70F0BC70474022D9795A7462B6E9
:10324000E3E70B791C06E5D5164B174E1C7833784F
:10325000E4B2DBB29C420ED0144D01E0A3420AD08E
:103260000133282B28BF00230879E85CC0B2C8715D
:10327000087D0728F2D9DBB2034933700B791806B1
:1032800044BF7C23CB70C5E700B00640C816FF1FC3
:103290005D16FF1F8816FF1F5816FF1FCC16FF1F55
:1032A0005C16FF1FD016FF1FC916FF1F6016FF1FF9
:1032B000054A064B10781B78C0B2DBB2984238BF83
:1032C0004030C01A704700BFD816FF1FD916FF1F25
:1032D00030B42B4B1A7994061FD52A48DA79037833
:1032E000294901333F2B0978C8BF00238B42D2B252
:1032F00003D0264CD9B2E2540170254A116861B15D
:10330000244A1278D2B2934236BFC2F140029B1ACD
:103310009B18272BC4BF01230B70194AD378DBB24B
:10332000180611D45A060DD5154B1B795B0609D525
:10333000194B1A491B6800220A7003B11A70104B0E
:103340002C22DA7030BC704711790906EAD514498D
:1033500010480C780178C9B28C420DD04A1C272A3B
:1033600084BF00210A460F4D054C98BFD1B2AA5C1C
:10337000D2B2E2710170D5E76C21D170D2E700BF03
:1033800000C00640D816FF1FD916FF1F0417FF1FE5
:10339000D416FF1F4517FF1F4817FF1F4417FF1FB5
:1033A0004C17FF1FDC16FF1F054A064B10781B78D1
:1033B000C0B2DBB2984238BF4030C01A704700BF7D
:1033C0005417FF1F5517FF1F30B42B4B1A79940663
:1033D0001FD52A48DA790378294901333F2B097828
:1033E000C8BF00238B42D2B203D0264CD9B2E254DC
:1033F0000170254A116861B1244A1278D2B2934211
:1034000036BFC2F140029B1A9B18272BC4BF012371
:103410000B70194AD378DBB2180611D45A060DD5B1
:10342000154B1B795B0609D5194B1A491B680022FD
:103430000A7003B11A70104B2C22DA7030BC70473E
:1034400011790906EAD5144910480C780178C9B2F7
:103450008C420DD04A1C272A84BF00210A460F4DFA
:10346000054C98BFD1B2AA5CD2B2E2710170D5E727
:103470006C21D170D2E700BF00D006405417FF1F67
:103480005517FF1F8017FF1F5017FF1FC117FF1F82
:10349000C417FF1FC017FF1FC817FF1F5817FF1FB4
:1034A000054A064B10781B78C0B2DBB2984238BF91
:1034B0004030C01A704700BFD017FF1FD117FF1F41
:1034C00030B42B4B1A7994061FD52A48DA79037841
:1034D000294901333F2B0978C8BF00238B42D2B260
:1034E00003D0264CD9B2E2540170254A116861B16B
:1034F000244A1278D2B2934236BFC2F140029B1ADC
:103500009B18272BC4BF01230B70194AD378DBB259
:10351000180611D45A060DD5154B1B795B0609D533
:10352000194B1A491B6800220A7003B11A70104B1C
:103530002C22DA7030BC704711790906EAD514499B
:1035400010480C780178C9B28C420DD04A1C272A49
:1035500084BF00210A460F4D054C98BFD1B2AA5C2A
:10356000D2B2E2710170D5E76C21D170D2E700BF11
:1035700000A00E40D017FF1FD117FF1FFC17FF1F21
:10358000CC17FF1F3D18FF1F4018FF1F3C18FF1FDF
:103590004418FF1FD417FF1F054A064B10781B78ED
:1035A000C0B2DBB2984238BF4030C01A704700BF8B
:1035B0004C18FF1F4D18FF1F30B42B4B1A7994067F
:1035C0001FD52A48DA790378294901333F2B097836
:1035D000C8BF00238B42D2B203D0264CD9B2E254EA
:1035E0000170254A116861B1244A1278D2B293421F
:1035F00036BFC2F140029B1A9B18272BC4BF012380
:103600000B70194AD378DBB2180611D45A060DD5BF
:10361000154B1B795B0609D5194B1A491B6800220B
:103620000A7003B11A70104B2C22DA7030BC70474C
:1036300011790906EAD5144910480C780178C9B205
:103640008C420DD04A1C272A84BF00210A460F4D08
:10365000054C98BFD1B2AA5CD2B2E2710170D5E735
:103660006C21D170D2E700BF00B00E404C18FF1F94
:103670004D18FF1F7818FF1F4818FF1FB918FF1FAC
:10368000BC18FF1FB818FF1FC018FF1F5018FF1FDE
:1036900072B6184A184B19491160702280211A70AD
:1036A0001A46197013781B06FCD510B5144B84B05C
:1036B000186862B6134B144C984298BF00EB800018
:1036C00001A998BF40000A22FFF7A0FC01A92046EB
:1036D000002311F8012B01333AB10A2B20F8022FF5
:1036E000F7D11623237004B010BD5B00DBB223704A
:1036F00004B010BD04000240000002400000074179
:103700000C0002407F969800940BFF1F10B4EFF35B
:10371000108272B6437F33B9017F012908D0032993
:1037200010D00123437702B962B65DF8044B7047AD
:10373000114C2168A1B1114943610B688361086094
:103740005861EEE70E4C216881B10E4943610B6868
:103750008361086058610C4B4FF080511960E0E7BD
:10376000064B4161816120601860DAE7054B4161D9
:10377000816120601860EEE7D418FF1FD018FF1F8A
:10378000C418FF1FC818FF1F04ED00E010B4047F29
:103790004160022CC26003D05DF8044BFFF7B6BF56
:1037A00083685DF8044B184770B5EFF3108272B66A
:1037B0000C4C206880B10C4E00254369236073B126
:1037C0009D6102B962B6457783689847EFF310822E
:1037D00072B620680028F0D102B962B670BD3360BD
:1037E000EFE700BFC418FF1FC818FF1FFFF7DCBFBB
:1037F000184A30B41468002C27D0036821688B4223
:103800000ED2CB1A00218460C1602360E06010609A
:103810000223037530BC704711688B42144608D3ED
:10382000A2685B1A0360002AF6D18260C460A060BF
:10383000EEE7D268C2608460E060C568CB1A0222FD
:10384000A8602360027530BC70478460C46010605B
:10385000DEE700BFCC18FF1FF8B5224E34682CB34A
:103860002368002B3AD1204F1D4604E03468ECB1A8
:103870002368002B32D1A36803B1DD602069336077
:10388000036825751B68BB4221D1037F4560022B6D
:10389000C46020D0FFF73AFF6368002BE6D02360B6
:1038A0002046FFF7A5FF3468002CE1D1EFF3108329
:1038B00072B60E4A00211068116003B962B628B1D1
:1038C0008468FFF795FF20460028F9D1F8BD22460D
:1038D00000219847E0E783689847DDE7013B2360D4
:1038E000E4E700BFCC18FF1F8D370000DC18FF1F76
:1038F000024A136801331360FFF7AEBF5414FF1F71
:10390000704700BF704700BF704700BF704700BFDF
:10391000704700BF704700BF0B460146184600F0D5
:1039200039B800BF024B0A460146186800F002B8D9
:10393000D80FFF1F10B502FB01F100F067F8044635
:10394000D8B150F8042C22F00302043A242A18D8E3
:10395000132A14D900231B2A0360436016D9242A92
:103960008360C36011BF00F110020361436100F185
:1039700018020023136053609360204610BD024676
:10398000F7E7002100F0FAFA204610BD00F1080226
:10399000EFE700BF13460A460146022000F052BB83
:1039A000014B1868704700BFD80FFF1F70B50F4E4E
:1039B0000F4D761BB61018BF002405D0013455F802
:1039C000043B9847A642F9D10A4E0B4D761B01F0F5
:1039D0004DF9B61018BF002406D0013455F8043B49
:1039E0009847A642F9D170BD70BD00BF784C000069
:1039F000784C0000844C0000784C0000024B0146DB
:103A0000186800F003B800BFD80FFF1F2DE9F04F72
:103A100001F10B05162D83B0064640F29F8035F06C
:103A2000070500F1BF80A94200F2BC8000F0F4FA63
:103A3000B5F5FC7FC0F09C826B0A00F0BA80042BC5
:103A400000F28381A80900F1390E4FEA4E033830A5
:103A5000C44F07EB8303A3F108015C68A14207D1BF
:103A6000ACE0002A80F2AC80E468A14200F0A680BD
:103A7000636823F003035A1B0F2AF2DDB9493C693E
:103A800001F1080E744500F0B381636823F003036D
:103A90005A1B0F2A00F39981002AC1F814E0C1F8DB
:103AA00010E080F29E80B3F5007F80F06781DB0834
:103AB00003F1010C01229B1002FA03F34A6851F84A
:103AC0003C80C4F8088001EBCC091A43A9F1080333
:103AD000E3604A6041F83C40C8F80C408310012480
:103AE0009C40944200F28A80144206D120F00300E8
:103AF0006400144200F10400FAD007EBC009CC4680
:103B00008046DCF80C108C4507D173E1002A80F266
:103B10008181C9688C4500F06D814B6823F00303F7
:103B20005A1B0F2AF2DD0C46D1F80CC054F8088F4E
:103B30004B1945F001054D6042F00101C8F80CC079
:103B40003046CCF808807B613B61C3F80CE0C3F8D9
:103B500008E059609A5000F061FA1FE0102921D85E
:103B600000F05AFA1025062302207E4F07EB83034C
:103B7000A3F108025C68944200F045816368E16843
:103B8000A56823F00303234430465A68E96042F0F5
:103B900001028D605A6000F041FA0834204603B0FB
:103BA000BDE8F08F00240C232046336003B0BDE84D
:103BB000F08F80234FF0400E3F2049E770465DE7CD
:103BC0002344E1685A68A56842F00102E960304682
:103BD0008D605A6000F022FA0834204603B0BDE838
:103BE000F08F234430465A6842F001025A6000F0D8
:103BF00015FA0834204603B0BDE8F08FBC6863684E
:103C000023F00308A84504D3C5EB08030F2B00F3EA
:103C10008C80554BDFF860911A68D9F80030013379
:103C20002A4404EB080A00F0608102F580520F324A
:103C300022F47F6222F00F0211463046019200F01A
:103C4000EFF9B0F1FF3F8346019A00F058818245B9
:103C500000F2FC80454B1968DA451144196000F008
:103C60005381D9F80000DFF810E101301BBFCAEB27
:103C70000B0A5144CEF800B019601BF0070100F0A8
:103C80001781C1F10800C1F58051834408315A44BD
:103C9000C2F30B02C2EB010949463046019300F022
:103CA000BFF9431C019B00F03F81CBEB00024A446B
:103CB00042F001021968C7F808B04944BC42CBF889
:103CC00004201960DFF8A49016D0B8F10F0F40F26D
:103CD000FD806268A8F10C0323F00703E01802F0EE
:103CE00001024FF0050E1A430F2B6260C0F804E08A
:103CF000C0F808E000F21C811D4BBC681A689142B4
:103D000088BF19601B4B1A689142626888BF1960AE
:103D100022F003029542A2EB050301D80F2B04DC2D
:103D2000304600F07BF9002438E7621943F00103C4
:103D300045F0010565603046BA60536000F06EF9E9
:103D40000834204603B0BDE8F08F142B71D9542BF2
:103D500000F2A480280B00F16F0E4FEA4E036E3084
:103D600076E600BFDC0FFF1FE818FF1FEC18FF1FEF
:103D7000E418FF1FE018FF1FE813FF1F5A0A042A68
:103D80005ED9142A00F2B38002F15C0149005B3273
:103D900007EB810C57F82110DFF8DC81ACF1080C3F
:103DA0008C4500F088804A6822F00302934202D2D8
:103DB00089688C45F7D1D1F80CC07A68C4F80CC07A
:103DC000A160CCF80840CC6088E6631942F0010796
:103DD00045F00105656030464B610B61C3F80CE0AE
:103DE000C3F808E05F609A50083400F017F9D5E690
:103DF0004A6873E608F1010818F0030F0CF1080C8B
:103E00007FF47FAE30E0DC68A34208BF02303FF4AD
:103E100035AEB3E60B440C465A68C96854F8085FDF
:103E200042F001025A603046E9608D6000F0F6F819
:103E3000B4E603F15C0E03F15B004FEA4E0307E6C4
:103E40009A0902F1390149003832A1E7BC424A4BD4
:103E50003FF400AF9C68626822F003025AE759F809
:103E60000839994540F0828010F0030F00F1FF30CF
:103E7000F5D17B6823EA04037B6064009C423FF633
:103E8000BDAE002C3FF4BAAE1C4240467FF435AEC6
:103E900064001C4200F10400FAD02EE6B3F5AA7FBC
:103EA00018D8E80B00F1780E4FEA4E037730CFE5D3
:103EB0004FF48051EBE60121D8F80430921001FA5A
:103EC00002F21A43C8F80420614677E70123CBF8D1
:103ED000043025E740F25452934220D8A80C00F158
:103EE0007D0E4FEA4E037C30B2E51032A4E6542A30
:103EF00026D81A0B02F16F0149006E3248E7BC6800
:103F0000626822F0030205E7CAF30B0000287FF481
:103F1000A8AE4244BB6842F001025A60ECE6FE23C0
:103F20004FF07F0E7E2093E501224FF00009C1E69D
:103F300004F10801304600F049F9D9F80010DBE639
:103F4000B2F5AA7F05D8DA0B02F178014900773281
:103F50001EE740F254518A4205D89A0C02F17D01C5
:103F600049007C3214E7FE217E2211E77B6884E75A
:103F7000E808431C5B00F8E5DC0FFF1F70B4840702
:103F800046D0541E002A41D0CDB2034602E0621E44
:103F9000E4B3144603F8015B9A07F8D1032C2ED939
:103FA000CDB245EA05250F2C45EA054519D903F19F
:103FB00010022646103E0F2E42F8105C42F80C5CB0
:103FC00042F8085C42F8045C02F11002F2D8A4F155
:103FD000100222F00F0204F00F041032032C1344DD
:103FE0000DD91E462246043A032A46F8045BFAD845
:103FF000221F22F003020432134404F003042CB104
:10400000C9B21C4403F8011BA342FBD170BC70472A
:1040100014460346C2E700BF704700BF704700BFA9
:1040200038B5074C0023054608462360FDF7E4FE3B
:10403000431C00D038BD2368002BFBD02B6038BD5B
:104040002019FF1F2DE9F047254C2568D5F8484178
:104050000646884692469946C4B360681F2817DC16
:10406000431C76B104EB80050122C5F888A0D4F882
:10407000881182401143022EC4F88811C5F80891B6
:104080001ED00230636044F820800020BDE8F08735
:10409000144B03B34FF4C870FFF7B0FC0446D0B123
:1040A000D5F84831002780E88800C5F848413846EF
:1040B0000123C4F88871C4F88C71002EE1D0D1E7D7
:1040C000D4F88C110A43C4F88C21DAE705F5A674FC
:1040D000C5F84841C1E74FF0FF30BDE8F08700BFA9
:1040E000684C0000FD390000024B13B1024800F09B
:1040F00005B8704700000000094100000023014698
:104100001A461846FFF79EBF38B5074D074C2C1BC3
:10411000A41005D0013C55F8043D9847002CF9D176
:10412000BDE8384000F0AEBD000000000000000017
:10413000F8B5234F0C460646FFF76EFFBB685D6877
:1041400025F00305291B01F6EF7121F47F6121F0B1
:104150000F01A1F58054B4F5805F07DB00213046E4
:10416000FFF75EFFBB682B44984204D03046FFF750
:1041700055FF0020F8BD61423046FFF751FF013086
:104180000DD0104BBA6819682D1B45F0010530465B
:10419000091B55601960FFF741FF0120F8BD0021A0
:1041A0003046FFF73DFFBA68831A0F2BDEDD064C61
:1041B0000449246843F00103001B53600860D5E7FD
:1041C000DC0FFF1FEC18FF1FE813FF1F002945D06D
:1041D0002DE9F0410D468046FFF71EFF55F8047C9F
:1041E0006A4927F00103A5F10804E2188E685068B7
:1041F000B24220F0030062D0FE0750600BD455F8A5
:10420000087CE41B01F1080EA56875453B446FD09E
:10421000E768EF60BD6015186D68ED0742D543F0A3
:1042200001026260E350B3F5007F18D2DB085A1C2C
:104230004D6851F83270A76001209B1000FA03F31B
:1042400001EBC2001D430838E0604D6041F8324088
:10425000FC604046BDE8F041FFF7E0BE70475A0AF7
:10426000042A53D89A0902F139077F0002F1380570
:1042700001EB870051F827204449083890424DD07F
:10428000516821F003018B4202D292689042F7D12B
:10429000D068E060A2608460D4604046BDE8F04130
:1042A000FFF7BCBE95683A4FBD4203443FD0D0688B
:1042B000E86043F0010285606260E350B3E7FF0706
:1042C000034407D455F8082CA41A1344A068E268E4
:1042D000C26090602F4A126843F001009342606010
:1042E0008C60B6D32C4B40461968FFF721FFB0E72E
:1042F00011184968C90744D49168D268CA60034458
:1043000043F0010091606060E350A2E7142A17D8DF
:1043100002F15C077F0002F15B05A9E7AA104B6878
:10432000012505FA02F213434B600246B1E743F060
:1043300001024C610C61E560A5606260E35088E7B2
:10434000542A06D81A0B02F16F077F0002F16E059E
:104350008EE7B2F5AA7F06D8DA0B02F178077F0064
:1043600002F1770584E740F25450824206D89A0C55
:1043700002F17D077F0002F17C0579E7FE277E25AB
:1043800076E743F001026260E35062E7DC0FFF1F53
:10439000E40FFF1FE413FF1FE818FF1F00000000D9
:1043A00000000000FD0E00000D2F0000BD07000002
:1043B000C1070000251E0000F9080000A908000040
:1043C000E1080000B9080000CD080000C5070000A2
:1043D000F9080000210900001D090000450900003E
:1043E0009D090000F1090000FD080000550A0000C9
:1043F000F50A000000000000003E5B4F5B3E3E6B94
:104400004F6B3E1C3E7C3E1C183C7E3C181C577D6E
:10441000571C1C5E7F5E1C00183C1800FFE7C3E7BA
:10442000FF0018241800FFE7DBE7FF30483A060ECC
:104430002629792926407F050507407F05253F5A13
:104440003CE73C5A7F3E1C1C08081C1C3E7F142283
:104450007F22145F5F005F5F06097F017F0066892E
:10446000956A606060606094A2FFA29408047E0474
:104470000810207E201008082A1C08081C2A08089A
:104480001E101010100C1E0C1E0C30383E3830065A
:104490000E3E0E06000000000000005F0000000756
:1044A000000700147F147F14242A7F2A1223130884
:1044B000646236495620500008070300001C224160
:1044C000000041221C002A1C7F1C2A08083E080804
:1044D00000807030000808080808000060600020B4
:1044E000100804023E5149453E00427F4000724997
:1044F0004949462141494D331814127F102745453B
:1045000045393C4A49493141211109073649494950
:1045100036464949291E00001400000040340000BE
:104520000008142241141414141400412214080227
:10453000015909063E415D594E7C1211127C7F499A
:104540004949363E414141227F4141413E7F4949EF
:1045500049417F090909013E414151737F0808081B
:104560007F00417F41002040413F017F08142241EC
:104570007F404040407F021C027F7F0408107F3E46
:104580004141413E7F090909063E4151215E7F09B3
:10459000192946264949493203017F01033F40401A
:1045A000403F1F2040201F3F4038403F6314081405
:1045B0006303047804036159494D43007F4141413D
:1045C0000204081020004141417F0402010204401E
:1045D00040404040000307080020545478407F28A2
:1045E0004444383844444428384444287F38545498
:1045F000541800087E090218A4A49C787F080404BB
:104600007800447D40002040403D007F1028440059
:1046100000417F40007C047804787C0804047838EA
:1046200044444438FC1824241818242418FC7C081A
:10463000040408485454542404043F44243C404097
:10464000207C1C2040201C3C4030403C442810284A
:10465000444C9090907C4464544C44000836410093
:104660000000770000004136080002010204023C0D
:104670002623263C1EA1A161123A4040207A3854DC
:104680005455592155557941225454784221555455
:10469000784020545579400C1E52721239555555A8
:1046A00059395454545939555454580000457C4193
:1046B0000002457D420001457C407D1211127DF0D3
:1046C000282528F07C545545002054547C547C0AFD
:1046D000097F4932494949323A4444443A324A48C6
:1046E00048303A4141217A3A42402078009DA0A0CA
:1046F0007D3D4242423D3D4040403D3C24FF24241C
:10470000487E4943662B2FFC2F2BFF0929F620C03A
:10471000887E090320545479410000447D4130488B
:10472000484A32384040227A007A0A0A727D0D19CE
:10473000317D2629292F28262929292630484D4030
:1047400020380808080808080808382F10C8ACBA2C
:104750002F102834FA00007B000008142A142222AB
:10476000142A14085500550055AA55AA55AAFF55F4
:10477000FF55FF000000FF00101010FF001414147C
:10478000FF001010FF00FF1010F010F0141414FCC4
:10479000001414F700FF0000FF00FF1414F404FCE1
:1047A000141417101F10101F101F1414141F0010C2
:1047B0001010F0000000001F101010101F1010103B
:1047C00010F010000000FF1010101010101010104A
:1047D000FF10000000FF140000FF00FF00001F108A
:1047E000170000FC04F414141710171414F404F444
:1047F0000000FF00F714141414141414F700F71435
:104800001414171410101F101F141414F414101083
:10481000F010F000001F101F0000001F1400000027
:10482000FC140000F010F01010FF10FF141414FF1F
:10483000141010101F00000000F010FFFFFFFFFF1A
:10484000F0F0F0F0F0FFFFFF0000000000FFFF0FAE
:104850000F0F0F0F3844443844FC4A4A4A347E0252
:10486000020606027E027E026355494163384444D3
:104870003C04407E201E2006027E020299A5E7A588
:10488000991C2A492A1C4C7201724C304A4D4D30F9
:104890003048784830BC625A463D3E494949007E1E
:1048A0000101017E2A2A2A2A2A44445F44444051B5
:1048B0004A444040444A51400000FF0103E080FF69
:1048C000000008086B6B083612362436060F090FF5
:1048D00006000018180000001010003040FF010111
:1048E000001F01011E00191D1712003C3C3C3C003A
:1048F000000000000000000000000000FD0E0000AD
:104900000D2F0000BD070000C10700008115000049
:10491000F9080000A9080000E1080000B90800003B
:10492000CD080000C5070000F908000021090000BB
:104930001D090000450900009D090000F109000063
:10494000411A0000550A0000F50A0000050E08098A
:104950000D0C06070F0403938E8F050E08090D0C2E
:1049600006070F04FFFFFFFFFFFFFF8E8F1112846A
:1049700085868791FFFFFFFFFFFFFFFFFF8A8BFF09
:10498000FFFFFFFFFFFFFFFFFFFFFFFF03931797EF
:1049900001811A924008FE4340A004404408FE43AF
:1049A00044A004400018FE4300C004403000FE4311
:1049B000309004403400FE43349004401C18FE4301
:1049C0001CC004401018FE4310C004400818FE43E9
:1049D00008C004400C18FE430CC004400C10FE43F9
:1049E0000CB004401010FE4310B004401810FE43F9
:1049F00018B004401C10FE431CB004401410FE43C9
:104A000014B004400418FE4304C004400010FE43E8
:104A100000B004400008FE4300A004400408FE4328
:104A200004A004400C08FE430CA004400808FE4308
:104A300008A004401418FE4314C004401818FE4394
:104A400018C004400410FE4304B004400810FE43A4
:104A500008B004406820FE4368D004401400FE43C0
:104A6000149004403800FE43389004403C00FE435C
:104A70003C9004404000FE43409004404808FE4300
:104A800048A004404C08FE434CA004402808FE43C4
:104A900028A004402C08FE432CA004406020FE43C4
:104AA00060D004406420FE4364D004402010FE43E4
:104AB00020B004402410FE4324B004402810FE43DC
:104AC00028B004402C10FE432CB004404400FE43A8
:104AD000449004407000FE43709004407400FE4314
:104AE000749004406800FE43689004405008FE4300
:104AF00050A004405808FE4358A004405C08FE4300
:104B00005CA004405408FE4354A004402018FE4317
:104B100020C004402418FE4324C004401008FE4373
:104B200010A004401408FE4314A004403818FE43AB
:104B300038C004403418FE4334C004403018FE43EB
:104B400030C004403C18FE433CC004402C18FE43D7
:104B50002CC004402820FE4328D004402C20FE43D3
:104B60002CD004400020FE4300D004400420FE432B
:104B700004D004400820FE4308D004400C20FE432B
:104B80000CD004401020FE4310D004401420FE43FB
:104B900014D00440151915151515FFFF000100006C
:104BA000100AFF1F12000000000200003C0AFF1F55
:104BB0008D00000000220200CC0AFF1F210000002F
:104BC00000210200800AFF1F0900000000220000EF
:104BD000500BFF1F3F000000002100004E0AFF1F86
:104BE0000900000000220100BC09FF1F5400000062
:104BF00000210100670AFF1F0900000000220300D6
:104C0000F00AFF1F2800000000210300A00AFF1F78
:104C100009000000002204005809FF1F6300000083
:104C200000210400B90AFF1F090000000003000072
:104C3000900BFF1F0000000001030904240AFF1F5E
:104C40000000000002030904180BFF1F0000000011
:104C500003030904940BFF1F000000000000000084
:104C60000000000000000000B00BFF1FF8B500BFFF
:104C7000F8BC08BC9E467047E940000035040000BF
:044C80009507000094
:044C8400F8B500BFC0
:104C880000000000010A04002419FF1FFFFFFFFFB6
:104C9800E12D0000E12D0000E12D0000E12D0000D4
:104CA800050D0904A1010922A102094215002501E7
:104CB8007501950181020930257F750795018102EB
:104CC800095126FF0075089501810205010930097F
:104CD8003126FF7F6500751095028102C0050D27FA
:104CE800FFFF000075109501095681020954250A35
:104CF800750895018102050D0955250A7508950164
:104D0800B102C00005010902A101850105091901C7
:104D1800290815002501950875018102050109304A
:104D2800093109381581257F750895038106050C19
:104D38000A38021581257F750895018106C005018D
:104D48000902A1018502050109300931150026FF74
:104D58007F751095028102C0120101010000004018
:104D6800C016D40400020102030100001803540015
:104D7800650065006E0073007900640075006900C5
:104D88006E006F0009028D00050100C032090400A1
:104D9800000103010100092111010001223F000760
:104DA800058303080001090401000103000000094C
:104DB8002111010001225400070586030800020999
:104DC8000402000203000000092111010001222150
:104DD80000070581034000010705020320000209BE
:104DE8000403000103000000092111010001222829
:104DF80000070584030800040904040001030000F7
:104E0800000921110100012263000705850309003B
:104E18000100000006C9FF0904A15C7508150026F9
:104E2800FF00954009758102952009769102950445
:104E38000976B102C0000000050C0901A101750A3C
:104E4800950419002A9C021500269C028100050180
:104E580075089503190029B7150026B7008100C009
:104E680036034B006500790062006F006100720034
:104E780064002F004D006F007500730065002F005F
:104E880054006F00750063006800730063007200CF
:104E9800650065006E00000005010906A1017501A5
:104EA8009508050719E029E71500250181029501F4
:104EB80075088103950575010508190129059102F1
:104EC800950175039103950675081500257F05075B
:104ED8001900297F8100C000040309040C030000A5
:104EE80000000000000000000000000000000000BA
:104EF8000000000000000000000000009C0EFF1FE2
:104F0800040FFF1F6C0FFF1F0000000000000000CF
:104F18000000000000000000000000000000000089
:104F28000000000000000000000000000000000079
:104F38000000000000000000000000000000000069
:104F48000000000000000000000000000000000059
:104F58000000000000000000000000000000000049
:104F68000000000000000000000000000000000039
:104F78000000000000000000000000000000000029
:104F88000000000000000000000000000000000019
:104F98000000000000000000000000000000000009
:104FA80001000000000000000E33CDAB34126DE6A6
:104FB800ECDE05000B00000000000000000000000F
:104FC80000000000000000000000000000000000D9
:104FD80000000000000000000000000000000000C9
:104FE80000000000000000000000000000000000B9
:104FF80000000000000000000000000000000000A9
:10532800B00BFF1F0000000000000000DC0FFF1F93
:10533800DC0FFF1FE40FFF1FE40FFF1FEC0FFF1F21
:10534800EC0FFF1FF40FFF1FF40FFF1FFC0FFF1FD1
:10535800FC0FFF1F0410FF1F0410FF1F0C10FF1F7E
:105368000C10FF1F1410FF1F1410FF1F1C10FF1F2D
:105378001C10FF1F2410FF1F2410FF1F2C10FF1FDD
:105388002C10FF1F3410FF1F3410FF1F3C10FF1F8D
:105398003C10FF1F4410FF1F4410FF1F4C10FF1F3D
:1053A8004C10FF1F5410FF1F5410FF1F5C10FF1FED
:1053B8005C10FF1F6410FF1F6410FF1F6C10FF1F9D
:1053C8006C10FF1F7410FF1F7410FF1F7C10FF1F4D
:1053D8007C10FF1F8410FF1F8410FF1F8C10FF1FFD
:1053E8008C10FF1F9410FF1F9410FF1F9C10FF1FAD
:1053F8009C10FF1FA410FF1FA410FF1FAC10FF1F5D
:10540800AC10FF1FB410FF1FB410FF1FBC10FF1F0C
:10541800BC10FF1FC410FF1FC410FF1FCC10FF1FBC
:10542800CC10FF1FD410FF1FD410FF1FDC10FF1F6C
:10543800DC10FF1FE410FF1FE410FF1FEC10FF1F1C
:10544800EC10FF1FF410FF1FF410FF1FFC10FF1FCC
:10545800FC10FF1F0411FF1F0411FF1F0C11FF1F79
:105468000C11FF1F1411FF1F1411FF1F1C11FF1F28
:105478001C11FF1F2411FF1F2411FF1F2C11FF1FD8
:105488002C11FF1F3411FF1F3411FF1F3C11FF1F88
:105498003C11FF1F4411FF1F4411FF1F4C11FF1F38
:1054A8004C11FF1F5411FF1F5411FF1F5C11FF1FE8
:1054B8005C11FF1F6411FF1F6411FF1F6C11FF1F98
:1054C8006C11FF1F7411FF1F7411FF1F7C11FF1F48
:1054D8007C11FF1F8411FF1F8411FF1F8C11FF1FF8
:1054E8008C11FF1F9411FF1F9411FF1F9C11FF1FA8
:1054F8009C11FF1FA411FF1FA411FF1FAC11FF1F58
:10550800AC11FF1FB411FF1FB411FF1FBC11FF1F07
:10551800BC11FF1FC411FF1FC411FF1FCC11FF1FB7
:10552800CC11FF1FD411FF1FD411FF1FDC11FF1F67
:10553800DC11FF1FE411FF1FE411FF1FEC11FF1F17
:10554800EC11FF1FF411FF1FF411FF1FFC11FF1FC7
:10555800FC11FF1F0412FF1F0412FF1F0C12FF1F74
:105568000C12FF1F1412FF1F1412FF1F1C12FF1F23
:105578001C12FF1F2412FF1F2412FF1F2C12FF1FD3
:105588002C12FF1F3412FF1F3412FF1F3C12FF1F83
:105598003C12FF1F4412FF1F4412FF1F4C12FF1F33
:1055A8004C12FF1F5412FF1F5412FF1F5C12FF1FE3
:1055B8005C12FF1F6412FF1F6412FF1F6C12FF1F93
:1055C8006C12FF1F7412FF1F7412FF1F7C12FF1F43
:1055D8007C12FF1F8412FF1F8412FF1F8C12FF1FF3
:1055E8008C12FF1F9412FF1F9412FF1F9C12FF1FA3
:1055F8009C12FF1FA412FF1FA412FF1FAC12FF1F53
:10560800AC12FF1FB412FF1FB412FF1FBC12FF1F02
:10561800BC12FF1FC412FF1FC412FF1FCC12FF1FB2
:10562800CC12FF1FD412FF1FD412FF1FDC12FF1F62
:10563800DC12FF1FE412FF1FE412FF1FEC12FF1F12
:10564800EC12FF1FF412FF1FF412FF1FFC12FF1FC2
:10565800FC12FF1F0413FF1F0413FF1F0C13FF1F6F
:105668000C13FF1F1413FF1F1413FF1F1C13FF1F1E
:105678001C13FF1F2413FF1F2413FF1F2C13FF1FCE
:105688002C13FF1F3413FF1F3413FF1F3C13FF1F7E
:105698003C13FF1F4413FF1F4413FF1F4C13FF1F2E
:1056A8004C13FF1F5413FF1F5413FF1F5C13FF1FDE
:1056B8005C13FF1F6413FF1F6413FF1F6C13FF1F8E
:1056C8006C13FF1F7413FF1F7413FF1F7C13FF1F3E
:1056D8007C13FF1F8413FF1F8413FF1F8C13FF1FEE
:1056E8008C13FF1F9413FF1F9413FF1F9C13FF1F9E
:1056F8009C13FF1FA413FF1FA413FF1FAC13FF1F4E
:10570800AC13FF1FB413FF1FB413FF1FBC13FF1FFD
:10571800BC13FF1FC413FF1FC413FF1FCC13FF1FAD
:10572800CC13FF1FD413FF1FD413FF1F0000020068
:04573800FFFFFFFF71
:00000001FF
