:100000000000022099010000B91E0000711E0000CE
:10001000711E0000711E0000711E0000711E0000A4
:10002000711E0000711E0000711E0000B91E00004C
:10003000B91E0000711E0000A13A0000A53B00009F
:10004000B91E0000B91E0000B91E0000B91E000054
:10005000B91E0000B91E0000B91E0000B91E000044
:10006000B91E0000B91E0000B91E0000B91E000034
:10007000B91E0000B91E0000B91E0000B91E000024
:10008000B91E0000B91E0000B91E0000B91E000014
:10009000B91E0000B91E0000B91E0000B91E000004
:1000A000B91E0000B91E0000B91E0000B91E0000F4
:1000B000B91E0000B91E0000B91E00002D3300005B
:1000C000B91E000059340000B91E0000853500003B
:1000D000B91E00007D360000B91E0000B91E0000E8
:1000E000B91E0000B91E0000B91E0000B91E0000B4
:1000F000B91E0000B91E0000B91E0000B91E0000A4
:1001000099300000AD300000C1300000D530000053
:10011000B91E00003D230000B91E0000B91E0000FA
:10012000B91E0000B91E0000B91E0000B91E000073
:10013000B91E0000B91E0000B91E0000B91E000063
:10014000B91E0000B91E000075370000B91E00007E
:100150006D380000B91E0000B91E0000B91E000075
:10016000B91E0000B91E0000B91E0000B91E000033
:10017000B91E0000B91E0000B91E0000B91E000023
:10018000B91E0000B91E0000B91E0000B91E000013
:10019000B91E0000B91E0000584B4CF2205210B599
:1001A0001A804DF628121A8000BF00BF01F088FEA9
:1001B000534B4FF030621A60524A9A60524ADA60EA
:1001C000524B4FF470021A60514A136813F4807353
:1001D00004D150490B604FF4A85313604E4B1A786A
:1001E000110703D51A7842F008021A704B4B4C499C
:1001F0002A221A704B4A4C4B8B4204D252F8040FFD
:1002000043F8040BF8E7494B494900228B4202D2DC
:1002100043F8042BFAE74749474A002352F82300E2
:1002200041F823000133662BF8D1444B444A802126
:1002300003F8011B9342FBD1424B3E4A1A60424BEA
:100240008A221A70A3F5805324225A70A0221A70B1
:100250009A799207FCD59A79D406FCD43B4A9379D3
:1002600003F00C03082B394BF9D103221A714622F3
:100270005A719A799006FCD5344A9179334B4906E4
:10028000FBD5334A4FF08271116009215160202261
:100290001A709A7902F00C020C2AFAD12D4B2E4AD0
:1002A0001A602E4B2E4A1A6000225A60072243F829
:1002B000042C2C4AC3F80C2D62B601F0F3FE154B4A
:1002C0001B68DA0705D5284801F056FE274B284A57
:1002D0001A60284B1B785B0609D5244C244B2268F6
:1002E0009A4204D1204801F047FE0023236003F026
:1002F000B7FC01F0EBFD02F063FFFEE70E200540C6
:1003000030800440823F04000100002B88ED00E0B3
:1003100010D0034014D0034002D0074000E0074053
:100320001C10FF1FE84E0000F806FF1F1C10FF1FE7
:10033000F814FF1F0002FF1F0000000000E400E0AF
:1003400056E400E008ED00E00050064000400640A2
:100350004480044004800440C010050014E000E024
:10036000BFD40100000020207A57A9591CE00340A7
:10037000A5C3945A00F00740FFFFFFFFFFFFFFFFF8
:10038000FFFFFFFFFFFFFFFFFFFFFFFFFFFFFFFF7D
:10039000FFFFFFFFFFFFFFFFFFFFFFFFFFFFFFFF6D
:1003A000FFFFFFFFFFFFFFFFFFFFFFFFFFFFFFFF5D
:1003B000FFFFFFFFFFFFFFFFFFFFFFFFFFFFFFFF4D
:1003C000FFFFFFFFFFFFFFFFFFFFFFFFFFFFFFFF3D
:1003D000FFFFFFFFFFFFFFFFFFFFFFFFFFFFFFFF2D
:1003E000FFFFFFFFFFFFFFFFFFFFFFFFFFFFFFFF1D
:1003F000FFFFFFFFFFFFFFFFFFFFFFFFFFFFFFFF0D
:10040000FFFFFFFFFFFFFFFFFFFFFFFFDEF9FFFF23
:1004100010B5054C237833B9044B13B10448AFF33E
:1004200000800123237010BD1C10FF1F000000007E
:10043000EC4E0000084B10B51BB108490848AFF35B
:1004400000800848036803B910BD074B002BFBD0A0
:10045000BDE81040184700BF000000002010FF1F3B
:10046000EC4E00001C10FF1F0000000010B5044BF4
:10047000044640F82C3B02F0EDFD204610BD00BFC5
:10048000B04B0000F8B502210C2001F095FD0221CF
:100490000B2001F091FD4848484F01F011FA01216D
:1004A000454800F01FFE0021434800F025FE0023D0
:1004B0001A460721404801F019FB01463E4800F06A
:1004C00017FE01F07FFD064601F07CFD801BB8425F
:1004D0004FF000054AD80724E3B219461A463648B9
:1004E00001F004FB0146344801F016FB013CF3D156
:1004F0002D2001F089FD2346224607212E4801F0D8
:10050000F5FA01462C4801F007FB2D2001F07CFD97
:10051000234607222146284801F0E8FA01462648EA
:1005200001F0FAFA2D2001F06FFD07232246214643
:10053000214801F0DBFA01461F4801F0EDFA2D20B9
:1005400001F062FD2346224621461B4801F0CEFA07
:100550000146194801F0E0FA2D2001F055FD01F0A7
:1005600031FD801BB84205F10705B4D901F02AFD21
:1005700000230A22811B124802F0DAFD104802F023
:10058000C7FD29460E4802F013FE0D4802F0C0FDDB
:100590000C490B4802F00CFE094802F0B9FD00239B
:1005A00019461A46044801F0A1FABDE8F840014690
:1005B000014801F0B1BA00BF4810FF1F3F420F00D1
:1005C0002C07FF1F000E27072DE9F04F0C2087B0E6
:1005D00001F0E4FC002840F0C880974B1A78002A0C
:1005E00000F026811870502001F00EFD04230B202E
:1005F000059301F0D3FC002800F0BF80142001F027
:10060000B9FB8E4D8E4B28601120039301F0B2FB95
:100610006860122001F0AEFBA860152001F0AAFB73
:10062000DFF814B2E8600426A6F10208771E33B2A0
:1006300055F8042B04930FFA88F83FB2002402E027
:100640000134082C51D0002A1346B8BFD31DDB104B
:100650002341D807F4D57B4B7B481B78C3F10702B5
:10066000D2B2002101F042FAC4F11E090FFA89FA50
:10067000034642465146744800F0EEFF55F8042CFC
:10068000002A1346B8BFD31DDB102341D907D7D5A5
:100690006C4B9BF800101B786B48072201F026FA80
:1006A0003A4603465146684800F0D6FF55F8042CF8
:1006B000002A1346B8BFD31DDB102341DB07BFD58B
:1006C0009BF800106048C1F10702D2B2002301F08C
:1006D0000DFA01340346049A5B480FFA89F100F0E1
:1006E000BBFF082C55F8042CADD1059B002B4FD136
:1006F000039B1B6893422AD0D31A07330E2B26D9AB
:10070000B2F5487F47DBDDF814804F484346424648
:10071000414601F0EBF9371F3FB201903A461F23E3
:1007200041464948009400F0BFF9022146483A4644
:1007300000F0D4FC55F8041C43480029B8BF073129
:10074000C91002F035FD039A55F8043C1360039B71
:100750000836B6B20433242E03937FF465AF3220FB
:1007600007B0BDE8F04F01F04FBC00230B2005930C
:1007700001F014FC00287FF441AF324B1A78002AB4
:1007800053D01870502001F03FFC0423059335E747
:10079000B2F5487F2ADA0023502A19461A462A4819
:1007A000B4BF0E27082701F0A1F9341F24B2082393
:1007B00001902246009300211F23234800F074F982
:1007C00022463946204800F089FC55F8041C1E4892
:1007D0000029B8BF0731C91002F0EAFC059B002BC5
:1007E000B1D0059B013BDBB20593ACE700231A4671
:1007F0001946154801F07AF9371F3FB201903A4681
:100800001F2300940021104800F04EF93A460221BF
:100810000D4800F063FC55F8041C0B480029B8BFD4
:100820000731C91002F0C4FCDBE707221A70A9E700
:1008300007221A70D7E600BF0C07FF1F3810FF1FF2
:10084000FC06FF1F0D07FF1F4810FF1F10B5064CC9
:1008500020222046002101F019F82046034A0449CD
:10086000BDE8104003F0B2B94810FF1FF806FF1FA3
:100870006D04000000207047704700BF2DE9F04F65
:1008800085B09946BDF93870BDF83CA0BB1AC1EBE4
:10089000090B002BB8BF5B42BBF1000FB8BFCBF117
:1008A000000B5B450D4616460093804648DC4D45DF
:1008B0003A4633464CDC194613460A46C5EB090155
:1008C0009B1A89B2002B0CB2B8BF5B4204EBD47404
:1008D000BE42ACBF4FF0FF3201224D450391029260
:1008E0004FEA640429DC9BB201930DE0D8F8007054
:1008F000BF69B847019BE41AA3B21CB20135002CB2
:100900002DB211DBA94518DB009B5B452A465346F7
:1009100031464046EADCD8F800205346976929461C
:1009200032464046B847E5E7029A1644039AA9457D
:1009300002EB030436B224B2E6DA05B0BDE8F08F6C
:100940004A462B46B94635464D4517461E46B2DD4A
:10095000304629463E464D4607468946AEE700BF2B
:1009600010B404682469A4465DF8044B604700BFD6
:1009700030B40468BDF808500295A46BA44630BC9E
:10098000604700BF30B40468BDF808500295E46BBE
:10099000A44630BC604700BF70B40468BDF90C6069
:1009A000BDF8105003960495246CA44670BC6047B3
:1009B000704700BF10B582B0B0F90C2001910168FA
:1009C000009200220C6CB0F90A301146A04702B028
:1009D00010BD00BF704700BF01F003010129C175C0
:1009E00006D0032904D0C2880389428183817047DD
:1009F0000289C38842818381704700BF2DE9F0419D
:100A00000568134E6F6986B0B7420446BDF8308062
:100A100010D1013B13441BB20093CDF804800B4668
:100A2000AD6A2046A8472368DB6AB3420AD106B004
:100A3000BDE8F081059304920391B84703A92568A6
:100A40000EC9E6E7204606B0BDE8F041184700BFF2
:100A5000B10900002DE9F0410568124E6F6986B0BA
:100A6000B7420446BDF830800FD1013BCDF8048079
:100A70000B4400921BB2AD6A2046A8472368DB6A8C
:100A8000B3420AD106B0BDE8F08105930492039108
:100A9000B84703A925680EC9E7E7204606B0BDE8B8
:100AA000F0411847B10900002DE9F04F0568DFF863
:100AB00058B06F6985B05F450646BDF93890BDF8FE
:100AC0003CA00C46904615D11F19BC420CDACDF85B
:100AD00000A0214601342D6A4B464246304624B2DE
:100AE000A847BC423568F2DBEB6A5B4507D105B02D
:100AF000BDE8F08F0393B8473568039BE4E73046C1
:100B000005B0BDE8F04F1847B10900002DE9F043EA
:100B100087B099420546BDF93840BDF83C6025D004
:100B2000A24212D00768DFF88080D7F81490C14540
:100B300032D18DE850002846BC6AA0472B68DB6A9A
:100B4000434524D107B0BDE8F083994202DD084651
:100B50001946034628680E96C46B01335B1A1BB214
:100B60002846A44607B0BDE8F0436047A24202DD34
:100B7000134622461C4628680E96631C846B9B1AFB
:100B80001BB22846A44607B0BDE8F043604728469C
:100B900007B0BDE8F0431847059304920391C84796
:100BA00003A92F680EC9C4E7B10900002DE9F04F71
:100BB000D0F800E0DFF89090DEF814B083B0CB45B9
:100BC0000446BDF93080BDF834A00D4617461E46D8
:100BD00031D1CDF800A0DEF824B0294633463A469C
:100BE0002046D8472368CDF800A008F1FF323A44E8
:100BF000D3F824B0294612B233462046D84723689A
:100C0000CDF800A02946D3F820B03A464346204606
:100C1000D8472068CDF800A0711E29444346056AD4
:100C200009B23A462046A8472368DB6A4B4506D1FD
:100C300003B0BDE8F08FD847D4F800E0C9E72046FC
:100C400003B0BDE8F04F1847B1090000F0B400242C
:100C500001264FF6FF75094F07600471C475C48102
:100C600004824476C4618675067685824582C18099
:100C7000028141818281F0BC704700BF584600006C
:100C80002DE9F04F93B090460591C1691090BDF8E1
:100C900070000790BDF874909DF878A00493002927
:100CA00000F0CD800A7A0AC9894604998A1AD2B21C
:100CB00003EBC203BAF1010FDA780B9293F9052026
:100CC0001E8893F802B00F9293F9064079D913B2B7
:100CD000099323B20C93109B1A68A94B11931946E0
:100CE00053698B4240F0A6800B9B002B55D01FFA16
:100CF00088F300210D93C8462344DDF84090069107
:100D00000E930F460C46BBF1000F3FD0BDF81810F4
:100D10000C9B03971FFA8AF0CB1813FB00F3049087
:100D20000E9801440D98034409B21BB20A9108932E
:100D3000002505E00135EBB264009B45E4B222D901
:100D4000039B2B44590703D1731C18F806409EB22D
:100D50002306EFD5099BBDF81000E91811FB00F13F
:100D60000598BAF1010F0FFA8AF301441CD00798D5
:100D700001900093D26909B217464846089AB847CD
:100D8000D9F80020D6E7039F5F44FFB2069B0B997A
:100D900001330693DBB29942B5D8D36A119A9342D4
:100DA00043D113B0BDE8F08F0F9B191893690A9ACD
:100DB00029441F4609B2079B4846B847D9F8002086
:100DC000B8E700230C93099385E70A9A0D9B01323B
:100DD000013B52B213F0FF030A920D936FD1DDF87D
:100DE0001890079BDDF83C80DDF820A04B4517D01C
:100DF000BAF1010F00F0C8800B9A109DCDF8049055
:100E00000BEB8B014FEACB030A4400931146DEF84B
:100E10001C405346424609B22846A047D5F800E098
:100E2000DEF82C30119A9342BBD0109813B0BDE875
:100E3000F04F1847109D284698472A6854E7109AA3
:100E40000598B2F90A308342ABDDB2F90C30434564
:100E5000A7DD062313FB0A03002BA2DD08EBCA0360
:100E6000002B9EDD537E2BB9049BAF2B02D901339F
:100E7000DBB20493109BD3F800E0414B11931A4668
:100E8000DEF81430934240F08E801FFA88F30E9300
:100E900008339BB2BDF81420059305230D9300235E
:100EA0000A93CDF83C800FFA8AF3DDF84080CDF844
:100EB00018900B921FFA8AFBCDF820A099460A9A47
:100EC000BDF810000B9C0E9D0523194611FB002355
:100ED0002C481146C75C039702FB0B4214FA81F3BE
:100EE00012B21BB209920C932C462E461CE0089BB2
:100EF0000999012B2AB24B4640462DD0079F0197F6
:100F0000CDF80090DEF81CA0D047D8F800E0039B95
:100F10005B0801340393059BA4B25D445E44A34285
:100F2000ADB2B6B23FF451AF039BD807DFD4079BF5
:100F3000069A9342EBD0089B012B16D0069B019397
:100F4000CDF80090DEF81CA009994B4632B240461D
:100F5000D047D8F800E0DAE7DEF818A0079B0C9934
:100F600022B2D047D8F800E0D1E7DEF818A00C99FB
:100F70001346404622B2D047D8F800E0C7E700BF8A
:100F8000B1090000A84600000B99109DCDF8009013
:100F90000531DEF8204009B2424608232846A04722
:100FA000D5F800E03CE7109C20469847D4F800E0D4
:100FB0006BE700BFF0B5C36985B004462BB30A29BF
:100FC00068D00D294AD01A7A914247D3587A88427C
:100FD00044D35D688A1A05EBC205AA78002A50D06E
:100FE000E87800284DD0207E00283AD095F905E019
:100FF000B4F90E00A67DB4F90A70724406FB020231
:10100000BA4262DCB4F9102030E00A2956D00D292A
:1010100024D0027E002A4BD0B0F90E00A57DB4F991
:101020000A60062212FB0502B2423EDD228AE381FB
:1010300002EBC50212B218462282A78A668A02957E
:101040000B468DE8C00001462046FFF719FEA37D40
:10105000E28903EB430302EB4303E381012005B084
:10106000F0BDA67DB4F90E00B4F91020B4F814E078
:10107000678A02960B468DE8804001462046FFF7BE
:10108000FFFD2979E389A27D012001FB0233E38181
:1010900005B0F0BD0022C2819A7A817D038A01FBEE
:1010A00002330382012005B0F0BDB4F91020C4E77B
:1010B000857DB4F91020B0F90E00BEE7028A817D6B
:1010C000C38102EBC1030382C8E70020E0819B7A61
:1010D000228A03FB062212B22282C7E7C181028262
:1010E000704700BF002908BF01218175704700BF0C
:1010F00081824182704700BF017670472DE9F04F31
:10110000834A8449082410231460136090F8354002
:101110000123A3405BB20B7090F835300133DBB292
:10112000032B85B080F8353040F2C381002280F86F
:10113000352090F8343090F828100133DBB2994212
:1011400080F8343040F2E081846B734B1022082128
:1011500019601A6090F8352002F0FF03002A40F071
:10116000C380B0F90660002E40F3BB806B4FDFF800
:10117000E491DFF8DC816A48DFF8DCC1DFF8DCB13C
:101180001A464FF0040EA24677E0664C0125256012
:1011900013F0040F644D046840F2031408BF4FF4C9
:1011A00080742C600C074CBF604C614C4FF4805530
:1011B0002560DCF8004014F00C0F08D113F0080F84
:1011C0005C4D40F2031408BF4FF480742C60CD06D0
:1011D0004CBF564C564C4FF400552560DCF800408F
:1011E00014F00D0F08D113F0100F534D40F20314FB
:1011F00008BF4FF480742C608C0640F19B81494CF1
:10120000802525600468650708D113F0200F4B4D39
:1012100040F2031408BF4FF480742C604C0640F178
:101220009181404C102525600468650708D413F0AF
:10123000400F434D40F2031408BF4FF480742C60FC
:101240000C0640F17B81374904240C600168890752
:1012500008D413F0800F3B4940F2031308BF4FF44A
:1012600080730B60CBF800E000BF00BF0132D2B248
:10127000B242C7F800E0134633DA33440AEB030402
:101280001AF80310A35D1AF802504FF480343C6042
:101290009B00090101F0300103F00C03D9F8004074
:1012A0000B4343EA8513E406D9B203D4264D4FF429
:1012B00080742C604FF400343C60D9F8004014F086
:1012C000110F03D1214D4FF480742C604D073FF571
:1012D0005CAF0124C8F800405AE70398029B1C4405
:1012E000846305B0BDE8F08FB0F906300293002B9F
:1012F000F4DD029BDFF82480DFF858C0DFF85CE003
:10130000134F0749074E0390042500220193BFE0C5
:1013100084F00F400E07FF1F88F00F4048F00F4089
:10132000D4F00F40C4F00F4000C0044004F00F4060
:1013300008F00F4030900440349004401CC004403A
:1013400010C0044008C0044040A0044044A0044031
:10135000C8F00F4054F00F4014F00F4044F00F401D
:10136000CEF80090DCF8009019F0100F04D140F294
:101370000319A148C0F8009098074FF4003940F1D4
:101380002B81CEF80090DCF8009019F0110F04D1F9
:1013900040F203199948C0F8009058074FF001092E
:1013A00040F11381C6F80090D1F8009040F2031A82
:1013B000DFF860921807C9F800A040F1F580DFF867
:1013C00058A209F5332909F114094FF4805BCAF8D2
:1013D00000B0D9F8009019F00C0F05D140F2031AB3
:1013E000DFF83892C9F800A0D80640F1CC80DFF8C9
:1013F00028A2DFF82C924FF4005BCAF800B0D9F8AD
:10140000009019F00D0F05D140F2031ADFF8149285
:10141000C9F800A098064FF0800940F1A980C6F8ED
:101420000090D1F8009019F0070F05D140F2031A8F
:10143000DFF8F491C9F800A058064FF0100940F108
:101440008C80C6F80090D1F8009019F0040F05D1F7
:1014500040F2031ADFF8D491C9F800A013F0800F0E
:101460004FF0040372D033600B68980704D440F245
:101470000319634BC3F80090CEF8005000BF00BFC3
:101480000132019BC8F80050D2B29A42BFF625AF94
:10149000A35CD8074FF480393FF562AFC8F80090DD
:1014A000DCF8009019F0100F7FF466AF4FF48079EC
:1014B0005FE790F83530012B7FF446AE90F834307A
:1014C000DF0740F194800423136090F834309E07C6
:1014D0004CBF4C4B4C4B02221A6090F834305D07E5
:1014E0004CBF484B484B01221A6090F82830082B1B
:1014F0007FF62AAE90F834301C074CBF434B444B68
:10150000846B01221A6020E680F8342090F82A309B
:1015100043B190F82930C3F10103DBB280F82930E0
:1015200080F82A2090F82930C3F1090350F82340AD
:1015300084630AE68024C8F8004063E60421C8F802
:10154000001083E61024C8F800406DE63B600B688D
:101550009B0791D44FF480798BE7C7F80090D1F8BE
:10156000009019F0040F7FF479AF4FF4807A71E79F
:10157000C7F80090D1F8009019F0070F7FF45CAF26
:101580004FF4807A54E7DFF8A8A0DFF894904FF486
:10159000005BCAF800B0D9F8009019F00D0F7FF485
:1015A00039AF4FF4807A31E7DFF884A0DFF870902C
:1015B0004FF4805BCAF800B0D9F8009019F00C0F16
:1015C0007FF412AF4FF4807A0AE7C7F80090D1F8A1
:1015D00000904FF4807AEBE6C8F80090DCF80090B9
:1015E00019F0110F7FF4D9AE4FF48079D2E6064B93
:1015F00004221A6069E700BF40A0044044A00440F0
:1016000008C0044084F00F4088F00F4044F00F40C1
:1016100048F00F4000C0044004F00F4030900440F8
:1016200014F00F40349004401CC0044010C004402B
:1016300008F00F40064A074913780868013B5BB27F
:10164000137013785BB2002B00DD7047FFF756BDB7
:101650000E07FF1F8410FF1F0029C0F2DF802DE955
:10166000F043B0F90A408C4240F3CB80002AC0F22C
:10167000C880B0F90C40944240F3C380C47D022C72
:1016800000F0C180032C00F0CE80012CB0F9068060
:1016900004D108F1FF34A41A0A4621B290F8287048
:1016A00090F829904FEA233CC3F3C71EBA42C3F314
:1016B00047035FFA8CF40EF00F0503F00F0651DAC2
:1016C00009F1080902FB08F707EB470250F82970F7
:1016D000114439441CF0010F11F8182022F00302C4
:1016E00001F8182007D0B0F9067011F8172042F061
:1016F000010201F817201EF0010F07D0B0F90670A3
:1017000011F8172042F0020201F81720B0F9062064
:1017100013F0010F8B5C00F0828043F001038B54C7
:10172000032702220B78144203F0E30318BF43F0AF
:10173000040315420B704FEA420305D091F800E014
:101740004EF0080E81F800E01642DAB203D00B78B2
:1017500043F010030B70B0F90630013F1944E1D19A
:10176000BDE8F083D21B08FB02F209F1080702EB87
:101770004202114450F8278018F8012022F0030299
:1017800008F801201CF0010F08EB0107B0F906C0B2
:1017900017F80C2014BF42F0020222F0020207F8F0
:1017A0000C2018F801201EF0010F1CBF42F00102AE
:1017B00008F80120DB0744BF42F0020208F80120CC
:1017C0000223032100E03A7802F01F021C4218BFF6
:1017D00042F020021D423A704FEA430205D097F8CA
:1017E00000E04EF0400E87F800E01E42D3B203D076
:1017F0003A7862F07F023A70B0F906200139174456
:10180000E1D1BDE8F083B0F90680048908F1FF3525
:10181000013C691AA41A09B222B23FE7704723F0CB
:1018200001038B547CE70489B0F90680013C641AFB
:10183000114622B232E700BF03FB01F370B50E463A
:10184000054603EB430480F82810AAB1012104FAED
:1018500001F002F0C1F92862B0B12044013E00233A
:10186000F6B2032285F8352085F8346085F82A30F1
:1018700085F82930686270BD2046012102F0ACF97C
:1018800028620028EAD170BD70BD00BF70B5044663
:1018900015460E4611462022FFF7D8F9074B236064
:1018A00000208021E06284F8301020462B4632462A
:1018B0001021FFF7C1FF204670BD00BFB04B0000F4
:1018C0002DE9F041002380F8293090F829306E4A44
:1018D0006E4F1060C3F109036D4D50F823308363E0
:1018E000042604460121132000F066FB4FF0100887
:1018F0003E6001210A2000F05FFB01210920C5F8AC
:10190000008000F059FB634B08221A600121172068
:1019100000F052FB2E600121162000F04DFB022347
:1019200001212B600E460F2000F046FB2E6094F83C
:101930002830082B00F2A280574A58491368584FA4
:10194000584E5948DFF89CC1DFF89CE113F4803F02
:1019500040F2031314BF1D464FF480750D601268EA
:10196000524D12F4003F14BF1A464FF480723A6091
:101970004F4A336007F5FE57036000F536202B60B1
:101980000C371360183002F533224FF480353832AB
:101990003B60B36005600023464D47481268CCF8B1
:1019A0000030CEF8003001232B60036000F5BE50FC
:1019B0001830424F424E3B6033602B610360D006CB
:1019C00058BF4FF48073314A58BF0B603D4B4FF402
:1019D000003111601B6813F0110F03D1304B4FF42D
:1019E00080721A60384B3949394E2E4D394A0120E0
:1019F00018604FF480734FF4805036682B60086095
:101A0000126812F00C0F04BF274A13602F4A314BA3
:101A10004FF4005111601B6813F00D0F03D1234BDD
:101A20004FF480721A60284A294B802111601B688C
:101A3000590703D11E4B4FF480721A60224A244B7F
:101A4000102111601B685A0703D4234B4FF4807296
:101A50001A601D4A1E4B042111601B689B0703D4AA
:101A60001E4B4FF480721A6004F12C0040F2833256
:101A70001B4901F0A5FA62B6BDE8F0814046314647
:101A800000F09AFA3E6057E78410FF1F48F00F40BD
:101A900088F00F4084F00F4040F00F4040A0044019
:101AA00044A0044000C004403090044034900440FE
:101AB0001CC00440801AFE43B002FE43B402FE4341
:101AC0009C1AFE4354F00F40C8F00F4008F00F403E
:101AD000D4F00F4014F00F4010C0044008C0044080
:101AE00035160000C00AFE43C40AFE43980000F009
:101AF0001C00C3F341030343100243EA413300F4E3
:101B0000E06052011843D2B2890201F4C05110437F
:101B1000084380B2704700BF4B1E9BB24FF6FD7268
:101B2000934201D8FEF746BF10B4044690F829004E
:101B3000B4F9063094F82820083012FB03F254F868
:101B400020005DF8044B02EB420202F071BB00BFC3
:101B5000374A384913681B06FCD40B6813F080031E
:101B6000F8D172B634490A78002A5FD0334A344833
:101B7000F0B4344C176806682568D4680C303E44CD
:101B8000143200681268304F35442C44204402441B
:101B9000C2F34E022D4E2E482E4D2F4C42F40042E1
:101BA0003A60376806682D682C4A24680C303E4439
:101BB000006812682A4F35442C4420440244C2F382
:101BC0004E02284E2848294D294C42F400423A60E2
:101BD000376806682D68274A24680C303E44006840
:101BE0001268254F35442C4420440244C2F34E026F
:101BF000224E2348234D244C42F400423A60376879
:101C000006682D68214A24680C303E44006812683A
:101C100035442C4420440244C2F34E021C4842F492
:101C2000004202600B7062B6F0BC704762B670474B
:101C300024B0034024B00B408910FF1F38B003408C
:101C40003CB0034040B003402CB0034058B00340C8
:101C50005CB0034060B0034064B003406CB003402C
:101C600030B0034038B00B403CB00B4040B00B40AC
:101C700044B00B404CB00B402CB00B4058B00B4064
:101C80005CB00B4060B00B4064B00B406CB00B40DC
:101C900030B00B4030B42948294A2A4B2A4D6024E1
:101CA000E121047011701B78284C082B30D00A2BCE
:101CB0002748284937D00C2B0CBF35225D22122330
:101CC0002A60236002600B60234B24491B78244A5E
:101CD000BBB101230B601360224B23491B78234ABD
:101CE000012B26D9042B0FD9082B1ED9102B94BFFA
:101CF000862387230B6013601D4B01221A7030BCB2
:101D000070470B601360E7E784230B601360F3E711
:101D100000F58E200F490830212213232A6023600A
:101D200002600B60D0E73922F7E785230B60136070
:101D3000E2E780230B601360DEE700BF004007404E
:101D4000014007400F07FF1F08B003400CB00340DD
:101D500008B00B400CB00B408C10FF1F20B00340AC
:101D600020B00B401007FF1F24B0034024B00B40ED
:101D70008910FF1F47282FD8334B2DE9F0411E5CF7
:101D8000FF2E2BD0314B1B78002B2AD132062CD4BE
:101D900072B62F4D2F4C2F46012326602B7062B652
:101DA00072B623681B060CD43B781BB9F4E72B787A
:101DB000002BF1D062B601F021FA72B62368180642
:101DC000F5D5254B1B6800222A7062B6234A10788D
:101DD00043FA00F0BDE8F081002070470020BDE824
:101DE000F081FFF7B5FE3206D2D572B61C4DDFF892
:101DF0007C801C4C06F04007FFB206F03F06D8F886
:101E00000030DFB123F01003C8F800300123266052
:101E1000134A2B7062B672B6236819060CD4137875
:101E20001BB9ECE72B78002BE9D062B601F0E6F99C
:101E300072B623681B06F5D50B4BC3E743F01003BE
:101E4000C8F80030E2E700BF004C00008910FF1F17
:101E50008B10FF1F00B0034010B003408810FF1F1D
:101E60008A10FF1F00B00B4010B00B400CB00B40AD
:101E700008B5104C08E0236859050DD423681A05ED
:101E80000FD42368DB0411D423685803F3D500F082
:101E900055FA23685905F1D501F048FA23681A0567
:101EA000EFD501F0D9FA2368DB04EDD501F06AFB28
:101EB000EAE700BF3480044008B5FFF7D9FF00BF50
:101EC000014B10221A80704700200540704700BF68
:101ED000094908B50B6830B16A461844A2F50052AA
:101EE000904202D20860184608BD01F0B3FE0C23F0
:101EF00003604FF0FF3008BD1407FF1FFEE700BF6F
:101F00001C4A02EBC00301295B6811D004291BD0D5
:101F100052F83000002280F8802229B1022920D016
:101F2000032922D01A6070474FF480721A607047FC
:101F300052F830004FF4A27280F880121A601A68CA
:101F400022F020021A60704752F830104FF4A2724B
:101F5000012081F880021A601A6842F020021A609B
:101F6000704740F203121A6070474FF481721A6092
:101F7000704700BF484C000030B4054B054D064C7F
:101F8000002210211A602A602060196030BC70475E
:101F900014D0034004D0034000D003403F2806D8AB
:101FA000044B53F8303093F80002C0B27047002061
:101FB000704700BF484C00003F2801D8FFF7A0BF82
:101FC000704700BF72B60C490C4B0D4A1B6808687D
:101FD000126862B6520102D5322B88BF013009491E
:101FE000C3F5EA334FF47A72BF33A1FB031302FB4C
:101FF00000F000EB931070479010FF1F18E000E016
:1020000004ED00E0898888882DE9F843054672B61A
:10201000204F214B214A1B683C68126862B652016E
:1020200002D5322B88BF013495B3C3F5EA331C4E79
:10203000DFF86490DFF86480BF334FF47A72A6FB58
:10204000031302FB04F404EB931472B6D9F80010E6
:102050003A68D8F800E062B6C1F5EA33BF33A6FBB0
:1020600003031EF0806FC4EB93134FF47A7002D019
:10207000322988BF013200FB0233B3F57A7F04D3E3
:10208000013D05D004F57A74DFE701F0B7F8DCE72D
:10209000BDE8F8839010FF1F18E000E004ED00E0B9
:1020A00089888888F8B53E4B3E49DFF818C13E4E16
:1020B0003E4ADFF814E13E4D3E4C3F4F4FF000608A
:1020C00018604FF0805018604FF0005018604FF0CB
:1020D000804018604FF000401860002008602823FE
:1020E0004EF6FF71CCF80010CEF8003033600EF5DC
:1020F000012E13602B60236005F500253B6004F57D
:102100000024B36207F50027936206F5012602F565
:1021100001220EF1100E05F6E87504F6E87407F5D5
:102120007F67103220362B602360CEF800303B6092
:1021300013603360214EBB61936109223260A7F5C1
:10214000002706F58056203F083638603160BB60B6
:10215000F36047F8042C06F5FD2607F5FE2706F286
:10216000FC76043730603960B360FB6046F8042CBD
:102170000836C7F8FC0F06F6FC76114831602B6074
:1021800023600260FFF786FD3220FFF73DFF00F07D
:1021900001FD4FF4AF70BDE8F840FFF735BF00BF59
:1021A00004E100E004800340148003401C800340ED
:1021B000248003402C80034034800340008003408F
:1021C00000900B40088003400C800340431E032B0B
:1021D00014D872B60A4951F8230068B170B4094C9A
:1021E000058834F81320466841F82360521B24F810
:1021F000132062B670BC704762B67047002070470B
:10220000EC10FF1FE014FF1F013803280BD872B633
:10221000074B53F8203043B100205B680130002B9E
:10222000FBD162B67047002070471846F9E700BF3F
:102230004011FF1FF0B472B61A491B4E012311F86A
:10224000014B194F9A00240742F0010505D556F8B5
:10225000324064B156F83520BAB10133052BEED1C6
:1022600062B6124B00221A70F0BC00F017BD0F4C82
:102270000F4D217847F8325007EB431308304A1EC0
:102280005860227062B6F0BC70470849094B0A7862
:1022900047F8353007EBC5030830013A58600A703B
:1022A00062B6F0E7744E00000000FF1F6911FF1FC7
:1022B00088004000C8004000431E032B1DD81B4A65
:1022C000400140F0100030B4104472B6184CE25C8B
:1022D000032A1BD8DFE802F00212151703220D882B
:1022E000E25410F0080F14BFC823882343EA0543C3
:1022F00008310360416062B630BC7047083002228A
:10230000EDE70522EBE708300422E8E7094A52F836
:10231000230038B1084A52F82300416042F82310E4
:1023200062B6E9E742F82310034AF7E70000FF1F0F
:102330007811FF1F4011FF1F5011FF1F2DE9F04FB3
:10234000DFF804A3DFF804B387B044E0A94F4FEAF5
:10235000930807EBC809013ED9F8042003F00803ED
:10236000F6B2A2F1080003F0FF04002B40F0FE805B
:1023700057F838301B0C99B222F8081C002B00F0DB
:10238000EC809D4B22F8064C42F8044C53F8262072
:10239000002A00F02B82994D55F826305860984C51
:1023A00045F8260034F81630194424F8161000F0C9
:1023B00055FC002800F01382924A934B19F0080F45
:1023C00000F1080018BF1346C9F8040047F8383078
:1023D00008238AF800309AF80040E4B260071AD562
:1023E0008A4B1B78A3B18A490A7802F0FF0322B115
:1023F000013BDBB20B7003B900BE86490A7802F0DC
:10240000FF032AB1013BDBB20B70002B00F0BD8152
:1024100004238AF8003004F0080303F0FF02002BC5
:1024200000F0C8809BF80030DBB21E098ED19C08FA
:10243000704F57F8342007EBC401C2F38302013A0E
:1024400049680C2A00F28580DFE802F079798383FD
:102450008383838342838383070008686E4B6F4DB9
:102460000193684B4A686E4E47F8343081B240F2AF
:102470008164694B6A60286000220120A1421A60D1
:102480003A61BA61307000F2E380B1F5D06F80F04C
:102490002782B1F5817F00F0E08100F2C3818029BD
:1024A00000F03682822940F0DE81A9885D4B01F080
:1024B0007F01042900F2D8815B4C89000B44227013
:1024C00062701A78930740F122832070022023E281
:1024D000514B01931A683AB3544B514E54491888E2
:1024E00034780D784028864645F0020828BF4FF022
:1024F000400E002C84F001043470CEEB00000CBFC1
:102500008824C82407EBC80680B285F0010544EA98
:102510000E447260188047F8384072440D700028ED
:1025200000F0B780019B1A603C4B1A88B2F5A06F8F
:102530000FD100219A7859703E4B1A7009E0374A42
:10254000108842F22102904200F0A8802D4A47F8FC
:102550003420394A012313703AE72A4A2A4B19F0EA
:10256000080F18BF134647F8383031E700F096FBE4
:10257000324A334952F82630002B00F03B8158682C
:102580008C5D42F8260003F10802C9F80420032CF0
:1025900005D8DFE804F02C02292602228A551A8881
:1025A00019F0080F0CBF8823C82343EA024347F8F9
:1025B00038300DE7E00700F1EB80210600F12881BB
:1025C000A20706D51F4A204913780220DBB21370F8
:1025D0000870E30602D51C4B10221A7007B0BDE844
:1025E000F08F04228A55DAE705228A55D7E70322BD
:1025F0008A55D4E70000FF1FEC10FF1F9810FF1F43
:10260000E014FF1FC8004000880040007411FF1F45
:10261000FD10FF1F7C11FF1F9410FF1F6011FF1F93
:10262000FC10FF1FC02007406C11FF1FA810FF1FE8
:102630006811FF1F98200740942007404011FF1F9A
:102640007811FF1F88200740802007409020074016
:1026500042F22104A14200F0948043D8B1F5086F02
:1026600000F0A881B1F5106F40F0FD80B84AB94C78
:10267000A978117004F1800503E00834AC4200F041
:102680009E81236A1906F8D5606A083800F006FBB7
:10269000F3E7BEF1400F18BF002243E7AE4ACD1D5D
:1026A00011F8013B02F8013FA942F9D1AB4A126887
:1026B000862A00F01181AA49AA4E0A78307882F061
:1026C0000105002842F002020D700CBF8821C821CC
:1026D00047F8321007EBC20280F001000021307091
:1026E000516033E742F22124A14240F0FE81DFF83D
:1026F000BCC29D4B9D49AC78DCF800501D60814602
:102700000C700020029080468446044694490D785F
:1027100045F0020E07EBCE03B9F1000F5C600CBF71
:102720008824C82444EA080385F0010447F83E30B1
:1027300032700C70DFF81CE28A4BDFF8248200282C
:1027400040F09880BCF1400F1BD144F0020407EB2D
:10275000C403029FDFF8FCE15F60002A40F09F8025
:10276000020442F0880207444EF8342086F80090B4
:102770000D703B46402804D100207D4A019910800D
:102780000B607C4A01231370E3E600F0F3FB3FE6A5
:10279000704B784872491A614FF0020E80F800E0E1
:1027A000754F0A70754919609960754E754D764C74
:1027B0009A610D213970FF213170DFF8F4E1297041
:1027C0002270724D724A8EF800109F27012406F87D
:1027D000047C5D600470DA6007B0BDE8F08F6D4A7C
:1027E00047F83800137801331370F1E543F82600F9
:1027F000694DD4E58B5D032B67D801A252F823F015
:10280000D1230000D1230000552800004F280000EC
:1028100059495C4B80220D2008701A70A2077FF581
:10282000D8AECFE640F20232914240F05681A988FC
:1028300001F07F01042916D86A88A2B94E4C89009C
:102840000C448146217841F00201217059E70123AF
:102850008B55BDE500238B55BAE5A98801F07F01B2
:10286000042940F24781444B0F221A70414A012348
:1028700013706EE640287FF668AF44F002040EEB5A
:10288000C401029E4E60AAB1444A83F800903346C8
:10289000403888F8005040334EF834206DE7020489
:1028A000029B86F8009042F0C8020D7003444EF877
:1028B00034205FE783F80090029B304A88F800508C
:1028C000403840334EF8342057E719F0080F0CBF5A
:1028D000022303238B557BE5314A0F211170EAE671
:1028E000304A5468002CBED06888B5F804E003E094
:1028F0000C325468002CB6D013888342F8D1538828
:102900007345F5D1000A03280CBF2078108903E035
:10291000254C022022706270EA88824280F00C818D
:102920000F490D78402A45F0020E944607EBCE0081
:1029300028BF4FF0400C04EB0C0344600293CCEB37
:1029400002004FEA0C484FF001090022C824E9E6D2
:102950007411FF1F0000FF1FE714FF1FE814FF1F83
:102960006811FF1FFC10FF1FF014FF1F8C11FF1FC9
:10297000A810FF1F94200740C02007408800400097
:10298000882007408020074098200740AC10FF1F98
:102990000011FF1F6911FF1F9810FF1FC8004000A2
:1029A000FD10FF1F784E00006C11FF1F9010FF1FDD
:1029B0008C200740684A694C12782270ACE768495D
:1029C000684B694A02916949694C6A4D03940596BE
:1029D0004FF0000988461C4616460495206828B129
:1029E000456800F05BF92846002DF9D100232360EB
:1029F000049B30681A46002342F8293028B1456804
:102A000000F04CF92846002DF9D100223260029ADC
:102A100098F800301146002241F8042B039A0291E5
:102A2000023B4FF0000122F81910032B07D8DFE812
:102A300003F0340234024FF0010388F8003009F14A
:102A40000109B9F1040F04F1040406F1040608F1C8
:102A50000108C3D1484B059EDFF83091DFF8308183
:102A600000211970012518F8013B09F8043B1A07E9
:102A700018D4AC0044F0020244F00304002347F8E9
:102A8000323047F834303D4B994505F10105EAD124
:102A900096F8009089F0010233E64FF0000388F8C1
:102AA0000030CCE700F0DAF8AC0007EB451300F19A
:102AB0000802002837D05A60314B47F8343000F014
:102AC000CDF844F0010307EBC30200F1080100B3A5
:102AD00051602C4A47F83320CCE7B1F5A06F7FF462
:102AE000C2AE00224FF001090BE642F221329142C0
:102AF000F7D0B8E66A88002A7FF4B5AE224C890088
:102B00000C448146217821F002012170F9E5022070
:102B100002E7194B44F001021B7847F83200164ACD
:102B200001331370A6E7144B134A1B78AC00013332
:102B300047F834001370C2E74028844628BF4FF09E
:102B4000400C04EB0C03CCEB00004FEA0C48029362
:102B500000224FF00109D9E57411FF1F6C11FF1F0E
:102B60005011FF1FEC10FF1F4011FF1F7811FF1FB6
:102B7000E014FF1F9810FF1F6911FF1FD4200740AA
:102B800088004000C8004000C0200740C420074023
:102B9000744E00002DE9F843244C00F0D3FE0022CF
:102BA00004F1880023461A605A60083383424FF0CC
:102BB0000001F8D11E481F4A0368DFF890E01E4F5D
:102BC0001E4D1F4EDFF88880DFF888C0DFF8889040
:102BD00043F48023036013681A4843F04073136082
:102BE000C4F307238EF80030C4F307433B70240E70
:102BF000FF2302F5C9222C7002F5847288F8003098
:102C0000114D8CF800303370012389F800307026A4
:102C10008EF864104FF40014102107F82C3C2E702D
:102C2000046011700EF1640EBDE8F8830000FF1F10
:102C30003480044000D80040B0200740B420074052
:102C40001020074004E100E035E400E09C2007404C
:102C500080200740882007409420074072B60D4826
:102C60000268B2FA82F30B2B10DC4FF00041D9401E
:102C700022EA0102026062B6074803EBC303DB00ED
:102C8000C2180021C15010465160704762B6002042
:102C9000704700BF1807FF1F9803FF1F0D4B0E4A18
:102CA000C31AA2FB03231B090B2B0CD80B4A127867
:102CB00052B972B60A484FF00041026821FA03F394
:102CC0001A43026062B67047064A1278002AF0D0B2
:102CD000FFF7B0BA9803FF1F398EE3386911FF1F61
:102CE0001807FF1F7411FF1F38B50F4D286878B102
:102CF00043880288C118013393420C7A02D2438080
:102D0000204638BDFFF7CAFF002320462B6038BDA0
:102D1000064B1B782BB10320FFF758FA28600028D8
:102D2000E6D14FF0FF3038BD8811FF1F7411FF1F2F
:102D300010B5094C206818B143881844007A10BDBA
:102D4000064B1B782BB10320FFF740FA20600028C8
:102D5000F2D14FF0FF3010BD8811FF1F7411FF1F1B
:102D6000044B054A1B6890881BB11A885B88D31AEC
:102D7000184470478811FF1FE014FF1F0B4B1B788E
:102D80009BB110B50A4C206848B1FFF787FF0023BC
:102D900003202360FFF71AFA30B1FFF77FFF03200B
:102DA000FFF714FA0028F8D110BD70477411FF1F07
:102DB0008811FF1F2DE9F04FDFF8F89083B0012252
:102DC00089F80020019169B3DFF8EC80364F019E4D
:102DD0008346D8F80000B0B3344D4488C4F14001B4
:102DE000B14228BF314604EB010E00221FFA8EFECD
:102DF0002A70761AA0F802E000F1080251B1013CF5
:102E0000224459441BF8014B02F8014F8B45F9D17C
:102E1000B0F802E0BEF13F0F0BD8254A0521117032
:102E2000002ED6D10198002389F8003003B0BDE808
:102E3000F08F4022028001460420FFF73DFA002275
:102E4000C8F80020E9E73A782AB3184D4DF2E904B2
:102E50004FF0010A07E0013C16D02A78A2B900F031
:102E6000CDF93A78BAB10420FFF7CEF90728F2D8A5
:102E700089F800A0FFF7F2FEC8F800000028ACD1E6
:102E80000C4B013C1870E8D101234FF0FF302B7040
:102E900003B0BDE8F08F00234FF0FF3089F8003019
:102EA00003B0BDE8F08F00BF7411FF1F8411FF1F36
:102EB0007C11FF1F7D11FF1F8011FF1F00B583B024
:102EC00002AB012103F8010D1846FFF773FF03B0B1
:102ED0005DF804FB38B50E4D0E4C286801232370B5
:102EE00028B1408800232370C0F1400038BD0A4B50
:102EF0001B7813B90020207038BD0420FFF784F937
:102F00000728F7D8FFF7AAFE28600028E9D1F1E7E3
:102F10008011FF1F7D11FF1F7411FF1FF8B5114BAA
:102F20001B788BB1104E114D346801272F7064B19E
:102F30000F4A638800271770214623800420FFF77B
:102F4000BBF9376000232B70F8BDFFF787FE084BF5
:102F500028B1014604201C70FFF7AEF9F2E71F709C
:102F6000F0E700BF7411FF1F8011FF1F7D11FF1FCD
:102F70007C11FF1F38B50E4B1B7873B90D4C2168BF
:102F800061B103F0FF054B880B800420FFF794F933
:102F9000256038BD084B01221A7038BDFFF75EFE70
:102FA0000028F7D00146BDE838400420FFF784B977
:102FB0007D11FF1F8011FF1F7C11FF1F704700BF95
:102FC0000368F0B4FBB1002501249D60DC601B4C5C
:102FD0001A601C44241104F130056A110326920082
:102FE0009E60174F0679174B47F8241002F1604294
:102FF00002F5614205F01F05012000FA05F5E654CF
:103000001560F0BC7047104C236843F40003236044
:1030100000BF0E4B0E4DA4F58734A4F59E74012617
:103020001E60234604609C68002CD0D01033AB4255
:103030000360F8D1002303601846E2E7008FFCBF6D
:103040001C07FF1F30E400E03C8004400070034098
:10305000407103400168A9B10B4BF0B40B441B1144
:103060000A4E0B4F0B4D46F8237003F1300202F06D
:103070001F0401235211A340002445F822308C6024
:103080000460F0BC704700BF008FFCBF1C07FF1F2F
:10309000BD2F000080E100E0024A034B01211160D6
:1030A0001B6818470C7103401C07FF1F024A034BA3
:1030B000012111605B6818471C7103401C07FF1F4A
:1030C000024A034B012111609B6818472C71034091
:1030D0001C07FF1F024A034B01211160DB681847E0
:1030E0003C7103401C07FF1FF8B572B106460F463E
:1030F00014460025336817F8011B1B6830469847B3
:10310000013C0544F6D12846F8BD1546FBE700BF53
:1031100000B5064A036812885B6883B001A9ADF860
:1031200004200222984703B05DF804FB484E0000DB
:10313000F0B507468BB0002A33D0012A08BF0A2217
:1031400051B3212400E0F4B2B1FBF2F502FB1511FA
:10315000C8B2092900F1300198BFC8B20AA988BFD6
:103160003730214488BFC0B201F8240C661E2946BE
:10317000002DE8D133B1013CE4B20AAB23442D2247
:1031800003F8242C3B6801AA11195B683846C4F186
:10319000220298470BB0F0BD30228DF82520212463
:1031A000E8E70368C9B21B6898470BB0F0BD00BFE1
:1031B0000029BABF49422D2300230A22FFF7B8BFD6
:1031C00008B5FDF75FF9FDF7FFF900F017F8FAE72A
:1031D000FFF7D4BDFFF7ACBDFFF786BDFFF7C0BD5D
:1031E000FFF79CBEFFF776BE08461146FFF7E2BD2B
:1031F0000846FFF763BE00BF704700BF38B52C4CD0
:10320000237803B138BD01232370FFF7A9FD0028FF
:1032100042D100F07BF800283BD100F00DF90028E6
:1032200034D100F09FF970BB00F018FA40BB00F0F9
:1032300091FA10BB00F00AFBE0B900232370EFF312
:103240000583002BDED1EFF3108172B6194B18689D
:1032500028B3194C227812BB45691D6001232370E5
:103260000DB3AA6101B962B6002545778368984716
:103270002570C7E700F0A8FCDFE700F0A3FCD9E762
:1032800000F09EFCD3E700F099FCCDE700F094FC41
:10329000C7E700F08FFCC0E7FFF7AEFFB9E70029F2
:1032A000B0D162B638BD054B1D600029DCD1DAE72C
:1032B0008D11FF1FA014FF1FA414FF1F9C14FF1FDC
:1032C000F0B44D1E2E46002400E00134B0FBF2F3B2
:1032D00002FB1300092800F130078ABF3730F8B22B
:1032E000C0B206F8010F1846002BEED10A19537030
:1032F0004CB1107815F8016F28700133E01A834241
:1033000002F80169F5DB0846F0BC7047054A064B38
:1033100010781B78C0B2DBB2984238BF4030C01A78
:10332000704700BF9411FF1F9511FF1FF0B4384B79
:103330001A7912F0300F2CD072B6997D01F0FF028D
:1033400000293DD062B6334F334938780D78334E7B
:103350001C46C0B2EDB2431C402BE17928BF0023CC
:10336000AB4202F1FF32C9B21CBFF154184612F051
:10337000FF02F0D12A4B1B68C2B23A704BB1A8428F
:1033800036BFC5F14005401B40192728C4BF0122A4
:103390001A701F49CA78D2B2150616D452060DD536
:1033A0001B4B1B795B0609D51E4B1F491B6800226E
:1033B0000A7003B11A70164B3C22DA70F0BC7047E9
:1033C0004022D9795A7462B6E3E70B791C06E5D539
:1033D000164B174E1C783378E4B2DBB29C420ED009
:1033E000144D01E0A3420AD00133402B28BF002333
:1033F0000879E85CC0B2C871087D0728F2D9DBB251
:10340000034933700B79180644BF7C23CB70C5E7A2
:1034100000A006409411FF1F9511FF1FD811FF1F38
:103420009011FF1F1C12FF1F1812FF1F2012FF1FF9
:103430001912FF1F9811FF1F054A064B10781B78C1
:10344000C0B2DBB2984238BF4030C01A704700BFEC
:103450009412FF1F2912FF1FF0B4384B1A7912F093
:10346000300F2CD072B6997D01F0FF0200293DD0BB
:1034700062B6334F334938780D78334E1C46C0B2AC
:10348000EDB2431C402BE17928BF0023AB4202F18F
:10349000FF32C9B21CBFF154184612F0FF02F0D13E
:1034A0002A4B1B68C2B23A704BB1A84236BFC5F175
:1034B0004005401B40192728C4BF01221A701F492C
:1034C000CA78D2B2150616D452060DD51B4B1B79FD
:1034D0005B0609D51E4B1F491B6800220A7003B109
:1034E0001A70164B3C22DA70F0BC70474022D97932
:1034F0005A7462B6E3E70B791C06E5D5164B174EF6
:103500001C783378E4B2DBB29C420ED0144D01E05B
:10351000A3420AD00133282B28BF00230879E85C96
:10352000C0B2C871087D0728F2D9DBB203493370F5
:103530000B79180644BF7C23CB70C5E700B006406A
:103540009412FF1F2912FF1F5412FF1F2412FF1F86
:103550009812FF1F2812FF1F9C12FF1F9512FF1FBA
:103560002C12FF1F054A064B10781B78C0B2DBB245
:10357000984238BF4030C01A704700BFA412FF1FE6
:10358000A512FF1F30B42B4B1A7994061FD52A4879
:10359000DA790378294901333F2B0978C8BF002322
:1035A0008B42D2B203D0264CD9B2E2540170254AE4
:1035B000116861B1244A1278D2B2934236BFC2F187
:1035C00040029B1A9B18272BC4BF01230B70194A7A
:1035D000D378DBB2180611D45A060DD5154B1B79DA
:1035E0005B0609D5194B1A491B6800220A7003B102
:1035F0001A70104B2C22DA7030BC70471179090612
:10360000EAD5144910480C780178C9B28C420DD023
:103610004A1C272A84BF00210A460F4D054C98BF3B
:10362000D1B2AA5CD2B2E2710170D5E76C21D1703F
:10363000D2E700BF00C00640A412FF1FA512FF1F63
:10364000D012FF1FA012FF1F1113FF1F1413FF1F23
:103650001013FF1F1813FF1FA812FF1F054A064B68
:1036600010781B78C0B2DBB2984238BF4030C01A25
:10367000704700BF2013FF1F2113FF1F30B42B4BD7
:103680001A7994061FD52A48DA7903782949013333
:103690003F2B0978C8BF00238B42D2B203D0264CFF
:1036A000D9B2E2540170254A116861B1244A1278F6
:1036B000D2B2934236BFC2F140029B1A9B18272B0D
:1036C000C4BF01230B70194AD378DBB2180611D49A
:1036D0005A060DD5154B1B795B0609D5194B1A49AE
:1036E0001B6800220A7003B11A70104B2C22DA708A
:1036F00030BC704711790906EAD5144910480C7896
:103700000178C9B28C420DD04A1C272A84BF0021FF
:103710000A460F4D054C98BFD1B2AA5CD2B2E271F5
:103720000170D5E76C21D170D2E700BF00D0064010
:103730002013FF1F2113FF1F4C13FF1F1C13FF1F1C
:103740008D13FF1F9013FF1F8C13FF1F9413FF1F78
:103750002413FF1F054A064B10781B78C0B2DBB25A
:10376000984238BF4030C01A704700BF9C13FF1FFB
:103770009D13FF1F30B42B4B1A7994061FD52A488E
:10378000DA790378294901333F2B0978C8BF002330
:103790008B42D2B203D0264CD9B2E2540170254AF2
:1037A000116861B1244A1278D2B2934236BFC2F195
:1037B00040029B1A9B18272BC4BF01230B70194A88
:1037C000D378DBB2180611D45A060DD5154B1B79E8
:1037D0005B0609D5194B1A491B6800220A7003B110
:1037E0001A70104B2C22DA7030BC70471179090620
:1037F000EAD5144910480C780178C9B28C420DD032
:103800004A1C272A84BF00210A460F4D054C98BF49
:10381000D1B2AA5CD2B2E2710170D5E76C21D1704D
:10382000D2E700BF00A00E409C13FF1F9D13FF1F97
:10383000C813FF1F9813FF1F0914FF1F0C14FF1F4D
:103840000814FF1F1014FF1FA013FF1F054A064B8B
:1038500010781B78C0B2DBB2984238BF4030C01A33
:10386000704700BF1814FF1F1914FF1F30B42B4BF3
:103870001A7994061FD52A48DA7903782949013341
:103880003F2B0978C8BF00238B42D2B203D0264C0D
:10389000D9B2E2540170254A116861B1244A127804
:1038A000D2B2934236BFC2F140029B1A9B18272B1B
:1038B000C4BF01230B70194AD378DBB2180611D4A8
:1038C0005A060DD5154B1B795B0609D5194B1A49BC
:1038D0001B6800220A7003B11A70104B2C22DA7098
:1038E00030BC704711790906EAD5144910480C78A4
:1038F0000178C9B28C420DD04A1C272A84BF00210E
:103900000A460F4D054C98BFD1B2AA5CD2B2E27103
:103910000170D5E76C21D170D2E700BF00B00E4036
:103920001814FF1F1914FF1F4414FF1F1414FF1F46
:103930008514FF1F8814FF1F8414FF1F8C14FF1FA2
:103940001C14FF1F72B6184A184B194911607022D7
:1039500080211A701A46197013781B06FCD510B511
:10396000144B84B0186862B6134B144C984298BF3D
:1039700000EB800001A998BF40000A22FFF7A0FCDD
:1039800001A92046002311F8012B01333AB10A2B7B
:1039900020F8022FF7D11623237004B010BD5B006E
:1039A000DBB2237004B010BD0400024000000240EE
:1039B000000007410C0002407F969800C807FF1FD7
:1039C00010B4EFF3108272B6437F33B9017F01293F
:1039D00008D0032910D00123437702B962B65DF8FD
:1039E000044B7047114C2168A1B1114943610B6828
:1039F000836108605861EEE70E4C216881B10E4981
:103A000043610B688361086058610C4B4FF0805133
:103A10001960E0E7064B4161816120601860DAE7D8
:103A2000054B4161816120601860EEE7A014FF1F23
:103A30009C14FF1F9014FF1F9414FF1F04ED00E05F
:103A400010B4047F4160022CC26003D05DF8044BC7
:103A5000FFF7B6BF83685DF8044B184770B5EFF306
:103A6000108272B60C4C206880B10C4E0025436960
:103A7000236073B19D6102B962B645778368984748
:103A8000EFF3108272B620680028F0D102B962B656
:103A900070BD3360EFE700BF9014FF1F9414FF1F49
:103AA000FFF7DCBF184A30B41468002C27D0036835
:103AB00021688B420ED2CB1A00218460C160236042
:103AC000E06010600223037530BC704711688B42C0
:103AD000144608D3A2685B1A0360002AF6D18260FC
:103AE000C460A060EEE7D268C2608460E060C56830
:103AF000CB1A0222A8602360027530BC7047846034
:103B0000C4601060DEE700BF9814FF1FF8B5224EB6
:103B100034682CB32368002B3AD1204F1D4604E0B3
:103B20003468ECB12368002B32D1A36803B1DD60A7
:103B300020693360036825751B68BB4221D1037F70
:103B40004560022BC46020D0FFF73AFF6368002B6A
:103B5000E6D023602046FFF7A5FF3468002CE1D1B2
:103B6000EFF3108372B60E4A00211068116003B99A
:103B700062B628B18468FFF795FF20460028F9D186
:103B8000F8BD224600219847E0E783689847DDE7C3
:103B9000013B2360E4E700BF9814FF1F413A000097
:103BA000A814FF1F024A136801331360FFF7AEBF6A
:103BB0009010FF1F704700BF704700BF704700BFE5
:103BC000704700BF704700BF704700BF0B460146FB
:103BD000184600F039B800BF024B0A460146186883
:103BE00000F002B8080CFF1F10B502FB01F100F055
:103BF00067F80446D8B150F8042C22F00302043AC6
:103C0000242A18D8132A14D900231B2A03604360DE
:103C100016D9242A8360C36011BF00F1100203612A
:103C2000436100F118020023136053609360204643
:103C300010BD0246F7E7002100F0FAFA204610BD59
:103C400000F10802EFE700BF13460A4601460220D2
:103C500000F052BB014B1868704700BF080CFF1FF3
:103C600070B50F4E0F4D761BB61018BF002405D04F
:103C7000013455F8043B9847A642F9D10A4E0B4D42
:103C8000761B01F025F9B61018BF002406D00134C8
:103C900055F8043B9847A642F9D170BD70BD00BFEE
:103CA000DC4E0000DC4E0000E84E0000DC4E000060
:103CB000024B0146186800F003B800BF080CFF1F54
:103CC0002DE9F04F01F10B05162D83B0064640F2A9
:103CD0009F8035F0070500F1BF80A94200F2BC804B
:103CE00000F0F4FAB5F5FC7FC0F09C826B0A00F09E
:103CF000BA80042B00F28381A80900F1390E4FEA43
:103D00004E033830C44F07EB8303A3F108015C680E
:103D1000A14207D1ACE0002A80F2AC80E468A14265
:103D200000F0A680636823F003035A1B0F2AF2DD1C
:103D3000B9493C6901F1080E744500F0B38163682C
:103D400023F003035A1B0F2A00F39981002AC1F8BC
:103D500014E0C1F810E080F29E80B3F5007F80F09F
:103D60006781DB0803F1010C01229B1002FA03F3C7
:103D70004A6851F83C80C4F8088001EBCC091A432A
:103D8000A9F10803E3604A6041F83C40C8F80C40E0
:103D9000831001249C40944200F28A80144206D190
:103DA00020F003006400144200F10400FAD007EB95
:103DB000C009CC468046DCF80C108C4507D173E175
:103DC000002A80F28181C9688C4500F06D814B68C2
:103DD00023F003035A1B0F2AF2DD0C46D1F80CC066
:103DE00054F8088F4B1945F001054D6042F0010170
:103DF000C8F80CC03046CCF808807B613B61C3F842
:103E00000CE0C3F808E059609A5000F061FA1FE036
:103E1000102921D800F05AFA1025062302207E4FDF
:103E200007EB8303A3F108025C68944200F045812C
:103E30006368E168A56823F00303234430465A68A9
:103E4000E96042F001028D605A6000F041FA0834E6
:103E5000204603B0BDE8F08F00240C2320463360D9
:103E600003B0BDE8F08F80234FF0400E3F2049E7BC
:103E700070465DE72344E1685A68A56842F0010294
:103E8000E96030468D605A6000F022FA083420461E
:103E900003B0BDE8F08F234430465A6842F0010277
:103EA0005A6000F015FA0834204603B0BDE8F08FE0
:103EB000BC68636823F00308A84504D3C5EB080376
:103EC0000F2B00F38C80554BDFF860911A68D9F8FE
:103ED000003001332A4404EB080A00F0608102F547
:103EE00080520F3222F47F6222F00F0211463046D8
:103EF000019200F0EFF9B0F1FF3F8346019A00F024
:103F00005881824500F2FC80454B1968DA4511441E
:103F1000196000F05381D9F80000DFF810E101309A
:103F20001BBFCAEB0B0A5144CEF800B019601BF05E
:103F3000070100F01781C1F10800C1F580518344E9
:103F400008315A44C2F30B02C2EB0109494630461C
:103F5000019300F0BFF9431C019B00F03F81CBEBC4
:103F600000024A4442F001021968C7F808B0494407
:103F7000BC42CBF804201960DFF8A49016D0B8F149
:103F80000F0F40F2FD806268A8F10C0323F00703D5
:103F9000E01802F001024FF0050E1A430F2B626089
:103FA000C0F804E0C0F808E000F21C811D4BBC68BA
:103FB0001A68914288BF19601B4B1A689142626867
:103FC00088BF196022F003029542A2EB050301D8D5
:103FD0000F2B04DC304600F07BF9002438E762192F
:103FE00043F0010345F0010565603046BA60536057
:103FF00000F06EF90834204603B0BDE8F08F142BB2
:1040000071D9542B00F2A480280B00F16F0E4FEAF7
:104010004E036E3076E600BF0C0CFF1FB414FF1F7A
:10402000B814FF1FB014FF1FAC14FF1F1810FF1FA0
:104030005A0A042A5ED9142A00F2B38002F15C0104
:1040400049005B3207EB810C57F82110DFF8DC8167
:10405000ACF1080C8C4500F088804A6822F003021D
:10406000934202D289688C45F7D1D1F80CC07A68A6
:10407000C4F80CC0A160CCF80840CC6088E6631995
:1040800042F0010745F00105656030464B610B6168
:10409000C3F80CE0C3F808E05F609A50083400F001
:1040A00017F9D5E64A6873E608F1010818F0030F1E
:1040B0000CF1080C7FF47FAE30E0DC68A34208BF4F
:1040C00002303FF435AEB3E60B440C465A68C9687B
:1040D00054F8085F42F001025A603046E9608D6092
:1040E00000F0F6F8B4E603F15C0E03F15B004FEA72
:1040F0004E0307E69A0902F1390149003832A1E777
:10410000BC424A4B3FF400AF9C68626822F0030255
:104110005AE759F80839994540F0828010F0030FAA
:1041200000F1FF30F5D17B6823EA04037B60640073
:104130009C423FF6BDAE002C3FF4BAAE1C42404656
:104140007FF435AE64001C4200F10400FAD02EE684
:10415000B3F5AA7F18D8E80B00F1780E4FEA4E03AA
:104160007730CFE54FF48051EBE60121D8F80430E9
:10417000921001FA02F21A43C8F80420614677E768
:104180000123CBF8043025E740F25452934220D863
:10419000A80C00F17D0E4FEA4E037C30B2E51032E0
:1041A000A4E6542A26D81A0B02F16F0149006E3298
:1041B00048E7BC68626822F0030205E7CAF30B0017
:1041C00000287FF4A8AE4244BB6842F001025A6066
:1041D000ECE6FE234FF07F0E7E2093E501224FF0A8
:1041E0000009C1E604F10801304600F049F9D9F8A8
:1041F0000010DBE6B2F5AA7F05D8DA0B02F17801F0
:10420000490077321EE740F254518A4205D89A0C91
:1042100002F17D0149007C3214E7FE217E2211E784
:104220007B6884E7E808431C5B00F8E50C0CFF1F83
:1042300070B4840746D0541E002A41D0CDB2034644
:1042400002E0621EE4B3144603F8015B9A07F8D15A
:10425000032C2ED9CDB245EA05250F2C45EA05459C
:1042600019D903F110022646103E0F2E42F8105CB9
:1042700042F80C5C42F8085C42F8045C02F110025F
:10428000F2D8A4F1100222F00F0204F00F04103251
:10429000032C13440DD91E462246043A032A46F83D
:1042A000045BFAD8221F22F003020432134404F004
:1042B00003042CB1C9B21C4403F8011BA342FBD177
:1042C00070BC704714460346C2E700BF704700BF8A
:1042D000704700BF38B5074C0023054608462360E9
:1042E000FDF7F6FD431C00D038BD2368002BFBD042
:1042F0002B6038BDF414FF1F2DE9F047254C2568CD
:10430000D5F848410646884692469946C4B3606847
:104310001F2817DC431C76B104EB80050122C5F889
:1043200088A0D4F8881182401143022EC4F8881165
:10433000C5F808911ED00230636044F82080002048
:10434000BDE8F087144B03B34FF4C870FFF7B0FC1F
:104350000446D0B1D5F84831002780E88800C5F878
:10436000484138460123C4F88871C4F88C71002E86
:10437000E1D0D1E7D4F88C110A43C4F88C21DAE7F4
:1043800005F5A674C5F84841C1E74FF0FF30BDE818
:10439000F08700BFCC4E0000B13C0000024B13B1CF
:1043A000024800F005B8704700000000BD4300005F
:1043B000002301461A461846FFF79EBF38B5074D41
:1043C000074C2C1BA41005D0013C55F8043D984720
:1043D000002CF9D1BDE8384000F086BD0000000097
:1043E00000000000F8B5234F0C460646FFF76EFFAD
:1043F000BB685D6825F00305291B01F6EF7121F408
:104400007F6121F00F01A1F58054B4F5805F07DBD7
:1044100000213046FFF75EFFBB682B44984204D072
:104420003046FFF755FF0020F8BD61423046FFF7E8
:1044300051FF01300DD0104BBA6819682D1B45F0A3
:1044400001053046091B55601960FFF741FF012047
:10445000F8BD00213046FFF73DFFBA68831A0F2BE5
:10446000DEDD064C0449246843F00103001B536061
:104470000860D5E70C0CFF1FB814FF1F1810FF1FB2
:10448000002945D02DE9F0410D468046FFF71EFF7B
:1044900055F8047C6A4927F00103A5F10804E218E5
:1044A0008E685068B24220F0030062D0FE07506070
:1044B0000BD455F8087CE41B01F1080EA56875457E
:1044C0003B446FD0E768EF60BD6015186D68ED077D
:1044D00042D543F001026260E350B3F5007F18D289
:1044E000DB085A1C4D6851F83270A76001209B1000
:1044F00000FA03F301EBC2001D430838E0604D6091
:1045000041F83240FC604046BDE8F041FFF7E0BEB4
:1045100070475A0A042A53D89A0902F139077F00D2
:1045200002F1380501EB870051F82720444908388B
:1045300090424DD0516821F003018B4202D2926823
:104540009042F7D1D068E060A2608460D4604046B9
:10455000BDE8F041FFF7BCBE95683A4FBD42034449
:104560003FD0D068E86043F0010285606260E350AC
:10457000B3E7FF07034407D455F8082CA41A1344E3
:10458000A068E268C26090602F4A126843F00100A0
:10459000934260608C60B6D32C4B40461968FFF79D
:1045A00021FFB0E711184968C90744D49168D2685F
:1045B000CA60034443F0010091606060E350A2E7E9
:1045C000142A17D802F15C077F0002F15B05A9E706
:1045D000AA104B68012505FA02F213434B6002460C
:1045E000B1E743F001024C610C61E560A5606260D7
:1045F000E35088E7542A06D81A0B02F16F077F00B0
:1046000002F16E058EE7B2F5AA7F06D8DA0B02F149
:1046100078077F0002F1770584E740F25450824228
:1046200006D89A0C02F17D077F0002F17C0579E73C
:10463000FE277E2576E743F001026260E35062E7E1
:104640000C0CFF1F140CFF1F1410FF1FB414FF1FCE
:104650000000000000000000B50F0000E93000007D
:104660007508000079080000FD1E0000B109000077
:104670006109000099090000710900008509000026
:104680007D080000B1090000D9090000D50900002B
:10469000FD090000550A0000A90A0000B509000044
:1046A0000D0B0000AD0B000000000000003E5B4F52
:1046B0005B3E3E6B4F6B3E1C3E7C3E1C183C7E3C82
:1046C000181C577D571C1C5E7F5E1C00183C180090
:1046D000FFE7C3E7FF0018241800FFE7DBE7FF3020
:1046E000483A060E2629792926407F050507407F8E
:1046F00005253F5A3CE73C5A7F3E1C1C08081C1C01
:104700003E7F14227F22145F5F005F5F06097F01F6
:104710007F006689956A606060606094A2FFA294E1
:1047200008047E040810207E201008082A1C0808AF
:104730001C2A08081E101010100C1E0C1E0C3038FD
:104740003E3830060E3E0E06000000000000005FFE
:1047500000000007000700147F147F14242A7F2A1A
:1047600012231308646236495620500008070300DC
:10477000001C2241000041221C002A1C7F1C2A0828
:10478000083E08080080703000080808080800008B
:1047900060600020100804023E5149453E00427FFF
:1047A000400072494949462141494D331814127F4E
:1047B0001027454545393C4A4949314121110907EE
:1047C0003649494936464949291E0000140000006F
:1047D0004034000000081422411414141414004141
:1047E00022140802015909063E415D594E7C1211FE
:1047F000127C7F494949363E414141227F41414136
:104800003E7F494949417F090909013E41415173B0
:104810007F0808087F00417F41002040413F017F21
:10482000081422417F404040407F021C027F7F04E9
:1048300008107F3E4141413E7F090909063E415132
:10484000215E7F09192946264949493203017F0122
:10485000033F4040403F1F2040201F3F4038403F23
:10486000631408146303047804036159494D430039
:104870007F4141410204081020004141417F040270
:104880000102044040404040000307080020545407
:1048900078407F28444438384444442838444428E5
:1048A0007F385454541800087E090218A4A49C7838
:1048B0007F0804047800447D40002040403D007F94
:1048C0001028440000417F40007C047804787C0874
:1048D0000404783844444438FC1824241818242448
:1048E00018FC7C08040408485454542404043F442D
:1048F000243C4040207C1C2040201C3C4030403C5C
:1049000044281028444C9090907C4464544C4400BB
:10491000083641000000770000004136080002011F
:104920000204023C2623263C1EA1A161123A40400B
:10493000207A385454555921555579412254547888
:1049400042215554784020545579400C1E52721221
:1049500039555555593954545459395554545800AA
:1049600000457C410002457D420001457C407D12AE
:1049700011127DF0282528F07C5455450020545410
:104980007C547C0A097F4932494949323A444444BB
:104990003A324A4848303A4141217A3A42402078F6
:1049A000009DA0A07D3D4242423D3D4040403D3CF7
:1049B00024FF2424487E4943662B2FFC2F2BFF091C
:1049C00029F620C0887E0903205454794100004410
:1049D0007D413048484A32384040227A007A0A0AFB
:1049E000727D0D19317D2629292F2826292929266E
:1049F00030484D4020380808080808080808382FB3
:104A000010C8ACBA2F102834FA00007B000008143C
:104A10002A142222142A14085500550055AA55AA12
:104A200055AAFF55FF55FF000000FF00101010FFB2
:104A300000141414FF001010FF00FF1010F010F00D
:104A4000141414FC001414F700FF0000FF00FF14FE
:104A500014F404FC141417101F10101F101F14144A
:104A6000141F00101010F0000000001F1010101094
:104A70001F10101010F010000000FF101010101088
:104A800010101010FF10000000FF140000FF00FFC6
:104A900000001F10170000FC04F414141710171462
:104AA00014F404F40000FF00F71414141414141484
:104AB000F700F7141414171410101F101F141414F7
:104AC000F4141010F010F000001F101F0000001F61
:104AD00014000000FC140000F010F01010FF10FF94
:104AE000141414FF141010101F00000000F010FF29
:104AF000FFFFFFFFF0F0F0F0F0FFFFFF000000000D
:104B000000FFFF0F0F0F0F0F3844443844FC4A4A90
:104B10004A347E02020606027E027E026355494145
:104B2000633844443C04407E201E2006027E02027C
:104B300099A5E7A5991C2A492A1C4C7201724C3090
:104B40004A4D4D303048784830BC625A463D3E4967
:104B50004949007E0101017E2A2A2A2A2A44445F0B
:104B6000444440514A444040444A51400000FF01FF
:104B700003E080FF000008086B6B0836123624360D
:104B8000060F090F06000018180000001010003072
:104B900040FF0101001F01011E00191D1712003CFA
:104BA0003C3C3C0000000000000000000000000051
:104BB000B50F0000E930000075080000790800001A
:104BC00059160000B10900006109000099090000B0
:104BD00071090000850900007D080000B10900008E
:104BE000D9090000D5090000FD090000550A0000A0
:104BF000A90A0000191B00000D0B0000AD0B0000FE
:104C0000050E08090D0C06070F0403938E8F050E81
:104C100008090D0C06070F04FFFFFFFFFFFFFF8EC3
:104C20008F11128485868791FFFFFFFFFFFFFFFF33
:104C3000FF8A8BFFFFFFFFFFFFFFFFFFFFFFFFFF6D
:104C40000393179701811A924008FE4340A0044045
:104C50004408FE4344A004400018FE4300C0044042
:104C60003000FE43309004403400FE433490044052
:104C70001C18FE431CC004401018FE4310C0044022
:104C80000818FE4308C004400C18FE430CC0044042
:104C90000C10FE430CB004401010FE4310B0044052
:104CA0001810FE4318B004401C10FE431CB0044012
:104CB0001410FE4314B004400418FE4304C0044022
:104CC0000010FE4300B004400008FE4300A0044072
:104CD0000408FE4304A004400C08FE430CA004405A
:104CE0000808FE4308A004401418FE4314C0044002
:104CF0001818FE4318C004400410FE4304B00440DA
:104D00000810FE4308B004406820FE4368D0044009
:104D10001400FE43149004403800FE4338900440D1
:104D20003C00FE433C9004404000FE434090044061
:104D30004808FE4348A004404C08FE434CA00440F1
:104D40002808FE4328A004402C08FE432CA0044061
:104D50006020FE4360D004406420FE4364D00440E1
:104D60002010FE4320B004402410FE4324B0044031
:104D70002810FE4328B004402C10FE432CB0044001
:104D80004400FE43449004407000FE437090044091
:104D90007400FE43749004406800FE436890044031
:104DA0005008FE4350A004405808FE4358A0044059
:104DB0005C08FE435CA004405408FE4354A0044039
:104DC0002018FE4320C004402418FE4324C00440A1
:104DD0001008FE4310A004401408FE4314A0044031
:104DE0003818FE4338C004403418FE4334C0044031
:104DF0003018FE4330C004403C18FE433CC0044021
:104E00002C18FE432CC004402820FE4328D0044028
:104E10002C20FE432CD004400020FE4300D0044050
:104E20000420FE4304D004400820FE4308D0044080
:104E30000C20FE430CD004401020FE4310D0044050
:104E40001420FE4314D004400D0AFFFF00000000B0
:104E500000000000F1310000E9310000E531000000
:104E6000E1310000DD310000D9310000D531000012
:104E7000D131000000151915000100003C07FF1F8B
:104E800012000000000200006807FF1F430000003E
:104E900000030000C407FF1F000000000103090415
:104EA0005007FF1F0000000002030904AC07FF1FAA
:104EB0000000000003030904C807FF1F00000000F2
:104EC000000000000000000000000000E007FF1FDD
:104ED000F8B500BFF8BC08BC9E4670479D43000073
:084EE000350400004D0800003C
:044EE800F8B500BF5A
:104EEC000000000080000000800000008000000036
:104EFC00800000000707010A04000000F814FF1FDF
:104F0C00FFFFFFFFBD2F0000BD2F0000BD2F0000D5
:104F1C00BD2F0000544E000000000000E80300000C
:104F2C00000000001201010102000040C0168304C1
:104F3C000002010203010000180354006500650023
:104F4C006E00730079006400750069006E006F00DC
:104F5C0009024300020100C03209040000010202F0
:104F6C00010005240010010524010101042402069E
:104F7C000524060001070582031000400904010006
:104F8C00020A000000070503024000000705840226
:104F9C00400000001603550053004200200053004F
:104FAC0065007200690061006C00000004030904D4
:104FBC000C030000000000000000000000000000D6
:104FCC00000000000000000000000000CC0AFF1FE1
:104FDC00340BFF1F9C0BFF1F0000000000000000A3
:104FEC0000000000000000000000000000000000B5
:104FFC0000000000000000000000000000000000A5
:10500C000000000000000000000000000000000094
:10501C000000000000000000000000000000000084
:10502C000000000000000000000000000000000074
:10503C000000000000000000000000000000000064
:10504C000000000000000000000000000000000054
:10505C000000000000000000000000000000000044
:10506C000000000000000000000000000000000034
:10507C0001000000000000000E33CDAB34126DE6D1
:10508C00ECDE05000B00000000000000000000003A
:10509C000000000000000000000000000000000004
:1050AC0000000000000000000000000000000000F4
:1050BC0000000000000000000000000000000000E4
:1050CC0000000000000000000000000000000000D4
:1053FC00E007FF1F00000000000000000C0CFF1F66
:10540C000C0CFF1F140CFF1F140CFF1F1C0CFF1F98
:10541C001C0CFF1F240CFF1F240CFF1F2C0CFF1F48
:10542C002C0CFF1F340CFF1F340CFF1F3C0CFF1FF8
:10543C003C0CFF1F440CFF1F440CFF1F4C0CFF1FA8
:10544C004C0CFF1F540CFF1F540CFF1F5C0CFF1F58
:10545C005C0CFF1F640CFF1F640CFF1F6C0CFF1F08
:10546C006C0CFF1F740CFF1F740CFF1F7C0CFF1FB8
:10547C007C0CFF1F840CFF1F840CFF1F8C0CFF1F68
:10548C008C0CFF1F940CFF1F940CFF1F9C0CFF1F18
:10549C009C0CFF1FA40CFF1FA40CFF1FAC0CFF1FC8
:1054AC00AC0CFF1FB40CFF1FB40CFF1FBC0CFF1F78
:1054BC00BC0CFF1FC40CFF1FC40CFF1FCC0CFF1F28
:1054CC00CC0CFF1FD40CFF1FD40CFF1FDC0CFF1FD8
:1054DC00DC0CFF1FE40CFF1FE40CFF1FEC0CFF1F88
:1054EC00EC0CFF1FF40CFF1FF40CFF1FFC0CFF1F38
:1054FC00FC0CFF1F040DFF1F040DFF1F0C0DFF1FE5
:10550C000C0DFF1F140DFF1F140DFF1F1C0DFF1F93
:10551C001C0DFF1F240DFF1F240DFF1F2C0DFF1F43
:10552C002C0DFF1F340DFF1F340DFF1F3C0DFF1FF3
:10553C003C0DFF1F440DFF1F440DFF1F4C0DFF1FA3
:10554C004C0DFF1F540DFF1F540DFF1F5C0DFF1F53
:10555C005C0DFF1F640DFF1F640DFF1F6C0DFF1F03
:10556C006C0DFF1F740DFF1F740DFF1F7C0DFF1FB3
:10557C007C0DFF1F840DFF1F840DFF1F8C0DFF1F63
:10558C008C0DFF1F940DFF1F940DFF1F9C0DFF1F13
:10559C009C0DFF1FA40DFF1FA40DFF1FAC0DFF1FC3
:1055AC00AC0DFF1FB40DFF1FB40DFF1FBC0DFF1F73
:1055BC00BC0DFF1FC40DFF1FC40DFF1FCC0DFF1F23
:1055CC00CC0DFF1FD40DFF1FD40DFF1FDC0DFF1FD3
:1055DC00DC0DFF1FE40DFF1FE40DFF1FEC0DFF1F83
:1055EC00EC0DFF1FF40DFF1FF40DFF1FFC0DFF1F33
:1055FC00FC0DFF1F040EFF1F040EFF1F0C0EFF1FE0
:10560C000C0EFF1F140EFF1F140EFF1F1C0EFF1F8E
:10561C001C0EFF1F240EFF1F240EFF1F2C0EFF1F3E
:10562C002C0EFF1F340EFF1F340EFF1F3C0EFF1FEE
:10563C003C0EFF1F440EFF1F440EFF1F4C0EFF1F9E
:10564C004C0EFF1F540EFF1F540EFF1F5C0EFF1F4E
:10565C005C0EFF1F640EFF1F640EFF1F6C0EFF1FFE
:10566C006C0EFF1F740EFF1F740EFF1F7C0EFF1FAE
:10567C007C0EFF1F840EFF1F840EFF1F8C0EFF1F5E
:10568C008C0EFF1F940EFF1F940EFF1F9C0EFF1F0E
:10569C009C0EFF1FA40EFF1FA40EFF1FAC0EFF1FBE
:1056AC00AC0EFF1FB40EFF1FB40EFF1FBC0EFF1F6E
:1056BC00BC0EFF1FC40EFF1FC40EFF1FCC0EFF1F1E
:1056CC00CC0EFF1FD40EFF1FD40EFF1FDC0EFF1FCE
:1056DC00DC0EFF1FE40EFF1FE40EFF1FEC0EFF1F7E
:1056EC00EC0EFF1FF40EFF1FF40EFF1FFC0EFF1F2E
:1056FC00FC0EFF1F040FFF1F040FFF1F0C0FFF1FDB
:10570C000C0FFF1F140FFF1F140FFF1F1C0FFF1F89
:10571C001C0FFF1F240FFF1F240FFF1F2C0FFF1F39
:10572C002C0FFF1F340FFF1F340FFF1F3C0FFF1FE9
:10573C003C0FFF1F440FFF1F440FFF1F4C0FFF1F99
:10574C004C0FFF1F540FFF1F540FFF1F5C0FFF1F49
:10575C005C0FFF1F640FFF1F640FFF1F6C0FFF1FF9
:10576C006C0FFF1F740FFF1F740FFF1F7C0FFF1FA9
:10577C007C0FFF1F840FFF1F840FFF1F8C0FFF1F59
:10578C008C0FFF1F940FFF1F940FFF1F9C0FFF1F09
:10579C009C0FFF1FA40FFF1FA40FFF1FAC0FFF1FB9
:1057AC00AC0FFF1FB40FFF1FB40FFF1FBC0FFF1F69
:1057BC00BC0FFF1FC40FFF1FC40FFF1FCC0FFF1F19
:1057CC00CC0FFF1FD40FFF1FD40FFF1FDC0FFF1FC9
:1057DC00DC0FFF1FE40FFF1FE40FFF1FEC0FFF1F79
:1057EC00EC0FFF1FF40FFF1FF40FFF1FFC0FFF1F29
:1057FC00FC0FFF1F0410FF1F0410FF1F000002000E
:04580C00FFFFFFFF9C
:00000001FF
