:1000000000800020BD010000391A0000F119000035
:10001000F1190000F1190000F1190000F1190000B8
:10002000F1190000F1190000F1190000391A00005F
:10003000391A0000F1190000391A0000E119000016
:10004000391A0000391A0000391A0000391A000064
:10005000391A0000391A0000391A0000391A000054
:10006000391A0000391A0000391A0000391A000044
:10007000391A0000391A0000391A0000391A000034
:10008000391A0000391A0000391A0000391A000024
:10009000391A0000391A0000391A0000391A000014
:1000A000391A0000391A0000391A0000391A000004
:1000B000391A0000391A0000391A0000391A0000F4
:1000C000391A0000391A0000391A0000391A0000E4
:1000D000391A0000391A0000391A0000391A0000D4
:1000E000391A0000391A0000391A0000391A0000C4
:1000F000391A0000712A0000391A00009D2B0000F7
:10010000391A0000C92C0000391A0000391A000001
:10011000391A0000391A0000391A0000391A000093
:10012000391A0000391A0000391A0000391A000083
:10013000391A0000391A0000391A0000391A000073
:10014000391A0000391A0000391A0000391A000063
:100150008D280000A1280000B5280000C928000053
:10016000391A0000C91D0000391A0000391A0000B0
:10017000391A0000391A0000391A0000391A000033
:10018000391A0000391A0000391A0000391A000023
:10019000391A0000391A0000391A0000391A000013
:1001A000391A0000391A0000391A0000391A000003
:1001B000391A0000391A0000391A0000564B4CF267
:1001C000205210B51A804DF628121A8000BF00BFC9
:1001D00001F036FC514B4FF010621A60504A9A60A1
:1001E000504ADA60504A136813F4807304D14F49BF
:1001F0000B604FF4A85313604D4B1A78110703D5C9
:100200001A7842F008021A704A4B4B492A221A7097
:100210004A4A4B4B8B4204D252F8040F43F8040B6A
:10022000F8E7484B484900228B4202D243F8042B9E
:10023000FAE74649464A002352F8230041F82300D2
:1002400001336F2BF8D1434B434A802103F8011B44
:100250009342FBD1414B3D4A1A60414B8A221A70AE
:10026000A3F5805324225A70A0221A709A7992071B
:10027000FCD59A79D406FCD43A4A937903F00C035E
:10028000082B384BF9D103221A7146225A719A79F8
:100290009006FCD5334A9179324B4906FBD5324A58
:1002A0004FF0827111600921516020221A709A79F1
:1002B00002F00C020C2AFAD12C4B2D4A1A602D4B5D
:1002C0002D4A1A6000225A60072243F8042C2B4A58
:1002D000C3F80C2D62B601F083FC144B1B68DA07DF
:1002E00005D5274801F008FC264B274A1A60274B02
:1002F0001B785B0609D5234C234B22689A4204D114
:100300001F4801F0F9FB0023236002F0DBFD01F040
:100310009DFB02F03FFBFEE70E20054030800440CD
:10032000823F04000100002B10D0034014D0034092
:1003300002D0074000E007403490FF1FD43F000088
:100340002087FF1F3490FF1F7C93FF1F0082FF1F39
:100350000000000000E400E05FE400E008ED00E0E1
:1003600000500640004006404480044004800440A1
:10037000C010050014E000E0BFD401000000202000
:100380007C2686591CE00340A5C3945A00F0074020
:10039000FFFFFFFFFFFFFFFFFFFFFFFFFFFFFFFF6D
:1003A000FFFFFFFFFFFFFFFFFFFFFFFFFFFFFFFF5D
:1003B000FFFFFFFFFFFFFFFFFFFFFFFFFFFFFFFF4D
:1003C000FFFFFFFFFFFFFFFFFFFFFFFFFFFFFFFF3D
:1003D000FFFFFFFFFFFFFFFFFFFFFFFFFFFFFFFF2D
:1003E000FFFFFFFFFFFFFFFFFFFFFFFFFFFFFFFF1D
:1003F000FFFFFFFFFFFFFFFFFFFFFFFFFFFFFFFF0D
:10040000FFFFFFFFFFFFFFFFFFFFFFFFDEF9FFFF23
:1004100010B5054C237833B9044B13B10448AFF33E
:1004200000800123237010BD3490FF1F00000000E6
:10043000D83F0000084B10B51BB108490848AFF37E
:1004400000800848036803B910BD074B002BFBD0A0
:10045000BDE81040184700BF000000003890FF1FA3
:10046000D83F00003490FF1F0000000010B5044B7F
:10047000044640F82C3B02F0F3F9204610BD00BFC3
:10048000F43D000010B502210F4C0C2001F054FB8C
:1004900002210B2001F050FB204600F0CBFF20464C
:1004A000012100F0D9FB2046002100F0DFFB0023F2
:1004B000204607211A4601F0D3F801462046BDE840
:1004C000104000F0CFBB00BF6090FF1F2DE9F04748
:1004D0000C2082B001F022FB30B9624B1A78002A5E
:1004E00000F0BD8007221A700B2001F017FB30B915
:1004F0005D4B1A78002A00F0B08007221A70142091
:1005000001F0F0F90028B8BF0730584A574FDFF81C
:1005100064A1DFF85491DFF84C81C31011201360FF
:1005200001F0E0F90028B8BF0730504AC31012208C
:10053000536001F0D7F90028B8BF07304B4AC31009
:100540001520936001F0CEF90028484BB8BF073062
:10055000C010D860002657F8043BDAF800108B4230
:100560006DD0632B77DC0A2BB4BF0E250825002342
:100570001A4619463E4801F073F834B20823224661
:100580000190009300211F23394800F051F92246C1
:100590002946374800F05CFB57F8041C344802F049
:1005A000F1F9002457F8041C02E00134082C46D06D
:1005B00041FA04F3D807F8D5072399F800202C480E
:1005C000002101F04DF8C4F11E052DB2B21C034606
:1005D000294612B2264800F0F9FD57F8041C2448B9
:1005E00041FA04F2D2074FF00703DED599F8002054
:1005F00098F8001001F034F8F21C034612B22946B4
:100600001B4800F0E3FD57F8041C194841FA04FEAA
:100610001EF0010F4FF007034FF00002C5D098F80D
:10062000001001F01DF8321D0346294612B2104891
:10063000013400F0CBFD082C57F8041CB8D1083663
:10064000B6B2202E4AF8041B85D1322002B0BDE894
:10065000F04701F077BA022589E71A704FE71A7060
:1006600042E700BF3487FF1F3587FF1F5090FF1FF1
:100670006090FF1F2487FF1F10B5064C20222046E4
:10068000002100F0BDFE2046034A0449BDE81040A9
:1006900002F0CEBB6090FF1F2087FF1F6D0400009B
:1006A00000207047704700BF2DE9F04F85B0994694
:1006B000BDF93870BDF83CA0BB1AC1EB090B002B8B
:1006C000B8BF5B42BBF1000FB8BFCBF1000B5B457D
:1006D0000D4616460093804648DC4D453A46334663
:1006E0004CDC194613460A46C5EB09019B1A89B230
:1006F000002B0CB2B8BF5B4204EBD474BE42ACBF5B
:100700004FF0FF3201224D45039102924FEA6404FB
:1007100029DC9BB201930DE0D8F800703F69B8471F
:10072000019BE41AA3B21CB20135002C2DB211DBDF
:10073000A94518DB009B5B452A4653463146404697
:10074000EADCD8F80020534617692946324640466D
:10075000B847E5E7029A1644039AA94502EB030459
:1007600036B224B2E6DA05B0BDE8F08F4A462B4631
:10077000B94635464D4517461E46B2DD3046294638
:100780003E464D4607468946AEE700BF2DE9F04795
:1007900082B00568BDF82C70BDF92890009704461A
:1007A000D5F81CA090460D461E46D04723680097FA
:1007B00009F1FF324244D3F81CA0294633462046B3
:1007C00012B2D04723680097D3F818A042464B4690
:1007D00029462046D04720680A97711E294485691A
:1007E00009B24B4642462046AC4602B0BDE8F0474F
:1007F000604700BF30B583B0013B1344BDF81850CB
:1008000004681BB28DE828000B466469A04703B05A
:1008100030BD00BF30B583B00468BDF818500092F9
:10082000013B0B4401951BB26469A04703B030BD86
:100830002DE9F0475F1882B0B942BDF92890BDF8A4
:100840002C800FDA0C46054692462B68CDF80080C6
:10085000214601349E6952464B46284624B2B04791
:10086000BC42F2DB02B0BDE8F08700BF10B582B039
:10087000B0F90C2001910168009200224C6AB0F995
:100880000A301146A04702B010BD00BF704700BF3C
:10089000F0B4002401264FF6FF75094F076004717C
:1008A000C475C48104824476C461867506768582E7
:1008B0004582C180028141818281F0BC704700BFC6
:1008C000BC3D00002DE9F04F91B082460691C06911
:1008D000BDF868100791BDF86C1004919DF87090F8
:1008E000002800F08380047A03C81B1BDBB201EBF5
:1008F000C303B9F1010FD9780B9193F905101E8844
:1009000093F802B00F9193F906306BD909B20991AF
:1009100019B20C910B99002954D092B20021D3182E
:100920000D9208910E930F460C468046BBF1000FC6
:1009300041D0BDF820200C9B03971FFA89F1D318F2
:1009400013FB01F304910E990A440D990B4412B262
:100950001BB20A920593002505E00135EBB2640055
:100960005B45E4B224D2039B2B445A0703D1731C8A
:1009700018F806409EB22306EFD5099B059AE918A0
:10098000BDF8103011FB03F1069B0FFA89FE1944E4
:10099000B9F1010F734609B2504616D0DAF800C01B
:1009A000079F0197CDF800E0DCF82470B847D4E742
:1009B000039F5F44FFB2089B0B9A01330893DBB29D
:1009C0009A42B3D811B0BDE8F08F0F9B069A9918E0
:1009D000DAF800300A9A1B6929441F4609B2079BBE
:1009E000B847BAE700210C91099193E7BAF90A10C8
:1009F000069CA142E6DDBAF90C109142E2DD062127
:100A000011FB09410029DDDD02EBC9010029D9DD17
:100A10009AF8191019B9AF2B84BF0133DBB24049E2
:100A2000BDF818000C9003EB8303CB180E9306233C
:100A300092B20A9300230D9209931FFA89FBCDF815
:100A40002090099B0D9D0998BDF92080052B1CBFA6
:100A50000E9AD75C0C9B2A4600FB0B3102F1080270
:100A600013FA80F308BF002709B292B21BB20591B6
:100A700006920B932C462E4603971BE0089B059984
:100A8000012B2AB2434650462CD0DAF800E0079FEB
:100A90000197CDF80080DEF82490C847039B5B08DF
:100AA00001340393069BA4B25D445E44A342ADB2FD
:100AB000B6B220D0039BD907E0D4079B049A0599CE
:100AC0009342504632B24346E8D0089F012F1DD0D2
:100AD000DAF800E0049F0197CDF80080DEF824905A
:100AE000C847DBE7DAF80020079BD2F810900B9993
:100AF00022B2C847D2E7099A0A9B0132013B52B29F
:100B000013F0FF0309920A939BD15BE7DAF8002008
:100B1000049BD2F810900B9922B2C847BEE700BFE1
:100B2000B4380000F0B5C36985B0044633B30A2970
:100B300069D00D294BD01A7A914248D3587A88420D
:100B400045D38A1A5D68D2B205EBC205AA78002A9D
:100B500050D0E87800284DD0207E00283AD095F972
:100B600005E0B4F90E00A67DB4F90A70724406FBE4
:100B70000202BA4262DAB4F9102030E00A2956D0F3
:100B80000D2924D0027E002A4BD0B0F90E00A57D9D
:100B9000B4F90A60062212FB0502B2423EDB228A49
:100BA000E38102EBC50212B218462282A78A668A46
:100BB00002950B468DE8C00001462046FFF782FEF5
:100BC000A37DE28903EB430302EB4303E3810120AE
:100BD00005B0F0BDA67DB4F90E00B4F91020B4F84C
:100BE00014E0678A02960B468DE880400146204655
:100BF000FFF768FE2979E389A27D012001FB02331A
:100C0000E38105B0F0BD0022C2819A7A817D038A1A
:100C100001FB02330382012005B0F0BDB4F91020BE
:100C2000C4E7857DB4F91020B0F90E00BEE7028A52
:100C3000817DC38102EBC1030382C8E70020E0810C
:100C40009B7A228A03FB062212B22282C7E700BFE8
:100C5000C1810282704700BF002908BF0121817550
:100C6000704700BF81824182704700BF01767047A4
:100C70002DE9F04F834A844908241023146013603F
:100C800090F835400123A3405BB20B7090F83530EB
:100C90000133DBB2032B85B080F8353040F2C381DD
:100CA000002280F8352090F8343090F82810013375
:100CB000DBB2994280F8343040F2E081846B734BB0
:100CC0001022082119601A6090F8352002F0FF0305
:100CD000002A40F0C380B0F90660002E40F3BB80CC
:100CE0006B4FDFF8E491DFF8DC816A48DFF8DCC1A4
:100CF000DFF8DCB11A464FF0040EA24677E0664CEE
:100D00000125256013F0040F644D046840F20314BC
:100D100008BF4FF480742C600C074CBF604C614CD2
:100D20004FF480552560DCF8004014F00C0F08D11A
:100D300013F0080F5C4D40F2031408BF4FF48074A9
:100D40002C60CD064CBF564C564C4FF400552560D8
:100D5000DCF8004014F00D0F08D113F0100F534DC4
:100D600040F2031408BF4FF480742C608C0640F1ED
:100D70009B81494C802525600468650708D113F0E4
:100D8000200F4B4D40F2031408BF4FF480742C60C9
:100D90004C0640F19181404C1025256004686507A0
:100DA00008D413F0400F434D40F2031408BF4FF432
:100DB00080742C600C0640F17B81374904240C6060
:100DC0000168890708D413F0800F3B4940F20313F0
:100DD00008BF4FF480730B60CBF800E000BF00BF8A
:100DE0000132D2B2B242C7F800E0134633DA3344DC
:100DF0000AEB03041AF80310A35D1AF802504FF42B
:100E000080343C609B00090101F0300103F00C03C9
:100E1000D9F800400B4343EA8513E406D9B203D462
:100E2000264D4FF480742C604FF400343C60D9F8A8
:100E3000004014F0110F03D1214D4FF480742C6049
:100E40004D073FF55CAF0124C8F800405AE703980E
:100E5000029B1C44846305B0BDE8F08FB0F90630F6
:100E60000293002BF4DD029BDFF82480DFF858C0EA
:100E7000DFF85CE0134F0749074E0390042500227A
:100E80000193BFE084F00F403687FF1F88F00F40CA
:100E900048F00F40D4F00F40C4F00F4000C00440B1
:100EA00004F00F4008F00F403090044034900440AC
:100EB0001CC0044010C0044008C0044040A00440CE
:100EC00044A00440C8F00F4054F00F4014F00F400D
:100ED00044F00F40CEF80090DCF8009019F0100FAD
:100EE00004D140F20319A148C0F8009098074FF4CC
:100EF000003940F12B81CEF80090DCF8009019F019
:100F0000110F04D140F203199948C0F80090580716
:100F10004FF0010940F11381C6F80090D1F800901C
:100F200040F2031ADFF860921807C9F800A040F1F8
:100F3000F580DFF858A209F5332909F114094FF4B7
:100F4000805BCAF800B0D9F8009019F00C0F05D1F9
:100F500040F2031ADFF83892C9F800A0D80640F131
:100F6000CC80DFF828A2DFF82C924FF4005BCAF89F
:100F700000B0D9F8009019F00D0F05D140F2031A16
:100F8000DFF81492C9F800A098064FF0800940F1EC
:100F9000A980C6F80090D1F8009019F0070F05D18C
:100FA00040F2031ADFF8F491C9F800A058064FF098
:100FB000100940F18C80C6F80090D1F8009019F02B
:100FC000040F05D140F2031ADFF8D491C9F800A04C
:100FD00013F0800F4FF0040372D033600B68980752
:100FE00004D440F20319634BC3F80090CEF80050CC
:100FF00000BF00BF0132019BC8F80050D2B29A4234
:10100000BFF625AFA35CD8074FF480393FF562AF38
:10101000C8F80090DCF8009019F0100F7FF466AF6C
:101020004FF480795FE790F83530012B7FF446AEBE
:1010300090F83430DF0740F194800423136090F877
:1010400034309E074CBF4C4B4C4B02221A6090F838
:1010500034305D074CBF484B484B01221A6090F872
:101060002830082B7FF62AAE90F834301C074CBF8E
:10107000434B444B846B01221A6020E680F83420F5
:1010800090F82A3043B190F82930C3F10103DBB264
:1010900080F8293080F82A2090F82930C3F109031C
:1010A00050F8234084630AE68024C8F8004063E6D1
:1010B0000421C8F8001083E61024C8F800406DE64B
:1010C0003B600B689B0791D44FF480798BE7C7F89E
:1010D0000090D1F8009019F0040F7FF479AF4FF42D
:1010E000807A71E7C7F80090D1F8009019F0070FE7
:1010F0007FF45CAF4FF4807A54E7DFF8A8A0DFF804
:1011000094904FF4005BCAF800B0D9F8009019F041
:101110000D0F7FF439AF4FF4807A31E7DFF884A008
:10112000DFF870904FF4805BCAF800B0D9F80090F7
:1011300019F00C0F7FF412AF4FF4807A0AE7C7F86A
:101140000090D1F800904FF4807AEBE6C8F8009058
:10115000DCF8009019F0110F7FF4D9AE4FF48079CC
:10116000D2E6064B04221A6069E700BF40A00440A3
:1011700044A0044008C0044084F00F4088F00F40B1
:1011800044F00F4048F00F4000C0044004F00F400E
:101190003090044014F00F40349004401CC00440D0
:1011A00010C0044008F00F40064A07491378086849
:1011B000013B5BB2137013785BB2002B00DD70470C
:1011C000FFF756BD3687FF1F9C90FF1F0029C0F216
:1011D000DF802DE9F043B0F90A408C4240F3CB8028
:1011E000002AC0F2C880B0F90C40944240F3C3809A
:1011F000C47D022C00F0C180032C00F0CE80012CB5
:10120000B0F9068004D108F1FF34A41A0A4621B2CD
:1012100090F8287090F829904FEA233CC3F3C71E3A
:10122000BA42C3F347035FFA8CF40EF00F0503F0E4
:101230000F0651DA09F1080902FB08F707EB47022C
:1012400050F82970114439441CF0010F11F818208E
:1012500022F0030201F8182007D0B0F9067011F847
:10126000172042F0010201F817201EF0010F07D0ED
:10127000B0F9067011F8172042F0020201F81720A9
:10128000B0F9062013F0010F8B5C00F0828043F070
:1012900001038B54032702220B78144203F0E3036B
:1012A00018BF43F0040315420B704FEA420305D008
:1012B00091F800E04EF0080E81F800E01642DAB234
:1012C00003D00B7843F010030B70B0F90630013FE8
:1012D0001944E1D1BDE8F083D21B08FB02F209F109
:1012E000080702EB4202114450F8278018F8012049
:1012F00022F0030208F801201CF0010F08EB01079F
:10130000B0F906C017F80C2014BF42F0020222F018
:10131000020207F80C2018F801201EF0010F1CBF74
:1013200042F0010208F80120DB0744BF42F002024C
:1013300008F801200223032100E03A7802F01F029E
:101340001C4218BF42F020021D423A704FEA43028D
:1013500005D097F800E04EF0400E87F800E01E42FE
:10136000D3B203D03A7862F07F023A70B0F9062027
:1013700001391744E1D1BDE8F083B0F90680048952
:1013800008F1FF35013C691AA41A09B222B23FE7FD
:10139000704723F001038B547CE70489B0F9068081
:1013A000013C641A114622B232E700BF03FB01F38D
:1013B00070B50E46054603EB430480F82810AAB129
:1013C000012104FA01F001F039FD2862B0B1204496
:1013D000013E0023F6B2032285F8352085F83460FB
:1013E00085F82A3085F82930686270BD20460121D1
:1013F00001F024FD28620028EAD170BD70BD00BF55
:1014000070B5044615460E4611462022FFF740FAF5
:10141000074B236000208021E06284F830102046D2
:101420002B4632461021FFF7C1FF204670BD00BF9A
:10143000F43D00002DE9F041002380F8293090F8B8
:1014400029306E4A6E4F1060C3F109036D4D50F89C
:1014500023308363042604460121132000F06CFB33
:101460004FF010083E6001210A2000F065FB0121C9
:101470000920C5F8008000F05FFB634B08221A606A
:101480000121172000F058FB2E600121162000F0EA
:1014900053FB022301212B600E460F2000F04CFB72
:1014A0002E6094F82830082B00F2A280574A584941
:1014B0001368584F584E5948DFF89CC1DFF89CE13B
:1014C00013F4803F40F2031314BF1D464FF48075A0
:1014D0000D601268524D12F4003F14BF1A464FF4CB
:1014E00080723A604F4A336007F5FE57036000F59B
:1014F00036202B600C371360183002F533224FF47E
:10150000803538323B60B36005600023464D474864
:101510001268CCF80030CEF8003001232B60036055
:1015200000F5BE501830424F424E3B6033602B6195
:101530000360D00658BF4FF48073314A58BF0B6028
:101540003D4B4FF4003111601B6813F0110F03D1B4
:10155000304B4FF480721A60384B3949394E2E4D5A
:10156000394A012018604FF480734FF48050366878
:101570002B600860126812F00C0F04BF274A13603A
:101580002F4A314B4FF4005111601B6813F00D0FBF
:1015900003D1234B4FF480721A60284A294B8021D3
:1015A00011601B68590703D11E4B4FF480721A60FB
:1015B000224A244B102111601B685A0703D4234B85
:1015C0004FF480721A601D4A1E4B042111601B6883
:1015D0009B0703D41E4B4FF480721A6004F12C0059
:1015E00040F283321B4901F0F1F862B6BDE8F081A8
:1015F0004046314600F0A0FA3E6057E79C90FF1F3E
:1016000048F00F4088F00F4084F00F4040F00F404A
:1016100040A0044044A0044000C004403090044076
:10162000349004401CC00440801AFE43B002FE43C4
:10163000B402FE439C1AFE4354F00F40C8F00F4022
:1016400008F00F40D4F00F4014F00F4010C00440D9
:1016500008C00440A9110000C00AFE43C40AFE43AA
:10166000980000F01C00C3F341030343100243EA57
:10167000413300F4E06052011843D2B2890201F410
:10168000C0511043084380B2704700BF4B1E9BB24D
:101690004FF6FD72934201D8FFF7E8B810B4044644
:1016A00090F82900B4F9063094F82820083012FB8D
:1016B00003F254F8200010BC02EB420201F0EABE33
:1016C000374A384913681B06FCD40B6813F08003B3
:1016D000F8D172B634490A78002A5FD0334A3448C8
:1016E000F0B4344C176806682568D4680C303E4462
:1016F000143200681268304F35442C4420440244B0
:10170000C2F34E022D4E2E482E4D2F4C42F4004275
:101710003A60376806682D682C4A24680C303E44CD
:10172000006812682A4F35442C4420440244C2F316
:101730004E02284E2848294D294C42F400423A6076
:10174000376806682D68274A24680C303E440068D4
:101750001268254F35442C4420440244C2F34E0203
:10176000224E2348234D244C42F400423A6037680D
:1017700006682D68214A24680C303E4400681268CF
:1017800035442C4420440244C2F34E021C4842F427
:10179000004202600B7062B6F0BC704762B67047E0
:1017A00024B0034024B00B40A190FF1F38B0034089
:1017B0003CB0034040B003402CB0034058B003405D
:1017C0005CB0034060B0034064B003406CB00340C1
:1017D00030B0034038B00B403CB00B4040B00B4041
:1017E00044B00B404CB00B402CB00B4058B00B40F9
:1017F0005CB00B4060B00B4064B00B406CB00B4071
:1018000030B00B4030B42948294A2A4B2A4D602475
:10181000E121047011701B78284C082B30D00A2B62
:101820002748284937D00C2B0CBF35225D221223C4
:101830002A60236002600B60234B24491B78244AF2
:10184000BBB101230B601360224B23491B78234A51
:10185000012B26D9042B0FD9082B1ED9102B94BF8E
:10186000862387230B6013601D4B01221A7030BC46
:1018700070470B601360E7E784230B601360F3E7A6
:1018800000F58E200F490830212213232A6023609F
:1018900002600B60D0E73922F7E785230B60136005
:1018A000E2E780230B601360DEE700BF00400740E3
:1018B000014007403787FF1F08B003400CB00340CA
:1018C00008B00B400CB00B40A490FF1F20B00340A9
:1018D00020B00B403887FF1F24B0034024B00B40DA
:1018E000A190FF1F28282FD8334B2DE9F0411E5C13
:1018F000FF2E2BD0314B1B78002B2AD132062CD453
:1019000072B62F4D2F4C2F46012326602B7062B6E6
:1019100072B623681B060CD43B781BB9F4E72B780E
:10192000002BF1D062B601F03FF872B623681806BA
:10193000F5D5254B1B6800222A7062B6234A107821
:1019400043FA00F0BDE8F081002070470020BDE8B8
:10195000F081FFF7B5FE3206D2D572B61C4DDFF826
:101960007C801C4C06F04007FFB206F03F06D8F81A
:101970000030DFB123F01003C8F8003001232660E7
:10198000134A2B7062B672B6236819060CD413780A
:101990001BB9ECE72B78002BE9D062B601F004F814
:1019A00072B623681B06F5D50B4BC3E743F0100353
:1019B000C8F80030E2E700BF243E0000A190FF1FFE
:1019C000A390FF1F00B0034010B00340A090FF1F82
:1019D000A290FF1F00B00B4010B00B400CB00B40AA
:1019E000024A136801331360704700BFA890FF1FBD
:1019F00008B5104C08E0236859050DD423681A0572
:101A00000FD42368DB0411D423685803F3D500F006
:101A1000DBF923685905F1D501F02AF823681A0586
:101A2000EFD501F0BBF82368DB04EDD501F04CF9EC
:101A3000EAE700BF3480044008B5FFF7D9FF00BFD4
:101A4000014B10221A80704700200540704700BFEC
:101A5000094908B50B6830B16A461844A2F58052AE
:101A6000904202D20860184608BD01F025FA0C2306
:101A700003604FF0FF3008BD3C87FF1FFEE700BF4B
:101A80001C4A02EBC00301295B6811D004291BD05A
:101A900052F83000002280F8802229B1022920D09B
:101AA000032922D01A6070474FF480721A60704781
:101AB00052F830004FF4A27280F880121A601A684F
:101AC00022F020021A60704752F830104FF4A272D0
:101AD000012081F880021A601A6842F020021A6020
:101AE000704740F203121A6070474FF481721A6017
:101AF000704700BF503E000030B4054B054D064C0A
:101B0000002210211A602A602060196030BC7047E2
:101B100014D0034004D0034000D00340212806D84D
:101B2000044B53F8303093F80002C0B270470020E5
:101B3000704700BF503E0000212801D8FFF7A0BF2A
:101B4000704700BF2DE9F843054672B6204F214B80
:101B5000214A1B683C68126862B6520102D5322BDA
:101B600088BF013495B3C3F5EA331C4EDFF86490A7
:101B7000DFF86480BF334FF47A72A6FB031302FBD5
:101B800004F404EB931472B6D9F800103A68D8F84C
:101B900000E062B6C1F5EA33BF33A6FB03031EF0D3
:101BA000806FC4EB93134FF47A7002D0322988BF50
:101BB000013200FB0233B3F57A7F04D3013D05D037
:101BC00004F57A74DFE700F0EFFEDCE7BDE8F883A8
:101BD000A890FF1F18E000E004ED00E089888888E5
:101BE000F8B52D4B2D49DFF8D0E0DFF8D0C02C4EF2
:101BF0002C4D2D4C2D4A2E4F4FF4000018604FF005
:101C0000807018604FF0007018604FF080601860AE
:101C10004FF0006018600020086028234EF6FF7126
:101C2000CCF80010CEF80030336013602B602360D6
:101C30003B60B3629362092245F8242CC4F8D80FA4
:101C400005F57F65C7F8D41F07F5FF2707F5FA6785
:101C5000C6F8F83F2B6006F5FF26C4F8D42F05F52B
:101C6000FD2504F5FF24386006F2F4761148316052
:101C700005F5FF6504F5FD642B6023600260FFF746
:101C8000C1FD3220FFF75EFF00F0CAFC4FF4AF70D9
:101C9000BDE8F840FFF756BF08E100E004800340CC
:101CA00014800340248003402C8003401C800340A8
:101CB0003480034000800B400C80034008800340C8
:101CC000F0B472B61A491B4E012311F8014B194F9B
:101CD0009A00240742F0010505D556F8324064B158
:101CE00056F83520BAB10133052BEED162B6124B4E
:101CF00000221A70F0BC00F00FBD0F4C0F4D217880
:101D000047F8325007EB431308304A1E58602270E0
:101D100062B6F0BC70470849094B0A7847F835307D
:101D200007EBC5030830013A58600A7062B6F0E765
:101D3000603F00000080FF1F8191FF1F880040006E
:101D4000C8004000431E032B1DD81B4A400140F031
:101D5000100030B4104472B6184CE25C032A1BD851
:101D6000DFE802F00212151703220D88E25410F08A
:101D7000080F14BFC823882343EA054308310360D2
:101D8000416062B630BC704708300222EDE70522A0
:101D9000EBE708300422E8E7094A52F8230038B19B
:101DA000084A52F82300416042F8231062B6E9E77E
:101DB00042F82310034AF7E70080FF1F9091FF1FAE
:101DC0005891FF1F6891FF1F2DE9F04FDFF804A322
:101DD000DFF804B387B044E0A94F4FEA930807EB5C
:101DE000C809013ED9F8042003F00803F6B2A2F1B5
:101DF000080003F0FF04002B40F0FE8057F8383055
:101E00001B0C99B222F8081C002B00F0EC809D4BB3
:101E100022F8064C42F8044C53F82620002A00F021
:101E20002B82994D55F826305860984C45F826007D
:101E300034F81630194424F8161000F04DFC002830
:101E400000F01382924A934B19F0080F00F108003A
:101E500018BF1346C9F8040047F8383008238AF839
:101E600000309AF80040E4B260071AD58A4B1B781C
:101E7000A3B18A490A7802F0FF0322B1013BDBB229
:101E80000B7003B900BE86490A7802F0FF032AB13D
:101E9000013BDBB20B70002B00F0BD8104238AF8FC
:101EA000003004F0080303F0FF02002B00F0C880AC
:101EB0009BF80030DBB21E098ED19C08704F57F89A
:101EC000342007EBC401C2F38302013A49680C2AAB
:101ED00000F28580DFE802F079798383838383834E
:101EE00042838383070008686E4B6F4D0193684BF4
:101EF0004A686E4E47F8343081B240F28164694BD3
:101F00006A60286000220120A1421A603A61BA6129
:101F1000307000F2E380B1F5D06F80F02782B1F528
:101F2000817F00F0E08100F2C381802900F03682D9
:101F3000822940F0DE81A9885D4B01F07F010429F0
:101F400000F2D8815B4C89000B44227062701A78D1
:101F5000930740F122832070022023E2514B01932A
:101F60001A683AB3544B514E5449188834780D7856
:101F70004028864645F0020828BF4FF0400E002C4E
:101F800084F001043470CEEB00000CBF8824C82418
:101F900007EBC80680B285F0010544EA0E44726082
:101FA000188047F8384072440D70002800F0B78060
:101FB000019B1A603C4B1A88B2F5A06F0FD100212B
:101FC0009A7859703E4B1A7009E0374A108842F2ED
:101FD0002102904200F0A8802D4A47F83420394A67
:101FE000012313703AE72A4A2A4B19F0080F18BF49
:101FF000134647F8383031E700F08EFB324A334958
:1020000052F82630002B00F03B8158688C5D42F876
:10201000260003F10802C9F80420032C05D8DFE8E4
:1020200004F02C02292602228A551A8819F0080F7A
:102030000CBF8823C82343EA024347F838300DE732
:10204000E00700F1EB80210600F12881A20706D508
:102050001F4A204913780220DBB213700870E30690
:1020600002D51C4B10221A7007B0BDE8F08F042275
:102070008A55DAE705228A55D7E703228A55D4E73D
:102080000080FF1F0491FF1FB090FF1F6493FF1F8C
:10209000C8004000880040008C91FF1F1591FF1F71
:1020A0009491FF1FAC90FF1F7891FF1F1491FF1FA9
:1020B000C02007408491FF1FC090FF1F8091FF1F29
:1020C00098200740942007405891FF1F9091FF1FD0
:1020D00088200740802007409020074042F22104DA
:1020E000A14200F0948043D8B1F5086F00F0A881B8
:1020F000B1F5106F40F0FD80B84AB94CA978117065
:1021000004F1800503E00834AC4200F09E81236AAC
:102110001906F8D5606A083800F0FEFAF3E7BEF158
:10212000400F18BF002243E7AE4ACD1D11F8013B16
:1021300002F8013FA942F9D1AB4A1268862A00F0A1
:102140001181AA49AA4E0A78307882F00105002848
:1021500042F002020D700CBF8821C82147F83210EE
:1021600007EBC20280F0010000213070516033E7BC
:1021700042F22124A14240F0FE81DFF8BCC29D4B17
:102180009D49AC78DCF800501D6081460C70002041
:10219000029080468446044694490D7845F0020E2C
:1021A00007EBCE03B9F1000F5C600CBF8824C82494
:1021B00044EA080385F0010447F83E3032700C70A1
:1021C000DFF81CE28A4BDFF82482002840F0988078
:1021D000BCF1400F1BD144F0020407EBC403029F83
:1021E000DFF8FCE15F60002A40F09F80020442F0CB
:1021F000880207444EF8342086F800900D703B4664
:10220000402804D100207D4A019910800B607C4A4F
:1022100001231370E3E600F0B3FA3FE6704B784811
:1022200072491A614FF0020E80F800E0754F0A7093
:10223000754919609960754E754D764C9A610D21FE
:102240003970FF213170DFF8F4E129702270724D8E
:10225000724A8EF800109F27012406F8047C5D6006
:102260000470DA6007B0BDE8F08F6D4A47F83800B7
:10227000137801331370F1E543F82600694DD4E576
:102280008B5D032B67D801A252F823F05D1E00007E
:102290005D1E0000E1220000DB22000059495C4B7A
:1022A00080220D2008701A70A2077FF5D8AECFE605
:1022B00040F20232914240F05681A98801F07F013C
:1022C000042916D86A88A2B94E4C89000C4481466C
:1022D000217841F00201217059E701238B55BDE5BA
:1022E00000238B55BAE5A98801F07F01042940F24B
:1022F0004781444B0F221A70414A012313706EE646
:1023000040287FF668AF44F002040EEBC401029E41
:102310004E60AAB1444A83F800903346403888F8AA
:10232000005040334EF834206DE70204029B86F8DB
:10233000009042F0C8020D7003444EF834205FE76D
:1023400083F80090029B304A88F8005040384033B0
:102350004EF8342057E719F0080F0CBF022303236F
:102360008B557BE5314A0F211170EAE6304A5468FB
:10237000002CBED06888B5F804E003E00C32546845
:10238000002CB6D013888342F8D153887345F5D119
:10239000000A03280CBF2078108903E0254C022096
:1023A00022706270EA88824280F00C810F490D78B9
:1023B000402A45F0020E944607EBCE0028BF4FF0AE
:1023C000400C04EB0C0344600293CCEB02004FEA98
:1023D0000C484FF001090022C824E9E68C91FF1F48
:1023E0000080FF1F6B93FF1F6C93FF1F8091FF1FE7
:1023F0001491FF1F7493FF1FA091FF1FC090FF1F38
:1024000094200740C02007408800400088200740F3
:102410008020074098200740C490FF1F1891FF1F9D
:102420008191FF1FB090FF1FC80040001591FF1F52
:10243000643F00008491FF1FA890FF1F8C2007407D
:10244000684A694C12782270ACE76849684B694A5F
:1024500002916949694C6A4D039405964FF0000951
:1024600088461C4616460495206828B1456800F049
:1024700053F92846002DF9D100232360049B3068CE
:102480001A46002342F8293028B1456800F044F983
:102490002846002DF9D100223260029A98F80030C7
:1024A0001146002241F8042B039A0291023B4FF09F
:1024B000000122F81910032B07D8DFE803F03402DB
:1024C00034024FF0010388F8003009F10109B9F135
:1024D000040F04F1040406F1040608F10108C3D155
:1024E000484B059EDFF83091DFF8308100211970EC
:1024F000012518F8013B09F8043B1A0718D4AC0071
:1025000044F0020244F00304002347F8323047F855
:1025100034303D4B994505F10105EAD196F800901C
:1025200089F0010233E64FF0000388F80030CCE771
:1025300000F0D2F8AC0007EB451300F108020028C8
:1025400037D05A60314B47F8343000F0C5F844F0CA
:10255000010307EBC30200F1080100B351602C4AEC
:1025600047F83320CCE7B1F5A06F7FF4C2AE00226C
:102570004FF001090BE642F221329142F7D0B8E662
:102580006A88002A7FF4B5AE224C89000C4481464B
:10259000217821F002012170F9E5022002E7194BB0
:1025A00044F001021B7847F83200164A01331370D9
:1025B000A6E7144B134A1B78AC00013347F83400EC
:1025C0001370C2E74028844628BF4FF0400C04EB4C
:1025D0000C03CCEB00004FEA0C48029300224FF0B2
:1025E0000109D9E58C91FF1F8491FF1F6891FF1F9E
:1025F0000491FF1F5891FF1F9091FF1F6493FF1FCD
:10260000B090FF1F8191FF1FD42007408800400039
:10261000C8004000C0200740C4200740603F0000C1
:102620002DE9F843204C00F0BBFB002204F18800A8
:1026300023461A605A60083383424FF00001F8D1F4
:102640001A4A1B4F13681B4D1B481C4EDFF878803D
:10265000DFF878C0DFF87890DFF878E043F4802383
:102660001360C4F307233B70C4F307432B70240E9D
:10267000FF2302F528320470114D88F8003011480C
:102680008CF80030D4323370012389F80030702682
:102690008EF800104FF40074102107F8183C2E70CB
:1026A00004601170BDE8F8830080FF1F348004408F
:1026B0009C200740B0200740B4200740102007406E
:1026C00049E400E008E100E080200740882007405E
:1026D000942007400021074072B60D480268B2FA04
:1026E00082F30B2B10DC4FF00041D94022EA0102AB
:1026F000026062B6074803EBC303DB00C218002187
:10270000C15010465160704762B60020704700BF4C
:102710004087FF1FBC83FF1F0D4B0E4AC31AA2FB4D
:1027200003231B090B2B0CD80B4A127852B972B633
:102730000A484FF00041026821FA03F31A4302608D
:1027400062B67047064A1278002AF0D0FFF7B8BA8E
:10275000BC83FF1F398EE3388191FF1F4087FF1F25
:102760008C91FF1F044B054A1B6890881BB11A8887
:102770005B88D31A184470479C91FF1F6493FF1F16
:1027800038B50E4B1B7873B90D4C216861B103F05D
:10279000FF054B880B800420FFF7D4FA256038BD75
:1027A000084B01221A7038BDFFF796FF0028F7D0BA
:1027B0000146BDE838400420FFF7C4BA9591FF1FD9
:1027C0009891FF1F9491FF1F704700BF0368F0B4FA
:1027D000FBB1002501249D60DC601B4C1A601C4489
:1027E000241104F144056A11032692009E60174FDC
:1027F0000679174B47F8241002F1604202F5614256
:1028000005F01F05012000FA05F5E6541560F0BC3F
:102810007047104C236843F40003236000BF0E4B45
:102820000E4DA4F58734A4F59E7401261E60234640
:1028300004609C68002CD0D01033AB420360F8D108
:10284000002303601846E2E7008FFCBF4487FF1FA8
:1028500044E400E03C8004400070034040710340C9
:1028600002685AB130B4064B064C074D13441B1195
:10287000002144F8235030BC91600160704700BFD4
:10288000008FFCBF4487FF1FC9270000024A034B8B
:10289000012111601B6818470C7103404487FF1F1A
:1028A000024A034B012111605B6818471C71034009
:1028B0004487FF1F024A034B012111609B681847A0
:1028C0002C7103404487FF1F024A034B0121116012
:1028D000DB6818473C7103404487FF1FF8B572B1AD
:1028E00006460F4614460025336817F8011B1B687F
:1028F00030469847013C0544F6D12846F8BD1546B8
:10290000FBE700BFF0B507468BB0002A33D0012AA1
:1029100008BF0A2251B3212400E0F4B2B1FBF2F562
:1029200002FB1511C8B2092900F1300198BFC8B2E5
:102930000AA988BF3730214488BFC0B201F8240CEF
:10294000661E2946002DE8D133B1013CE4B20AAB42
:1029500023442D2203F8242C3B6801AA11195B683B
:102960003846C4F1220298470BB0F0BD30228DF8F2
:1029700025202124E8E70368C9B21B6898470BB0FB
:10298000F0BD00BF0029BABF49422D2300230A220F
:10299000FFF7B8BF08B5FDF775FDFDF797FD00F02F
:1029A00003F8FAE7704700BF10B5154C237803B160
:1029B00010BD01232370FFF7D5FE58B900F048F889
:1029C00070B900F0DBF888B900F06EF9A0B9002307
:1029D000237010BDFFF7E6FF00F03AF80028F0D0B2
:1029E00000F020FA00F0CAF80028EDD000F01CFA40
:1029F00000F05AF90028EAD000F018FAE7E700BF23
:102A0000A191FF1FF0B44D1E2E46002400E00134BA
:102A1000B0FBF2F302FB1300092800F130078ABF74
:102A20003730F8B2C0B206F8010F1846002BEED1CD
:102A30000A1953704CB1107815F8016F28700133E2
:102A4000E01A834202F80169F5DB0846F0BC7047E2
:102A5000054A064B10781B78C0B2DBB2984238BFEB
:102A60004030C01A704700BFA891FF1FA991FF1FF7
:102A7000F0B4384B1A7912F0300F2CD072B6997D21
:102A800001F0FF0200293DD062B6334F3349387858
:102A90000D78334E1C46C0B2EDB2431C402BE17999
:102AA00028BF0023AB4202F1FF32C9B21CBFF15470
:102AB000184612F0FF02F0D12A4B1B68C2B23A70DE
:102AC0004BB1A84236BFC5F14005401B401927282D
:102AD000C4BF01221A701F49CA78D2B2150616D493
:102AE00052060DD51B4B1B795B0609D51E4B1F49A2
:102AF0001B6800220A7003B11A70164B3C22DA7070
:102B0000F0BC70474022D9795A7462B6E3E70B797A
:102B10001C06E5D5164B174E1C783378E4B2DBB2B1
:102B20009C420ED0144D01E0A3420AD00133402B49
:102B300028BF00230879E85CC0B2C871087D072867
:102B4000F2D9DBB2034933700B79180644BF7C23FA
:102B5000CB70C5E700A00640A891FF1FA991FF1FF9
:102B6000EC91FF1FA491FF1F3092FF1F2C92FF1FBB
:102B70003492FF1F2D92FF1FAC91FF1F054A064B99
:102B800010781B78C0B2DBB2984238BF4030C01A10
:102B9000704700BFA892FF1F3D92FF1FF0B4384B53
:102BA0001A7912F0300F2CD072B6997D01F0FF0225
:102BB00000293DD062B6334F334938780D78334E13
:102BC0001C46C0B2EDB2431C402BE17928BF002364
:102BD000AB4202F1FF32C9B21CBFF154184612F0E9
:102BE000FF02F0D12A4B1B68C2B23A704BB1A84227
:102BF00036BFC5F14005401B40192728C4BF01223C
:102C00001A701F49CA78D2B2150616D452060DD5CD
:102C10001B4B1B795B0609D51E4B1F491B68002205
:102C20000A7003B11A70164B3C22DA70F0BC704780
:102C30004022D9795A7462B6E3E70B791C06E5D5D0
:102C4000164B174E1C783378E4B2DBB29C420ED0A0
:102C5000144D01E0A3420AD00133282B28BF0023E2
:102C60000879E85CC0B2C871087D0728F2D9DBB2E8
:102C7000034933700B79180644BF7C23CB70C5E73A
:102C800000B00640A892FF1F3D92FF1F6892FF1FF1
:102C90003892FF1FAC92FF1F3C92FF1FB092FF1FA4
:102CA000A992FF1F4092FF1F054A064B10781B7820
:102CB000C0B2DBB2984238BF4030C01A704700BF84
:102CC000B892FF1FB992FF1F30B42B4B1A799406AC
:102CD0001FD52A48DA790378294901333F2B09782F
:102CE000C8BF00238B42D2B203D0264CD9B2E254E3
:102CF0000170254A116861B1244A1278D2B2934218
:102D000036BFC2F140029B1A9B18272BC4BF012378
:102D10000B70194AD378DBB2180611D45A060DD5B8
:102D2000154B1B795B0609D5194B1A491B68002204
:102D30000A7003B11A70104B2C22DA7030BC704745
:102D400011790906EAD5144910480C780178C9B2FE
:102D50008C420DD04A1C272A84BF00210A460F4D01
:102D6000054C98BFD1B2AA5CD2B2E2710170D5E72E
:102D70006C21D170D2E700BF00C00640B892FF1F9F
:102D8000B992FF1FE492FF1FB492FF1F2593FF1F0C
:102D90002893FF1F2493FF1F2C93FF1FBC92FF1F3C
:102DA00070B584B072B6194B194D1A48702241267D
:102DB0000F2480211A702E701A460470197013782F
:102DC0001B06FCD5144B186862B6144B144C984281
:102DD00098BF00EB800001A998BF40000A22FFF7CE
:102DE00011FE01A92046002311F8012B01333AB14D
:102DF0000A2B20F8022FF7D11623237004B070BDE0
:102E00005B00DBB2237004B070BD00BF0000024065
:102E10000700024006000240080002407F9698002A
:102E2000E087FF1F704700BF704700BF704700BFBB
:102E30000B460146184600F039B800BF024B0A465F
:102E40000146186800F002B8208CFF1F10B502FB85
:102E500001F100F067F80446D8B150F8042C22F0D4
:102E60000302043A242A18D8132A14D900231B2A4F
:102E70000360436016D9242A8360C36011BF00F148
:102E800010020361436100F11802002313605360D4
:102E90009360204610BD0246F7E7002100F0FAFAE1
:102EA000204610BD00F10802EFE700BF13460A46B6
:102EB0000146022000F052BB014B1868704700BF6A
:102EC000208CFF1F70B50F4E0F4D761BB61018BF2C
:102ED000002405D0013455F8043B9847A642F9D1A7
:102EE0000A4E0B4D761B01F069F8B61018BF00248E
:102EF00006D0013455F8043B9847A642F9D170BD7D
:102F000070BD00BFC83F0000C83F0000D43F0000B4
:102F1000C83F0000024B0146186800F003B800BF2C
:102F2000208CFF1F2DE9F04F01F10B05162D83B00A
:102F3000064640F29F8035F0070500F1BF80A942A8
:102F400000F2BC8000F0F4FAB5F5FC7FC0F09C8282
:102F50006B0A00F0BA80042B00F28381A80900F10B
:102F6000390E4FEA4E033830C44F07EB8303A3F109
:102F700008015C68A14207D1ACE0002A80F2AC8075
:102F8000E468A14200F0A680636823F003035A1BA3
:102F90000F2AF2DDB9493C6901F1080E744500F0D1
:102FA000B381636823F003035A1B0F2A00F399814E
:102FB000002AC1F814E0C1F810E080F29E80B3F559
:102FC000007F80F06781DB0803F1010C01229B1078
:102FD00002FA03F34A6851F83C80C4F8088001EB18
:102FE000CC091A43A9F10803E3604A6041F83C4068
:102FF000C8F80C40831001249C40944200F28A805F
:10300000144206D120F003006400144200F10400D1
:10301000FAD007EBC009CC468046DCF80C108C4592
:1030200007D173E1002A80F28181C9688C4500F0E4
:103030006D814B6823F003035A1B0F2AF2DD0C4607
:10304000D1F80CC054F8088F4B1945F001054D60BC
:1030500042F00101C8F80CC03046CCF808807B6112
:103060003B61C3F80CE0C3F808E059609A5000F0E7
:1030700061FA1FE0102921D800F05AFA1025062322
:1030800002207E4F07EB8303A3F108025C689442A1
:1030900000F045816368E168A56823F003032344D9
:1030A00030465A68E96042F001028D605A6000F0D3
:1030B00041FA0834204603B0BDE8F08F00240C2309
:1030C0002046336003B0BDE8F08F80234FF0400E00
:1030D0003F2049E770465DE72344E1685A68A568E8
:1030E00042F00102E96030468D605A6000F022FA39
:1030F0000834204603B0BDE8F08F234430465A68B8
:1031000042F001025A6000F015FA0834204603B07C
:10311000BDE8F08FBC68636823F00308A84504D3BA
:10312000C5EB08030F2B00F38C80554BDFF8609143
:103130001A68D9F8003001332A4404EB080A00F079
:10314000608102F580520F3222F47F6222F00F027A
:1031500011463046019200F0EFF9B0F1FF3F83468F
:10316000019A00F05881824500F2FC80454B1968B5
:10317000DA451144196000F05381D9F80000DFF8F6
:1031800010E101301BBFCAEB0B0A5144CEF800B06E
:1031900019601BF0070100F01781C1F10800C1F5AB
:1031A0008051834408315A44C2F30B02C2EB010937
:1031B00049463046019300F0BFF9431C019B00F0E3
:1031C0003F81CBEB00024A4442F001021968C7F884
:1031D00008B04944BC42CBF804201960DFF8A49041
:1031E00016D0B8F10F0F40F2FD806268A8F10C0311
:1031F00023F00703E01802F001024FF0050E1A4316
:103200000F2B6260C0F804E0C0F808E000F21C81F7
:103210001D4BBC681A68914288BF19601B4B1A6825
:103220009142626888BF196022F003029542A2EBC6
:10323000050301D80F2B04DC304600F07BF9002495
:1032400038E7621943F0010345F001056560304637
:10325000BA60536000F06EF90834204603B0BDE850
:10326000F08F142B71D9542B00F2A480280B00F19D
:103270006F0E4FEA4E036E3076E600BF248CFF1FC0
:103280003893FF1F3C93FF1F3493FF1F3093FF1FA2
:103290003090FF1F5A0A042A5ED9142A00F2B38024
:1032A00002F15C0149005B3207EB810C57F82110F9
:1032B000DFF8DC81ACF1080C8C4500F088804A68AE
:1032C00022F00302934202D289688C45F7D1D1F8EB
:1032D0000CC07A68C4F80CC0A160CCF80840CC607F
:1032E00088E6631942F0010745F001056560304644
:1032F0004B610B61C3F80CE0C3F808E05F609A50C3
:10330000083400F017F9D5E64A6873E608F10108B9
:1033100018F0030F0CF1080C7FF47FAE30E0DC688E
:10332000A34208BF02303FF435AEB3E60B440C466F
:103330005A68C96854F8085F42F001025A60304682
:10334000E9608D6000F0F6F8B4E603F15C0E03F17D
:103350005B004FEA4E0307E69A0902F13901490082
:103360003832A1E7BC424A4B3FF400AF9C68626828
:1033700022F003025AE759F80839994540F0828053
:1033800010F0030F00F1FF30F5D17B6823EA04034E
:103390007B6064009C423FF6BDAE002C3FF4BAAEA9
:1033A0001C4240467FF435AE64001C4200F104002C
:1033B000FAD02EE6B3F5AA7F18D8E80B00F1780E04
:1033C0004FEA4E037730CFE54FF48051EBE6012111
:1033D000D8F80430921001FA02F21A43C8F8042017
:1033E000614677E70123CBF8043025E740F25452D9
:1033F000934220D8A80C00F17D0E4FEA4E037C309A
:10340000B2E51032A4E6542A26D81A0B02F16F0155
:1034100049006E3248E7BC68626822F0030205E7A3
:10342000CAF30B0000287FF4A8AE4244BB6842F008
:1034300001025A60ECE6FE234FF07F0E7E2093E5FA
:1034400001224FF00009C1E604F10801304600F006
:1034500049F9D9F80010DBE6B2F5AA7F05D8DA0BF6
:1034600002F17801490077321EE740F254518A4256
:1034700005D89A0C02F17D0149007C3214E7FE2147
:103480007E2211E77B6884E7E808431C5B00F8E5CF
:10349000248CFF1F70B4840746D0541E002A41D0EC
:1034A000CDB2034602E0621EE4B3144603F8015BAA
:1034B0009A07F8D1032C2ED9CDB245EA05250F2C59
:1034C00045EA054519D903F110022646103E0F2E94
:1034D00042F8105C42F80C5C42F8085C42F8045C6C
:1034E00002F11002F2D8A4F1100222F00F0204F04F
:1034F0000F041032032C13440DD91E462246043A01
:10350000032A46F8045BFAD8221F22F00302043291
:10351000134404F003042CB1C9B21C4403F8011B8A
:10352000A342FBD170BC704714460346C2E700BFFC
:10353000704700BF704700BF38B5074C00230546F1
:1035400008462360FEF784FA431C00D038BD236888
:10355000002BFBD02B6038BD7893FF1F2DE9F0477F
:10356000254C2568D5F84841064688469246994636
:10357000C4B360681F2817DC431C76B104EB8005D8
:103580000122C5F888A0D4F8881182401143022E88
:10359000C4F88811C5F808911ED00230636044F861
:1035A00020800020BDE8F087144B03B34FF4C870AF
:1035B000FFF7B0FC0446D0B1D5F84831002780E8C9
:1035C0008800C5F8484138460123C4F88871C4F81A
:1035D0008C71002EE1D0D1E7D4F88C110A43C4F8E5
:1035E0008C21DAE705F5A674C5F84841C1E74FF02C
:1035F000FF30BDE8F08700BFB83F0000152F000086
:10360000024B13B1024800F005B8704700000000FB
:1036100021360000002301461A461846FFF79EBFD8
:1036200038B5074D074C2C1BA41005D0013C55F8AC
:10363000043D9847002CF9D1BDE8384000F0CABCE1
:103640000000000000000000F8B5234F0C460646BD
:10365000FFF76EFFBB685D6825F00305291B01F6C7
:10366000EF7121F47F6121F00F01A1F58054B4F5D1
:10367000805F07DB00213046FFF75EFFBB682B440D
:10368000984204D03046FFF755FF0020F8BD614254
:103690003046FFF751FF01300DD0104BBA68196862
:1036A0002D1B45F001053046091B55601960FFF7D9
:1036B00041FF0120F8BD00213046FFF73DFFBA6809
:1036C000831A0F2BDEDD064C0449246843F0010306
:1036D000001B53600860D5E7248CFF1F3C93FF1F3D
:1036E0003090FF1F002945D02DE9F0410D4680465E
:1036F000FFF71EFF55F8047C6A4927F00103A5F186
:103700000804E2188E685068B24220F0030062D0CC
:10371000FE0750600BD455F8087CE41B01F1080E3D
:10372000A56875453B446FD0E768EF60BD6015182C
:103730006D68ED0742D543F001026260E350B3F5D6
:10374000007F18D2DB085A1C4D6851F83270A76010
:1037500001209B1000FA03F301EBC2001D4308385F
:10376000E0604D6041F83240FC604046BDE8F04109
:10377000FFF7E0BE70475A0A042A53D89A0902F1AB
:1037800039077F0002F1380501EB870051F8272047
:103790004449083890424DD0516821F003018B42D2
:1037A00002D292689042F7D1D068E060A260846053
:1037B000D4604046BDE8F041FFF7BCBE95683A4F83
:1037C000BD4203443FD0D068E86043F00102856009
:1037D0006260E350B3E7FF07034407D455F8082CB1
:1037E000A41A1344A068E268C26090602F4A12686D
:1037F00043F00100934260608C60B6D32C4B40468E
:103800001968FFF721FFB0E711184968C90744D4C8
:103810009168D268CA60034443F00100916060601F
:10382000E350A2E7142A17D802F15C077F0002F1E7
:103830005B05A9E7AA104B68012505FA02F21343BC
:103840004B600246B1E743F001024C610C61E56058
:10385000A5606260E35088E7542A06D81A0B02F18B
:103860006F077F0002F16E058EE7B2F5AA7F06D8DA
:10387000DA0B02F178077F0002F1770584E740F266
:103880005450824206D89A0C02F17D077F0002F163
:103890007C0579E7FE277E2576E743F0010262602A
:1038A000E35062E7248CFF1F2C8CFF1F2C90FF1F1E
:1038B0003893FF1F00000000003E5B4F5B3E3E6BF5
:1038C0004F6B3E1C3E7C3E1C183C7E3C181C577DBA
:1038D000571C1C5E7F5E1C00183C1800FFE7C3E706
:1038E000FF0018241800FFE7DBE7FF30483A060E18
:1038F0002629792926407F050507407F05253F5A5F
:103900003CE73C5A7F3E1C1C08081C1C3E7F1422CE
:103910007F22145F5F005F5F06097F017F00668979
:10392000956A606060606094A2FFA29408047E04BF
:103930000810207E201008082A1C08081C2A0808E5
:103940001E101010100C1E0C1E0C30383E383006A5
:103950000E3E0E06000000000000005F00000007A1
:10396000000700147F147F14242A7F2A12231308CF
:10397000646236495620500008070300001C2241AB
:10398000000041221C002A1C7F1C2A08083E08084F
:1039900000807030000808080808000060600020FF
:1039A000100804023E5149453E00427F40007249E2
:1039B0004949462141494D331814127F1027454586
:1039C00045393C4A4949314121110907364949499C
:1039D00036464949291E000014000000403400000A
:1039E0000008142241141414141400412214080273
:1039F000015909063E415D594E7C1211127C7F49E6
:103A00004949363E414141227F4141413E7F49493A
:103A100049417F090909013E414151737F08080866
:103A20007F00417F41002040413F017F0814224137
:103A30007F404040407F021C027F7F0408107F3E91
:103A40004141413E7F090909063E4151215E7F09FE
:103A5000192946264949493203017F01033F404065
:103A6000403F1F2040201F3F4038403F6314081450
:103A70006303047804036159494D43007F41414188
:103A80000204081020004141417F04020102044069
:103A900040404040000307080020545478407F28ED
:103AA0004444383844444428384444287F385454E3
:103AB000541800087E090218A4A49C787F08040406
:103AC0007800447D40002040403D007F10284400A5
:103AD00000417F40007C047804787C080404783836
:103AE00044444438FC1824241818242418FC7C0866
:103AF000040408485454542404043F44243C4040E3
:103B0000207C1C2040201C3C4030403C4428102895
:103B1000444C9090907C4464544C440008364100DE
:103B20000000770000004136080002010204023C58
:103B30002623263C1EA1A161123A4040207A385427
:103B400054555921555579412254547842215554A0
:103B5000784020545579400C1E52721239555555F3
:103B600059395454545939555454580000457C41DE
:103B70000002457D420001457C407D1211127DF01E
:103B8000282528F07C545545002054547C547C0A48
:103B9000097F4932494949323A4444443A324A4811
:103BA00048303A4141217A3A42402078009DA0A015
:103BB0007D3D4242423D3D4040403D3C24FF242467
:103BC000487E4943662B2FFC2F2BFF0929F620C086
:103BD000887E090320545479410000447D413048D7
:103BE000484A32384040227A007A0A0A727D0D191A
:103BF000317D2629292F28262929292630484D407C
:103C000020380808080808080808382F10C8ACBA77
:103C10002F102834FA00007B000008142A142222F6
:103C2000142A14085500550055AA55AA55AAFF553F
:103C3000FF55FF000000FF00101010FF00141414C7
:103C4000FF001010FF00FF1010F010F0141414FC0F
:103C5000001414F700FF0000FF00FF1414F404FC2C
:103C6000141417101F10101F101F1414141F00100D
:103C70001010F0000000001F101010101F10101086
:103C800010F010000000FF10101010101010101095
:103C9000FF10000000FF140000FF00FF00001F10D5
:103CA000170000FC04F414141710171414F404F48F
:103CB0000000FF00F714141414141414F700F71480
:103CC0001414171410101F101F141414F4141010CF
:103CD000F010F000001F101F0000001F1400000073
:103CE000FC140000F010F01010FF10FF141414FF6B
:103CF000141010101F00000000F010FFFFFFFFFF66
:103D0000F0F0F0F0F0FFFFFF0000000000FFFF0FF9
:103D10000F0F0F0F3844443844FC4A4A4A347E029D
:103D2000020606027E027E0263554941633844441E
:103D30003C04407E201E2006027E020299A5E7A5D3
:103D4000991C2A492A1C4C7201724C304A4D4D3044
:103D50003048784830BC625A463D3E494949007E69
:103D60000101017E2A2A2A2A2A44445F4444405100
:103D70004A444040444A51400000FF0103E080FFB4
:103D8000000008086B6B083612362436060F090F40
:103D900006000018180000001010003040FF01015C
:103DA000001F01011E00191D1712003C3C3C3C0085
:103DB000000000000000000000000000250B0000D3
:103DC000DD280000A1060000A50600007D1A000005
:103DD000A9060000F5070000150800008D07000087
:103DE000310800006D0800008D0800000000000090
:103DF00000000000250B0000DD280000A1060000E7
:103E0000A5060000CD110000A9060000F50700007E
:103E1000150800008D070000310800008D16000015
:103E20008D080000050E08090D0C06070F0400138D
:103E30000393050E08090D0C06070F04FFFFC58547
:103E4000848687C4FFFF001303931A9217FFFFFFB6
:103E50004008FE4340A004404408FE4344A0044000
:103E60000018FE4300C004403000FE433090044080
:103E70003400FE43349004401C18FE431CC0044030
:103E80001018FE4310C004400818FE4308C0044048
:103E90000C18FE430CC004400C10FE430CB0044050
:103EA0001010FE4310B004401810FE4318B0044038
:103EB0001C10FE431CB004401410FE4314B0044018
:103EC0000418FE4304C004400010FE4300B0044048
:103ED0000008FE4300A004400408FE4304A0044080
:103EE0000C08FE430CA004400808FE4308A0044050
:103EF0001418FE4314C004401818FE4318C00440B0
:103F00000410FE4304B004400810FE4308B004400F
:103F10001400FE43149004404C08FE434CA004409F
:103F20000420FE4304D004402410FE4324B0044087
:103F30002010FE4320B004402810FE4328B0044067
:103F40002C10FE432CB004400020FE4300D004405F
:103F50004808FE4348A004401000FE43109004406F
:103F600000151915000100005487FF1F1200000002
:103F7000000200008087FF1F4300000000030000D4
:103F8000DC87FF1F00000000010309046887FF1F92
:103F90000000000002030904C487FF1F00000000A6
:103FA00003030904E087FF1F000000000000000079
:103FB0000000000000000000F887FF1FF8B500BFF8
:103FC000F8BC08BC9E46704701360000350400006E
:043FD000790600006E
:043FD400F8B500BF7D
:103FD8000000000080000000800000008000000059
:103FE800800000000707010A040000007C93FF1FFF
:103FF800FFFFFFFFC9270000C9270000C9270000ED
:10400800C92700001201010102000040C016830404
:104018000002010203010000180354006500650056
:104028006E00730079006400750069006E006F000F
:1040380009024300020100C0320904000001020223
:1040480001000524001001052401010104240206D1
:104058000524060001070582031000400904010039
:10406800020A000000070503024000000705840259
:104078004000000016035500530042002000530082
:1040880065007200690061006C0000000403090407
:104098000C03000000000000000000000000000009
:1040A800000000000000000000000000E48AFF1F7C
:1040B8004C8BFF1FB48BFF1F0000000000000000A6
:1040C80000000000000000000000000000000000E8
:1040D80000000000000000000000000000000000D8
:1040E80000000000000000000000000000000000C8
:1040F80000000000000000000000000000000000B8
:1041080000000000000000000000000000000000A7
:104118000000000000000000000000000000000097
:104128000000000000000000000000000000000087
:104138000000000000000000000000000000000077
:104148000000000000000000000000000000000067
:1041580001000000000000000E33CDAB34126DE604
:10416800ECDE05000B00000000000000000000006D
:104178000000000000000000000000000000000037
:104188000000000000000000000000000000000027
:104198000000000000000000000000000000000017
:1041A8000000000000000000000000000000000007
:1044D800F887FF1F0000000000000000248CFF1F69
:1044E800248CFF1F2C8CFF1F2C8CFF1F348CFF1F6C
:1044F800348CFF1F3C8CFF1F3C8CFF1F448CFF1F1C
:10450800448CFF1F4C8CFF1F4C8CFF1F548CFF1FCB
:10451800548CFF1F5C8CFF1F5C8CFF1F648CFF1F7B
:10452800648CFF1F6C8CFF1F6C8CFF1F748CFF1F2B
:10453800748CFF1F7C8CFF1F7C8CFF1F848CFF1FDB
:10454800848CFF1F8C8CFF1F8C8CFF1F948CFF1F8B
:10455800948CFF1F9C8CFF1F9C8CFF1FA48CFF1F3B
:10456800A48CFF1FAC8CFF1FAC8CFF1FB48CFF1FEB
:10457800B48CFF1FBC8CFF1FBC8CFF1FC48CFF1F9B
:10458800C48CFF1FCC8CFF1FCC8CFF1FD48CFF1F4B
:10459800D48CFF1FDC8CFF1FDC8CFF1FE48CFF1FFB
:1045A800E48CFF1FEC8CFF1FEC8CFF1FF48CFF1FAB
:1045B800F48CFF1FFC8CFF1FFC8CFF1F048DFF1F5A
:1045C800048DFF1F0C8DFF1F0C8DFF1F148DFF1F07
:1045D800148DFF1F1C8DFF1F1C8DFF1F248DFF1FB7
:1045E800248DFF1F2C8DFF1F2C8DFF1F348DFF1F67
:1045F800348DFF1F3C8DFF1F3C8DFF1F448DFF1F17
:10460800448DFF1F4C8DFF1F4C8DFF1F548DFF1FC6
:10461800548DFF1F5C8DFF1F5C8DFF1F648DFF1F76
:10462800648DFF1F6C8DFF1F6C8DFF1F748DFF1F26
:10463800748DFF1F7C8DFF1F7C8DFF1F848DFF1FD6
:10464800848DFF1F8C8DFF1F8C8DFF1F948DFF1F86
:10465800948DFF1F9C8DFF1F9C8DFF1FA48DFF1F36
:10466800A48DFF1FAC8DFF1FAC8DFF1FB48DFF1FE6
:10467800B48DFF1FBC8DFF1FBC8DFF1FC48DFF1F96
:10468800C48DFF1FCC8DFF1FCC8DFF1FD48DFF1F46
:10469800D48DFF1FDC8DFF1FDC8DFF1FE48DFF1FF6
:1046A800E48DFF1FEC8DFF1FEC8DFF1FF48DFF1FA6
:1046B800F48DFF1FFC8DFF1FFC8DFF1F048EFF1F55
:1046C800048EFF1F0C8EFF1F0C8EFF1F148EFF1F02
:1046D800148EFF1F1C8EFF1F1C8EFF1F248EFF1FB2
:1046E800248EFF1F2C8EFF1F2C8EFF1F348EFF1F62
:1046F800348EFF1F3C8EFF1F3C8EFF1F448EFF1F12
:10470800448EFF1F4C8EFF1F4C8EFF1F548EFF1FC1
:10471800548EFF1F5C8EFF1F5C8EFF1F648EFF1F71
:10472800648EFF1F6C8EFF1F6C8EFF1F748EFF1F21
:10473800748EFF1F7C8EFF1F7C8EFF1F848EFF1FD1
:10474800848EFF1F8C8EFF1F8C8EFF1F948EFF1F81
:10475800948EFF1F9C8EFF1F9C8EFF1FA48EFF1F31
:10476800A48EFF1FAC8EFF1FAC8EFF1FB48EFF1FE1
:10477800B48EFF1FBC8EFF1FBC8EFF1FC48EFF1F91
:10478800C48EFF1FCC8EFF1FCC8EFF1FD48EFF1F41
:10479800D48EFF1FDC8EFF1FDC8EFF1FE48EFF1FF1
:1047A800E48EFF1FEC8EFF1FEC8EFF1FF48EFF1FA1
:1047B800F48EFF1FFC8EFF1FFC8EFF1F048FFF1F50
:1047C800048FFF1F0C8FFF1F0C8FFF1F148FFF1FFD
:1047D800148FFF1F1C8FFF1F1C8FFF1F248FFF1FAD
:1047E800248FFF1F2C8FFF1F2C8FFF1F348FFF1F5D
:1047F800348FFF1F3C8FFF1F3C8FFF1F448FFF1F0D
:10480800448FFF1F4C8FFF1F4C8FFF1F548FFF1FBC
:10481800548FFF1F5C8FFF1F5C8FFF1F648FFF1F6C
:10482800648FFF1F6C8FFF1F6C8FFF1F748FFF1F1C
:10483800748FFF1F7C8FFF1F7C8FFF1F848FFF1FCC
:10484800848FFF1F8C8FFF1F8C8FFF1F948FFF1F7C
:10485800948FFF1F9C8FFF1F9C8FFF1FA48FFF1F2C
:10486800A48FFF1FAC8FFF1FAC8FFF1FB48FFF1FDC
:10487800B48FFF1FBC8FFF1FBC8FFF1FC48FFF1F8C
:10488800C48FFF1FCC8FFF1FCC8FFF1FD48FFF1F3C
:10489800D48FFF1FDC8FFF1FDC8FFF1FE48FFF1FEC
:1048A800E48FFF1FEC8FFF1FEC8FFF1FF48FFF1F9C
:1048B800F48FFF1FFC8FFF1FFC8FFF1F0490FF1F4B
:1048C8000490FF1F0C90FF1F0C90FF1F1490FF1FF8
:1048D8001490FF1F1C90FF1F1C90FF1F0000020078
:0448E800FFFFFFFFD0
:00000001FF
